{
  "address": "0x578a80AD3f6D56f873da81b73B8D192aB6BfB063",
  "abi": [
    {
      "anonymous": false,
      "inputs": [
        {
          "indexed": false,
          "internalType": "address",
          "name": "_erc20TokenAddress",
          "type": "address"
        },
        {
          "indexed": false,
          "internalType": "address[]",
          "name": "_receivers",
          "type": "address[]"
        },
        {
          "indexed": false,
          "internalType": "uint256[]",
          "name": "_amountsToTransfer",
          "type": "uint256[]"
        }
      ],
      "name": "BatchPayment",
      "type": "event"
    },
    {
      "anonymous": false,
      "inputs": [
        {
          "indexed": false,
          "internalType": "address",
          "name": "_feeAddress",
          "type": "address"
        }
      ],
      "name": "FeeAddressChanged",
      "type": "event"
    },
    {
      "anonymous": false,
      "inputs": [
        {
          "indexed": false,
          "internalType": "uint256",
          "name": "_fee",
          "type": "uint256"
        }
      ],
      "name": "FeeChanged",
      "type": "event"
    },
    {
      "anonymous": false,
      "inputs": [
        {
          "indexed": false,
          "internalType": "address",
          "name": "_erc20TokenAddress",
          "type": "address"
        },
        {
          "indexed": false,
          "internalType": "address",
          "name": "_feeAddress",
          "type": "address"
        },
        {
          "indexed": false,
          "internalType": "uint256",
          "name": "_fees",
          "type": "uint256"
        }
      ],
      "name": "FeeCharged",
      "type": "event"
    },
    {
      "anonymous": false,
      "inputs": [
        {
          "indexed": true,
          "internalType": "address",
          "name": "previousOwner",
          "type": "address"
        },
        {
          "indexed": true,
          "internalType": "address",
          "name": "newOwner",
          "type": "address"
        }
      ],
      "name": "OwnershipTransferred",
      "type": "event"
    },
    {
      "anonymous": false,
      "inputs": [
        {
          "indexed": false,
          "internalType": "address",
          "name": "_tokenIn",
          "type": "address"
        },
        {
          "indexed": false,
          "internalType": "address",
          "name": "_tokenOut",
          "type": "address"
        },
        {
          "indexed": false,
          "internalType": "uint256",
          "name": "_amountReceived",
          "type": "uint256"
        }
      ],
      "name": "SwapFinished",
      "type": "event"
    },
    {
      "anonymous": false,
      "inputs": [
        {
          "indexed": false,
          "internalType": "address",
          "name": "_swapRouter",
          "type": "address"
        },
        {
          "indexed": false,
          "internalType": "bool",
          "name": "_isSwapV2",
          "type": "bool"
        }
      ],
      "name": "SwapRouterChanged",
      "type": "event"
    },
    {
      "anonymous": false,
      "inputs": [
        {
          "indexed": false,
          "internalType": "uint256",
          "name": "_version",
          "type": "uint256"
        }
      ],
      "name": "UpdatedVersion",
      "type": "event"
    },
    {
      "inputs": [],
      "name": "MANTISSA",
      "outputs": [
        {
          "internalType": "uint256",
          "name": "",
          "type": "uint256"
        }
      ],
      "stateMutability": "view",
      "type": "function"
    },
    {
      "inputs": [
        {
          "internalType": "address[]",
          "name": "_erc20TokenOrigin",
          "type": "address[]"
        }
      ],
      "name": "approveTokens",
      "outputs": [],
      "stateMutability": "nonpayable",
      "type": "function"
    },
    {
      "inputs": [],
      "name": "fee",
      "outputs": [
        {
          "internalType": "uint256",
          "name": "",
          "type": "uint256"
        }
      ],
      "stateMutability": "view",
      "type": "function"
    },
    {
      "inputs": [],
      "name": "feeAddress",
      "outputs": [
        {
          "internalType": "address",
          "name": "",
          "type": "address"
        }
      ],
      "stateMutability": "view",
      "type": "function"
    },
    {
      "inputs": [
        {
          "internalType": "address",
          "name": "_swapRouter",
          "type": "address"
        },
        {
          "internalType": "bool",
          "name": "_isSwapV2",
          "type": "bool"
        },
        {
          "internalType": "address",
          "name": "_feeAddress",
          "type": "address"
        },
        {
          "internalType": "uint256",
          "name": "_fee",
          "type": "uint256"
        }
      ],
      "name": "initialize",
      "outputs": [],
      "stateMutability": "nonpayable",
      "type": "function"
    },
    {
      "inputs": [],
      "name": "isSwapV2",
      "outputs": [
        {
          "internalType": "bool",
          "name": "",
          "type": "bool"
        }
      ],
      "stateMutability": "view",
      "type": "function"
    },
    {
      "inputs": [],
      "name": "owner",
      "outputs": [
        {
          "internalType": "address",
          "name": "",
          "type": "address"
        }
      ],
      "stateMutability": "view",
      "type": "function"
    },
    {
      "inputs": [
        {
          "components": [
            {
              "internalType": "address",
              "name": "token",
              "type": "address"
            },
            {
              "internalType": "address[]",
              "name": "receivers",
              "type": "address[]"
            },
            {
              "internalType": "uint256[]",
              "name": "amountsToTransfer",
              "type": "uint256[]"
            }
          ],
          "internalType": "struct Payroll.Payment[]",
          "name": "_payments",
          "type": "tuple[]"
        }
      ],
      "name": "performMultiPayment",
      "outputs": [],
      "stateMutability": "payable",
      "type": "function"
    },
    {
      "inputs": [
        {
          "internalType": "address",
          "name": "_erc20TokenOrigin",
          "type": "address"
        },
        {
          "internalType": "uint256",
          "name": "_totalAmountToSwap",
          "type": "uint256"
        },
        {
          "internalType": "uint32",
          "name": "_deadline",
          "type": "uint32"
        },
        {
          "components": [
            {
              "internalType": "uint256",
              "name": "amountOut",
              "type": "uint256"
            },
            {
              "internalType": "uint256",
              "name": "amountInMax",
              "type": "uint256"
            },
            {
              "internalType": "address[]",
              "name": "path",
              "type": "address[]"
            }
          ],
          "internalType": "struct Payroll.SwapV2[]",
          "name": "_swaps",
          "type": "tuple[]"
        }
      ],
      "name": "performSwapV2",
      "outputs": [
        {
          "internalType": "uint256",
          "name": "",
          "type": "uint256"
        }
      ],
      "stateMutability": "nonpayable",
      "type": "function"
    },
    {
      "inputs": [
        {
          "internalType": "address",
          "name": "_erc20TokenOrigin",
          "type": "address"
        },
        {
          "internalType": "uint256",
          "name": "_totalAmountToSwap",
          "type": "uint256"
        },
        {
          "internalType": "uint32",
          "name": "_deadline",
          "type": "uint32"
        },
        {
          "components": [
            {
              "internalType": "uint256",
              "name": "amountOut",
              "type": "uint256"
            },
            {
              "internalType": "uint256",
              "name": "amountInMax",
              "type": "uint256"
            },
            {
              "internalType": "address[]",
              "name": "path",
              "type": "address[]"
            }
          ],
          "internalType": "struct Payroll.SwapV2[]",
          "name": "_swaps",
          "type": "tuple[]"
        },
        {
          "components": [
            {
              "internalType": "address",
              "name": "token",
              "type": "address"
            },
            {
              "internalType": "address[]",
              "name": "receivers",
              "type": "address[]"
            },
            {
              "internalType": "uint256[]",
              "name": "amountsToTransfer",
              "type": "uint256[]"
            }
          ],
          "internalType": "struct Payroll.Payment[]",
          "name": "_payments",
          "type": "tuple[]"
        }
      ],
      "name": "performSwapV2AndPayment",
      "outputs": [],
      "stateMutability": "payable",
      "type": "function"
    },
    {
      "inputs": [
        {
          "internalType": "address",
          "name": "_erc20TokenOrigin",
          "type": "address"
        },
        {
          "internalType": "uint256",
          "name": "_totalAmountToSwap",
          "type": "uint256"
        },
        {
          "internalType": "uint32",
          "name": "_deadline",
          "type": "uint32"
        },
        {
          "components": [
            {
              "internalType": "uint256",
              "name": "amountOut",
              "type": "uint256"
            },
            {
              "internalType": "uint256",
              "name": "amountInMax",
              "type": "uint256"
            },
            {
              "internalType": "bytes",
              "name": "path",
              "type": "bytes"
            }
          ],
          "internalType": "struct Payroll.SwapV3[]",
          "name": "_swaps",
          "type": "tuple[]"
        }
      ],
      "name": "performSwapV3",
      "outputs": [
        {
          "internalType": "uint256",
          "name": "",
          "type": "uint256"
        }
      ],
      "stateMutability": "nonpayable",
      "type": "function"
    },
    {
      "inputs": [
        {
          "internalType": "address",
          "name": "_erc20TokenOrigin",
          "type": "address"
        },
        {
          "internalType": "uint256",
          "name": "_totalAmountToSwap",
          "type": "uint256"
        },
        {
          "internalType": "uint32",
          "name": "_deadline",
          "type": "uint32"
        },
        {
          "components": [
            {
              "internalType": "uint256",
              "name": "amountOut",
              "type": "uint256"
            },
            {
              "internalType": "uint256",
              "name": "amountInMax",
              "type": "uint256"
            },
            {
              "internalType": "bytes",
              "name": "path",
              "type": "bytes"
            }
          ],
          "internalType": "struct Payroll.SwapV3[]",
          "name": "_swaps",
          "type": "tuple[]"
        },
        {
          "components": [
            {
              "internalType": "address",
              "name": "token",
              "type": "address"
            },
            {
              "internalType": "address[]",
              "name": "receivers",
              "type": "address[]"
            },
            {
              "internalType": "uint256[]",
              "name": "amountsToTransfer",
              "type": "uint256[]"
            }
          ],
          "internalType": "struct Payroll.Payment[]",
          "name": "_payments",
          "type": "tuple[]"
        }
      ],
      "name": "performSwapV3AndPayment",
      "outputs": [],
      "stateMutability": "payable",
      "type": "function"
    },
    {
      "inputs": [],
      "name": "renounceOwnership",
      "outputs": [],
      "stateMutability": "nonpayable",
      "type": "function"
    },
    {
      "inputs": [
        {
          "internalType": "uint256",
          "name": "_fee",
          "type": "uint256"
        }
      ],
      "name": "setFee",
      "outputs": [],
      "stateMutability": "nonpayable",
      "type": "function"
    },
    {
      "inputs": [
        {
          "internalType": "address",
          "name": "_feeAddress",
          "type": "address"
        }
      ],
      "name": "setFeeAddress",
      "outputs": [],
      "stateMutability": "nonpayable",
      "type": "function"
    },
    {
      "inputs": [
        {
          "internalType": "address",
          "name": "_swapRouter",
          "type": "address"
        },
        {
          "internalType": "bool",
          "name": "_isSwapV2",
          "type": "bool"
        }
      ],
      "name": "setSwapRouter",
      "outputs": [],
      "stateMutability": "nonpayable",
      "type": "function"
    },
    {
      "inputs": [
        {
          "internalType": "uint256",
          "name": "_version",
          "type": "uint256"
        }
      ],
      "name": "setVersion",
      "outputs": [],
      "stateMutability": "nonpayable",
      "type": "function"
    },
    {
      "inputs": [],
      "name": "swapRouter",
      "outputs": [
        {
          "internalType": "address",
          "name": "",
          "type": "address"
        }
      ],
      "stateMutability": "view",
      "type": "function"
    },
    {
      "inputs": [
        {
          "internalType": "address",
          "name": "newOwner",
          "type": "address"
        }
      ],
      "name": "transferOwnership",
      "outputs": [],
      "stateMutability": "nonpayable",
      "type": "function"
    },
    {
      "inputs": [],
      "name": "version",
      "outputs": [
        {
          "internalType": "uint256",
          "name": "",
          "type": "uint256"
        }
      ],
      "stateMutability": "view",
      "type": "function"
    }
  ],
  "transactionHash": "0xc0a7e2de7b64020aad3867e2d3a1b3a9549939ef49950b99bdd6f8cb2603a906",
  "args": [],
  "numDeployments": 2,
  "solcInputHash": "9e56125bad004c6eb51ab73b106ad9e6",
  "bytecode": "0x608060405234801561001057600080fd5b50612802806100206000396000f3fe60806040526004361061011f5760003560e01c80638da5cb5b116100a0578063db9d033411610064578063db9d0334146102fc578063ddca3f431461030f578063ef6aa26414610325578063f2fde38b14610345578063f65a83cf1461036557600080fd5b80638da5cb5b1461026b5780639272148214610289578063ac43070b1461029c578063c31c9c07146102bc578063d8ca7236146102dc57600080fd5b806354fd4d50116100e757806354fd4d50146101e057806369fe0e2d146101f6578063715018a6146102165780638705fcd41461022b578063887a622a1461024b57600080fd5b80632171dcc9146101245780632703984c14610146578063395ae6a314610175578063408def1e1461018857806341275358146101a8575b600080fd5b34801561013057600080fd5b5061014461013f366004612030565b61038f565b005b34801561015257600080fd5b50610162670de0b6b3a764000081565b6040519081526020015b60405180910390f35b6101446101833660046120c7565b6103d0565b34801561019457600080fd5b506101446101a3366004612162565b610471565b3480156101b457600080fd5b506098546101c8906001600160a01b031681565b6040516001600160a01b03909116815260200161016c565b3480156101ec57600080fd5b50610162609a5481565b34801561020257600080fd5b50610144610211366004612162565b6104a7565b34801561022257600080fd5b506101446104da565b34801561023757600080fd5b5061014461024636600461217b565b610510565b34801561025757600080fd5b5061016261026636600461219d565b610543565b34801561027757600080fd5b506033546001600160a01b03166101c8565b6101446102973660046120c7565b610618565b3480156102a857600080fd5b506101446102b736600461220c565b61069e565b3480156102c857600080fd5b506097546101c8906001600160a01b031681565b3480156102e857600080fd5b506101626102f736600461219d565b61072b565b61014461030a36600461220c565b6107f2565b34801561031b57600080fd5b5061016260995481565b34801561033157600080fd5b5061014461034036600461224e565b61082d565b34801561035157600080fd5b5061014461036036600461217b565b610920565b34801561037157600080fd5b50609b5461037f9060ff1681565b604051901515815260200161016c565b6033546001600160a01b031633146103c25760405162461bcd60e51b81526004016103b99061229b565b60405180910390fd5b6103cc82826109b8565b5050565b600260655414156103f35760405162461bcd60e51b81526004016103b9906122d0565b6002606555609b5460ff16156104445760405162461bcd60e51b8152602060048201526016602482015275506179726f6c6c3a204e6f7420756e6973776170563360501b60448201526064016103b9565b8215610459576104578787878787610a91565b505b6104638282610def565b505060016065555050505050565b6033546001600160a01b0316331461049b5760405162461bcd60e51b81526004016103b99061229b565b6104a4816111a7565b50565b6033546001600160a01b031633146104d15760405162461bcd60e51b81526004016103b99061229b565b6104a481611233565b6033546001600160a01b031633146105045760405162461bcd60e51b81526004016103b99061229b565b61050e60006112ca565b565b6033546001600160a01b0316331461053a5760405162461bcd60e51b81526004016103b99061229b565b6104a48161131c565b6000600260655414156105685760405162461bcd60e51b81526004016103b9906122d0565b6002606555609b5460ff166105b85760405162461bcd60e51b81526020600482015260166024820152752830bcb937b6361d102737ba103ab734b9bbb0b82b1960511b60448201526064016103b9565b816105fc5760405162461bcd60e51b8152602060048201526014602482015273506179726f6c6c3a20456d70747920737761707360601b60448201526064016103b9565b61060986868686866113c0565b60016065559695505050505050565b6002606554141561063b5760405162461bcd60e51b81526004016103b9906122d0565b6002606555609b5460ff1661068b5760405162461bcd60e51b81526020600482015260166024820152752830bcb937b6361d102737ba103ab734b9bbb0b82b1960511b60448201526064016103b9565b82156104595761045787878787876113c0565b600260655414156106c15760405162461bcd60e51b81526004016103b9906122d0565b600260655560005b818110156107215761070f8383838181106106e6576106e6612307565b90506020020160208101906106fb919061217b565b6097546001600160a01b03166000196116fc565b8061071981612333565b9150506106c9565b5050600160655550565b6000600260655414156107505760405162461bcd60e51b81526004016103b9906122d0565b6002606555609b5460ff16156107a15760405162461bcd60e51b8152602060048201526016602482015275506179726f6c6c3a204e6f7420756e6973776170563360501b60448201526064016103b9565b816107e55760405162461bcd60e51b8152602060048201526014602482015273506179726f6c6c3a20456d70747920737761707360601b60448201526064016103b9565b6106098686868686610a91565b600260655414156108155760405162461bcd60e51b81526004016103b9906122d0565b60026065556108248282610def565b50506001606555565b600054610100900460ff166108485760005460ff161561084c565b303b155b6108af5760405162461bcd60e51b815260206004820152602e60248201527f496e697469616c697a61626c653a20636f6e747261637420697320616c72656160448201526d191e481a5b9a5d1a585b1a5e995960921b60648201526084016103b9565b600054610100900460ff161580156108d1576000805461ffff19166101011790555b6108d96117f5565b6108e1611824565b6108eb85856109b8565b6108f48361131c565b6108fd82611233565b61090760016111a7565b8015610919576000805461ff00191690555b5050505050565b6033546001600160a01b0316331461094a5760405162461bcd60e51b81526004016103b99061229b565b6001600160a01b0381166109af5760405162461bcd60e51b815260206004820152602660248201527f4f776e61626c653a206e6577206f776e657220697320746865207a65726f206160448201526564647265737360d01b60648201526084016103b9565b6104a4816112ca565b6001600160a01b038216610a245760405162461bcd60e51b815260206004820152602d60248201527f506179726f6c6c3a2043616e6e6f74207365742061203020616464726573732060448201526c30b99039bbb0b82937baba32b960991b60648201526084016103b9565b609b805460ff1916821515908117909155609780546001600160a01b0319166001600160a01b0385169081179091556040805191825260208201929092527fa93750f85ffdb877ffb446c32e8a1033c18e7746ffdd0b42d7edee2c98e7db3c910160405180910390a15050565b6000610a9f86333088611853565b6000805b83811015610d56576000858583818110610abf57610abf612307565b9050602002810190610ad1919061234e565b610adf90604081019061236e565b905011610b245760405162461bcd60e51b81526020600482015260136024820152720a0c2f2e4ded8d874408adae0e8f240e0c2e8d606b1b60448201526064016103b9565b6097546040805160a081019091526000916001600160a01b03169063f28c04989080898987818110610b5857610b58612307565b9050602002810190610b6a919061234e565b610b7890604081019061236e565b8080601f01602080910402602001604051908101604052809392919081815260200183838082843760009201919091525050509082525033602082015263ffffffff8b166040820152606001898987818110610bd657610bd6612307565b9050602002810190610be8919061234e565b358152602001898987818110610c0057610c00612307565b9050602002810190610c12919061234e565b602001358152506040518263ffffffff1660e01b8152600401610c3591906123e1565b602060405180830381600087803b158015610c4f57600080fd5b505af1158015610c63573d6000803e3d6000fd5b505050506040513d601f19601f82011682018060405250810190610c879190612450565b9050610c938184612469565b92507f2d8d9d7f49599a20c9e475f932138bdf56ab8ddbcd627a642030d3d788012b5689610d2b6000898987818110610cce57610cce612307565b9050602002810190610ce0919061234e565b610cee90604081019061236e565b8080601f01602080910402602001604051908101604052809392919081815260200183838082843760009201919091525092939250506119619050565b83604051610d3b93929190612481565b60405180910390a15080610d4e81612333565b915050610aa3565b506040516370a0823160e01b81523060048201526000906001600160a01b038916906370a082319060240160206040518083038186803b158015610d9957600080fd5b505afa158015610dad573d6000803e3d6000fd5b505050506040513d601f19601f82011682018060405250810190610dd19190612450565b90508015610de457610de4883383611a15565b509695505050505050565b6000805b828110156110e3576000848483818110610e0f57610e0f612307565b9050602002810190610e21919061234e565b610e2f9060408101906124a5565b905011610e7e5760405162461bcd60e51b815260206004820152601f60248201527f506179726f6c6c3a204e6f20616d6f756e747320746f207472616e736665720060448201526064016103b9565b838382818110610e9057610e90612307565b9050602002810190610ea2919061234e565b610eb09060208101906124a5565b9050848483818110610ec457610ec4612307565b9050602002810190610ed6919061234e565b610ee49060408101906124a5565b905014610f415760405162461bcd60e51b815260206004820152602560248201527f506179726f6c6c3a20417272617973206d75737420686176652073616d65206c6044820152640cadccee8d60db1b60648201526084016103b9565b6000848483818110610f5557610f55612307565b9050602002810190610f67919061234e565b610f7590602081019061217b565b6001600160a01b03161461102657611021848483818110610f9857610f98612307565b9050602002810190610faa919061234e565b610fb890602081019061217b565b858584818110610fca57610fca612307565b9050602002810190610fdc919061234e565b610fea9060208101906124a5565b878786818110610ffc57610ffc612307565b905060200281019061100e919061234e565b61101c9060408101906124a5565b611b0e565b6110d1565b6110c484848381811061103b5761103b612307565b905060200281019061104d919061234e565b61105b90602081019061217b565b85858481811061106d5761106d612307565b905060200281019061107f919061234e565b61108d9060208101906124a5565b87878681811061109f5761109f612307565b90506020028101906110b1919061234e565b6110bf9060408101906124a5565b611cc1565b6110ce9083612469565b91505b806110db81612333565b915050610df3565b5060006110f082346124ef565b905060018111156111a157604051600090339083908381818185875af1925050503d806000811461113d576040519150601f19603f3d011682016040523d82523d6000602084013e611142565b606091505b50509050806109195760405162461bcd60e51b815260206004820152602560248201527f506179726f6c6c3a20455448206c6566744f766572207472616e736665722066604482015264185a5b195960da1b60648201526084016103b9565b50505050565b600081116111f75760405162461bcd60e51b815260206004820152601b60248201527f506179726f6c6c3a2056657273696f6e2063616e27742062652030000000000060448201526064016103b9565b609a8190556040518181527fd559f56ba9b2c69da3765a6d0208c7f7f352ade55a3be7fb9589ba50aa4ce5f3906020015b60405180910390a150565b666a94d74f43000081106112955760405162461bcd60e51b815260206004820152602360248201527f506179726f6c6c3a204665652073686f756c64206265206c657373207468616e60448201526220332560e81b60648201526084016103b9565b60998190556040518181527f6bbc57480a46553fa4d156ce702beef5f3ad66303b0ed1a5d4cb44966c6584c390602001611228565b603380546001600160a01b038381166001600160a01b0319831681179093556040519116919082907f8be0079c531659141344cd1fd0a4f28419497f9722a3daafe3b4186f6b6457e090600090a35050565b6001600160a01b0381166113725760405162461bcd60e51b815260206004820152601f60248201527f506179726f6c6c3a2046656520616464726573732063616e277420626520300060448201526064016103b9565b609880546001600160a01b0319166001600160a01b0383169081179091556040519081527fd1e93c69f2847f79bfa4d71704aaa84a581729b4b1706d922ee42ba1848a45c990602001611228565b60006113ce86333088611853565b6000805b83811015610d565760008585838181106113ee576113ee612307565b9050602002810190611400919061234e565b61140e9060408101906124a5565b9050116114535760405162461bcd60e51b81526020600482015260136024820152720a0c2f2e4ded8d874408adae0e8f240e0c2e8d606b1b60448201526064016103b9565b876001600160a01b031685858381811061146f5761146f612307565b9050602002810190611481919061234e565b61148f9060408101906124a5565b60008181106114a0576114a0612307565b90506020020160208101906114b5919061217b565b6001600160a01b03161461150b5760405162461bcd60e51b815260206004820152601e60248201527f506179726f6c6c3a2053776170206e6f7420746f6b656e206f726967696e000060448201526064016103b9565b6097546000906001600160a01b0316638803dbee87878581811061153157611531612307565b9050602002810190611543919061234e565b3588888681811061155657611556612307565b9050602002810190611568919061234e565b6020013589898781811061157e5761157e612307565b9050602002810190611590919061234e565b61159e9060408101906124a5565b338d6040518763ffffffff1660e01b81526004016115c19695949392919061254d565b600060405180830381600087803b1580156115db57600080fd5b505af11580156115ef573d6000803e3d6000fd5b505050506040513d6000823e601f3d908101601f1916820160405261161791908101906125ac565b60008151811061162957611629612307565b60200260200101519050808361163f9190612469565b925036600087878581811061165657611656612307565b9050602002810190611668919061234e565b6116769060408101906124a5565b90925090507f2d8d9d7f49599a20c9e475f932138bdf56ab8ddbcd627a642030d3d788012b568b83836116aa6001826124ef565b8181106116b9576116b9612307565b90506020020160208101906116ce919061217b565b856040516116de93929190612481565b60405180910390a150505080806116f490612333565b9150506113d2565b604080516001600160a01b038481166024830152604480830185905283518084039091018152606490920183526020820180516001600160e01b031663095ea7b360e01b1790529151600092839290871691611758919061266a565b6000604051808303816000865af19150503d8060008114611795576040519150601f19603f3d011682016040523d82523d6000602084013e61179a565b606091505b50915091508180156117c45750805115806117c45750808060200190518101906117c4919061267c565b6109195760405162461bcd60e51b8152602060048201526002602482015261534160f01b60448201526064016103b9565b600054610100900460ff1661181c5760405162461bcd60e51b81526004016103b990612699565b61050e611fa8565b600054610100900460ff1661184b5760405162461bcd60e51b81526004016103b990612699565b61050e611fd6565b600080856001600160a01b03166323b872dd60e01b86868660405160240161187d93929190612481565b60408051601f198184030181529181526020820180516001600160e01b03166001600160e01b03199094169390931790925290516118bb919061266a565b6000604051808303816000865af19150503d80600081146118f8576040519150601f19603f3d011682016040523d82523d6000602084013e6118fd565b606091505b5091509150818015611927575080511580611927575080806020019051810190611927919061267c565b6119595760405162461bcd60e51b815260206004820152600360248201526229aa2360e91b60448201526064016103b9565b505050505050565b60008161196f816014612469565b10156119b25760405162461bcd60e51b8152602060048201526012602482015271746f416464726573735f6f766572666c6f7760701b60448201526064016103b9565b6119bd826014612469565b83511015611a055760405162461bcd60e51b8152602060048201526015602482015274746f416464726573735f6f75744f66426f756e647360581b60448201526064016103b9565b500160200151600160601b900490565b604080516001600160a01b038481166024830152604480830185905283518084039091018152606490920183526020820180516001600160e01b031663a9059cbb60e01b1790529151600092839290871691611a71919061266a565b6000604051808303816000865af19150503d8060008114611aae576040519150601f19603f3d011682016040523d82523d6000602084013e611ab3565b606091505b5091509150818015611add575080511580611add575080806020019051810190611add919061267c565b6109195760405162461bcd60e51b815260206004820152600260248201526114d560f21b60448201526064016103b9565b60008060005b85811015611bee576000878783818110611b3057611b30612307565b9050602002016020810190611b45919061217b565b6001600160a01b03161415611b6c5760405162461bcd60e51b81526004016103b9906126e4565b848482818110611b7e57611b7e612307565b9050602002013582611b909190612469565b9150611bdc8833898985818110611ba957611ba9612307565b9050602002016020810190611bbe919061217b565b888886818110611bd057611bd0612307565b90506020020135611853565b80611be681612333565b915050611b14565b507f61296616dea919da05ed0d5608a730a6f4f39d0703b9d8819da47e233c9a92d98787878787604051611c26959493929190612727565b60405180910390a1670de0b6b3a764000060995482611c45919061278b565b611c4f91906127aa565b91508115611c7157609854611c7190889033906001600160a01b031685611853565b6098546040517f945458c62aa39df7a4d87d6c4dbaaab7de5d870c9a1fe40e2b7571d84f158a8d91611cb0918a916001600160a01b0316908690612481565b60405180910390a150505050505050565b60008080805b86811015611e39576000888883818110611ce357611ce3612307565b9050602002016020810190611cf8919061217b565b6001600160a01b03161415611d1f5760405162461bcd60e51b81526004016103b9906126e4565b858582818110611d3157611d31612307565b9050602002013582611d439190612469565b91506000888883818110611d5957611d59612307565b9050602002016020810190611d6e919061217b565b6001600160a01b0316878784818110611d8957611d89612307565b9050602002013560405160006040518083038185875af1925050503d8060008114611dd0576040519150601f19603f3d011682016040523d82523d6000602084013e611dd5565b606091505b5050905080611e265760405162461bcd60e51b815260206004820152601c60248201527f506179726f6c6c3a20455448207472616e73666572206661696c65640000000060448201526064016103b9565b5080611e3181612333565b915050611cc7565b507f61296616dea919da05ed0d5608a730a6f4f39d0703b9d8819da47e233c9a92d98888888888604051611e71959493929190612727565b60405180910390a1670de0b6b3a764000060995482611e90919061278b565b611e9a91906127aa565b91508115611f5657611eac8282612469565b6098546040519192506000916001600160a01b039091169084908381818185875af1925050503d8060008114611efe576040519150601f19603f3d011682016040523d82523d6000602084013e611f03565b606091505b5050905080611f545760405162461bcd60e51b815260206004820181905260248201527f506179726f6c6c3a2045544820666565207472616e73666572206661696c656460448201526064016103b9565b505b6098546040517f945458c62aa39df7a4d87d6c4dbaaab7de5d870c9a1fe40e2b7571d84f158a8d91611f95918b916001600160a01b0316908690612481565b60405180910390a1979650505050505050565b600054610100900460ff16611fcf5760405162461bcd60e51b81526004016103b990612699565b6001606555565b600054610100900460ff16611ffd5760405162461bcd60e51b81526004016103b990612699565b61050e336112ca565b80356001600160a01b038116811461201d57600080fd5b919050565b80151581146104a457600080fd5b6000806040838503121561204357600080fd5b61204c83612006565b9150602083013561205c81612022565b809150509250929050565b803563ffffffff8116811461201d57600080fd5b60008083601f84011261208d57600080fd5b50813567ffffffffffffffff8111156120a557600080fd5b6020830191508360208260051b85010111156120c057600080fd5b9250929050565b600080600080600080600060a0888a0312156120e257600080fd5b6120eb88612006565b96506020880135955061210060408901612067565b9450606088013567ffffffffffffffff8082111561211d57600080fd5b6121298b838c0161207b565b909650945060808a013591508082111561214257600080fd5b5061214f8a828b0161207b565b989b979a50959850939692959293505050565b60006020828403121561217457600080fd5b5035919050565b60006020828403121561218d57600080fd5b61219682612006565b9392505050565b6000806000806000608086880312156121b557600080fd5b6121be86612006565b9450602086013593506121d360408701612067565b9250606086013567ffffffffffffffff8111156121ef57600080fd5b6121fb8882890161207b565b969995985093965092949392505050565b6000806020838503121561221f57600080fd5b823567ffffffffffffffff81111561223657600080fd5b6122428582860161207b565b90969095509350505050565b6000806000806080858703121561226457600080fd5b61226d85612006565b9350602085013561227d81612022565b925061228b60408601612006565b9396929550929360600135925050565b6020808252818101527f4f776e61626c653a2063616c6c6572206973206e6f7420746865206f776e6572604082015260600190565b6020808252601f908201527f5265656e7472616e637947756172643a207265656e7472616e742063616c6c00604082015260600190565b634e487b7160e01b600052603260045260246000fd5b634e487b7160e01b600052601160045260246000fd5b60006000198214156123475761234761231d565b5060010190565b60008235605e1983360301811261236457600080fd5b9190910192915050565b6000808335601e1984360301811261238557600080fd5b83018035915067ffffffffffffffff8211156123a057600080fd5b6020019150368190038213156120c057600080fd5b60005b838110156123d05781810151838201526020016123b8565b838111156111a15750506000910152565b602081526000825160a0602084015280518060c08501526124098160e08601602085016123b5565b60018060a01b0360208601511660408501526040850151606085015260608501516080850152608085015160a085015260e0601f19601f8301168501019250505092915050565b60006020828403121561246257600080fd5b5051919050565b6000821982111561247c5761247c61231d565b500190565b6001600160a01b039384168152919092166020820152604081019190915260600190565b6000808335601e198436030181126124bc57600080fd5b83018035915067ffffffffffffffff8211156124d757600080fd5b6020019150600581901b36038213156120c057600080fd5b6000828210156125015761250161231d565b500390565b8183526000602080850194508260005b85811015612542576001600160a01b0361252f83612006565b1687529582019590820190600101612516565b509495945050505050565b86815285602082015260a06040820152600061256d60a083018688612506565b6001600160a01b039490941660608301525063ffffffff91909116608090910152949350505050565b634e487b7160e01b600052604160045260246000fd5b600060208083850312156125bf57600080fd5b825167ffffffffffffffff808211156125d757600080fd5b818501915085601f8301126125eb57600080fd5b8151818111156125fd576125fd612596565b8060051b604051601f19603f8301168101818110858211171561262257612622612596565b60405291825284820192508381018501918883111561264057600080fd5b938501935b8285101561265e57845184529385019392850192612645565b98975050505050505050565b600082516123648184602087016123b5565b60006020828403121561268e57600080fd5b815161219681612022565b6020808252602b908201527f496e697469616c697a61626c653a20636f6e7472616374206973206e6f74206960408201526a6e697469616c697a696e6760a81b606082015260800190565b60208082526023908201527f506179726f6c6c3a2043616e6e6f742073656e6420746f20612030206164647260408201526265737360e81b606082015260800190565b6001600160a01b038616815260606020820181905260009061274c9083018688612506565b82810360408401528381526001600160fb1b0384111561276b57600080fd5b8360051b8086602084013760009101602001908152979650505050505050565b60008160001904831182151516156127a5576127a561231d565b500290565b6000826127c757634e487b7160e01b600052601260045260246000fd5b50049056fea2646970667358221220ffb8643a6383275f1b1b05951cfb5bbe8067f8d5a723e542e1e556398d5c4e9364736f6c63430008090033",
  "devdoc": {
    "author": "Think and Dev Team",
    "kind": "dev",
    "methods": {
      "approveTokens(address[])": {
        "params": {
          "_erc20TokenOrigin": "ERC20 token address to approve."
        }
      },
      "initialize(address,bool,address,uint256)": {
        "params": {
          "_isSwapV2": "Boolean to specify the version of the router; true means v2, false means v3.",
          "_swapRouter": "Router address to execute swaps."
        }
      },
      "owner()": {
        "details": "Returns the address of the current owner."
      },
      "performMultiPayment((address,address[],uint256[])[])": {
        "params": {
          "_payments": "The array of the Payment data."
        }
      },
      "performSwapV2(address,uint256,uint32,(uint256,uint256,address[])[])": {
        "params": {
          "_deadline": "The unix timestamp after a swap will fail.",
          "_erc20TokenOrigin": "ERC20 token address to swap for another.",
          "_swaps": "The array of the Swaps data.",
          "_totalAmountToSwap": "Total amount of erc20TokenOrigin to spend in swaps."
        }
      },
      "performSwapV2AndPayment(address,uint256,uint32,(uint256,uint256,address[])[],(address,address[],uint256[])[])": {
        "params": {
          "_deadline": "The unix timestamp after a swap will fail.",
          "_erc20TokenOrigin": "ERC20 token address to swap for another.",
          "_payments": "The array of the Payment data.",
          "_swaps": "The array of the Swaps data.",
          "_totalAmountToSwap": "Total amount of erc20TokenOrigin to spend in swaps."
        }
      },
      "performSwapV3(address,uint256,uint32,(uint256,uint256,bytes)[])": {
        "params": {
          "_deadline": "The unix timestamp after a swap will fail.",
          "_erc20TokenOrigin": "ERC20 token address to swap for another.",
          "_swaps": "The array of the Swaps data.",
          "_totalAmountToSwap": "Total amount of erc20TokenOrigin to spend in swaps."
        }
      },
      "performSwapV3AndPayment(address,uint256,uint32,(uint256,uint256,bytes)[],(address,address[],uint256[])[])": {
        "params": {
          "_deadline": "The unix timestamp after a swap will fail.",
          "_erc20TokenOrigin": "ERC20 token address to swap for another.",
          "_payments": "The array of the Payment data.",
          "_swaps": "The array of the Swaps data.",
          "_totalAmountToSwap": "Total amount of erc20TokenOrigin to spend in swaps."
        }
      },
      "renounceOwnership()": {
        "details": "Leaves the contract without owner. It will not be possible to call `onlyOwner` functions anymore. Can only be called by the current owner. NOTE: Renouncing ownership will leave the contract without an owner, thereby removing any functionality that is only available to the owner."
      },
      "setFee(uint256)": {
        "params": {
          "_fee": "Percentage that will be charged."
        }
      },
      "setFeeAddress(address)": {
        "params": {
          "_feeAddress": "Address that will receive the fees."
        }
      },
      "setSwapRouter(address,bool)": {
        "params": {
          "_isSwapV2": "Boolean to specify the version of the router; true means v2, false means v3.",
          "_swapRouter": "Router address to execute swaps."
        }
      },
      "transferOwnership(address)": {
        "details": "Transfers ownership of the contract to a new account (`newOwner`). Can only be called by the current owner."
      }
    },
    "title": "Think and Dev Paymentbox",
    "version": 1
  },
  "userdoc": {
    "kind": "user",
    "methods": {
      "approveTokens(address[])": {
        "notice": "Approves the following token to be used on swapRouter"
      },
      "isSwapV2()": {
        "notice": "Returns if the contract is working with a v2 Uniswap protocol; true means v2, false means v3."
      },
      "performMultiPayment((address,address[],uint256[])[])": {
        "notice": "Perform the payments to the given addresses and amounts, public method."
      },
      "performSwapV2(address,uint256,uint32,(uint256,uint256,address[])[])": {
        "notice": "Perform the swap with Uniswap V2 to the given token addresses and amounts."
      },
      "performSwapV2AndPayment(address,uint256,uint32,(uint256,uint256,address[])[],(address,address[],uint256[])[])": {
        "notice": "Perform the swap with Uniswap V2 and the transfer to the given addresses using Uniswap V2 interface.Currently the function only works with ERC20 tokens."
      },
      "performSwapV3(address,uint256,uint32,(uint256,uint256,bytes)[])": {
        "notice": "Perform the swap with Uniswap V3 to the given token addresses and amounts."
      },
      "performSwapV3AndPayment(address,uint256,uint32,(uint256,uint256,bytes)[],(address,address[],uint256[])[])": {
        "notice": "Perform the swap with Uniswap V3 and the transfer to the given addresses.Currently the function only works with ERC20 tokens."
      },
      "setFee(uint256)": {
        "notice": "Set the fee that will be charged, fees are divided by mantissa"
      },
      "setFeeAddress(address)": {
        "notice": "Set the address that will receive the fees."
      },
      "setSwapRouter(address,bool)": {
        "notice": "Set the SwapRouter and the version to be used."
      },
      "swapRouter()": {
        "notice": "Returns the address of the Uniswap protocol router, it could be v2 or v3."
      }
    },
    "notice": "Swap and transfer multiple ERC20 pairs to multiple accounts in a single transaction. Use any router address of any DEX that uses Uniswap protocol v2 or v3 to make swaps.",
    "version": 1
  },
  "storageLayout": {
    "storage": [
      {
        "astId": 130,
        "contract": "contracts/Payroll.sol:Payroll",
        "label": "_initialized",
        "offset": 0,
        "slot": "0",
        "type": "t_bool"
      },
      {
        "astId": 133,
        "contract": "contracts/Payroll.sol:Payroll",
        "label": "_initializing",
        "offset": 1,
        "slot": "0",
        "type": "t_bool"
      },
      {
        "astId": 540,
        "contract": "contracts/Payroll.sol:Payroll",
        "label": "__gap",
        "offset": 0,
        "slot": "1",
        "type": "t_array(t_uint256)50_storage"
      },
      {
        "astId": 10,
        "contract": "contracts/Payroll.sol:Payroll",
        "label": "_owner",
        "offset": 0,
        "slot": "51",
        "type": "t_address"
      },
      {
        "astId": 122,
        "contract": "contracts/Payroll.sol:Payroll",
        "label": "__gap",
        "offset": 0,
        "slot": "52",
        "type": "t_array(t_uint256)49_storage"
      },
      {
        "astId": 211,
        "contract": "contracts/Payroll.sol:Payroll",
        "label": "_status",
        "offset": 0,
        "slot": "101",
        "type": "t_uint256"
      },
      {
        "astId": 255,
        "contract": "contracts/Payroll.sol:Payroll",
        "label": "__gap",
        "offset": 0,
        "slot": "102",
        "type": "t_array(t_uint256)49_storage"
      },
      {
        "astId": 3115,
        "contract": "contracts/Payroll.sol:Payroll",
        "label": "swapRouter",
        "offset": 0,
        "slot": "151",
        "type": "t_address"
      },
      {
        "astId": 3117,
        "contract": "contracts/Payroll.sol:Payroll",
        "label": "feeAddress",
        "offset": 0,
        "slot": "152",
        "type": "t_address"
      },
      {
        "astId": 3119,
        "contract": "contracts/Payroll.sol:Payroll",
        "label": "fee",
        "offset": 0,
        "slot": "153",
        "type": "t_uint256"
      },
      {
        "astId": 3124,
        "contract": "contracts/Payroll.sol:Payroll",
        "label": "version",
        "offset": 0,
        "slot": "154",
        "type": "t_uint256"
      },
      {
        "astId": 3127,
        "contract": "contracts/Payroll.sol:Payroll",
        "label": "isSwapV2",
        "offset": 0,
        "slot": "155",
        "type": "t_bool"
      }
    ],
    "types": {
      "t_address": {
        "encoding": "inplace",
        "label": "address",
        "numberOfBytes": "20"
      },
      "t_array(t_uint256)49_storage": {
        "base": "t_uint256",
        "encoding": "inplace",
        "label": "uint256[49]",
        "numberOfBytes": "1568"
      },
      "t_array(t_uint256)50_storage": {
        "base": "t_uint256",
        "encoding": "inplace",
        "label": "uint256[50]",
        "numberOfBytes": "1600"
      },
      "t_bool": {
        "encoding": "inplace",
        "label": "bool",
        "numberOfBytes": "1"
      },
      "t_uint256": {
        "encoding": "inplace",
        "label": "uint256",
        "numberOfBytes": "32"
      }
    }
  }
}