{
  "address": "0xE11C4E9B79cA717A295e93919835338F308763eB",
  "abi": [
    {
      "inputs": [
        {
          "internalType": "address",
          "name": "_token",
          "type": "address"
        },
        {
          "internalType": "uint256",
          "name": "_amountToGive",
          "type": "uint256"
        }
      ],
      "name": "addFaucet",
      "outputs": [],
      "stateMutability": "nonpayable",
      "type": "function"
    },
    {
      "inputs": [
        {
          "internalType": "address",
          "name": "",
          "type": "address"
        }
      ],
      "name": "faucets",
      "outputs": [
        {
          "internalType": "address",
          "name": "owner",
          "type": "address"
        },
        {
          "internalType": "uint256",
          "name": "amountToGive",
          "type": "uint256"
        }
      ],
      "stateMutability": "view",
      "type": "function"
    },
    {
      "inputs": [
        {
          "internalType": "address",
          "name": "_token",
          "type": "address"
        }
      ],
      "name": "removeFaucet",
      "outputs": [],
      "stateMutability": "nonpayable",
      "type": "function"
    },
    {
      "inputs": [
        {
          "internalType": "address",
          "name": "_token",
          "type": "address"
        }
      ],
      "name": "requestFunds",
      "outputs": [],
      "stateMutability": "nonpayable",
      "type": "function"
    },
    {
      "inputs": [
        {
          "internalType": "address",
          "name": "_token",
          "type": "address"
        },
        {
          "internalType": "uint256",
          "name": "_amountToGive",
          "type": "uint256"
        }
      ],
      "name": "updateFaucet",
      "outputs": [],
      "stateMutability": "nonpayable",
      "type": "function"
    }
  ],
  "transactionHash": "0x1a1cc32f93fe609651b4bd9ee183540cbb0f29bee08a6a79dfe7ede4eaf32981",
  "args": [],
  "numDeployments": 1,
  "solcInputHash": "10c9d3225547c452a7fa2baf740aea06",
  "bytecode": "0x608060405234801561001057600080fd5b50610746806100206000396000f3fe608060405234801561001057600080fd5b50600436106100575760003560e01c806307229f141461005c578063435d7d8714610071578063544c7cf9146100c757806390f534ce146100da578063bd3f756e146100ed575b600080fd5b61006f61006a3660046105fd565b610100565b005b6100a461007f3660046105fd565b600060208190529081526040902080546001909101546001600160a01b039091169082565b604080516001600160a01b03909316835260208301919091520160405180910390f35b61006f6100d53660046105fd565b6101f8565b61006f6100e836600461061f565b6103a1565b61006f6100fb36600461061f565b610486565b6001600160a01b0381811660009081526020819052604090205482911633146101445760405162461bcd60e51b815260040161013b90610649565b60405180910390fd5b6040516370a0823160e01b81523060048201526000906001600160a01b038416906370a082319060240160206040518083038186803b15801561018657600080fd5b505afa15801561019a573d6000803e3d6000fd5b505050506040513d601f19601f820116820180604052508101906101be919061069a565b90506101cb8333836104e1565b50506001600160a01b0316600090815260208190526040812080546001600160a01b031916815560010155565b6001600160a01b0381166000908152602081905260409020600101546102705760405162461bcd60e51b815260206004820152602760248201527f4d756c74694661756365743a20546869732066617563657420646f6573206e6f6044820152661d08195e1a5cdd60ca1b606482015260840161013b565b6040516370a0823160e01b81523060048201526000906001600160a01b038316906370a082319060240160206040518083038186803b1580156102b257600080fd5b505afa1580156102c6573d6000803e3d6000fd5b505050506040513d601f19601f820116820180604052508101906102ea919061069a565b6001600160a01b0383166000908152602081905260409020600101549091508110156103745760405162461bcd60e51b815260206004820152603360248201527f4d756c74694661756365743a20546869732066617563657420646f6573206e6f60448201527274206861766520656e6f7567682066756e647360681b606482015260840161013b565b6001600160a01b03821660009081526020819052604090206001015461039d90839033906104e1565b5050565b6001600160a01b03828116600090815260208190526040902054161561043b5760405162461bcd60e51b815260206004820152604360248201527f4d756c74694661756365743a20546869732066617563657420616c726561647960448201527f2065786973742c20796f752063616e207374696c6c206465706f7369742066756064820152626e647360e81b608482015260a40161013b565b60408051808201825233815260208082019384526001600160a01b0394851660009081529081905291909120905181546001600160a01b031916931692909217825551600190910155565b6001600160a01b0382811660009081526020819052604090205483911633146104c15760405162461bcd60e51b815260040161013b90610649565b506001600160a01b03909116600090815260208190526040902060010155565b604080516001600160a01b038481166024830152604480830185905283518084039091018152606490920183526020820180516001600160e01b031663a9059cbb60e01b179052915160009283929087169161053d91906106b3565b6000604051808303816000865af19150503d806000811461057a576040519150601f19603f3d011682016040523d82523d6000602084013e61057f565b606091505b50915091508180156105a95750805115806105a95750808060200190518101906105a991906106ee565b6105da5760405162461bcd60e51b815260206004820152600260248201526114d560f21b604482015260640161013b565b5050505050565b80356001600160a01b03811681146105f857600080fd5b919050565b60006020828403121561060f57600080fd5b610618826105e1565b9392505050565b6000806040838503121561063257600080fd5b61063b836105e1565b946020939093013593505050565b60208082526031908201527f4d756c74694661756365743a20596f7520617265206e6f7420746865206f776e604082015270195c881bd9881d1a1a5cc819985d58d95d607a1b606082015260800190565b6000602082840312156106ac57600080fd5b5051919050565b6000825160005b818110156106d457602081860181015185830152016106ba565b818111156106e3576000828501525b509190910192915050565b60006020828403121561070057600080fd5b8151801515811461061857600080fdfea2646970667358221220799492afe17ec1f9a31a46af45185641a81e149b302a10ba7f3023b975ca10e364736f6c63430008090033",
  "devdoc": {
    "author": "Think and Dev Team",
    "kind": "dev",
    "methods": {
      "addFaucet(address,uint256)": {
        "params": {
          "_amountToGive": "amount that the faucet will give.",
          "_token": "ERC20 token address."
        }
      },
      "removeFaucet(address)": {
        "params": {
          "_token": "ERC20 token address."
        }
      },
      "requestFunds(address)": {
        "params": {
          "_token": "ERC20 token address."
        }
      },
      "updateFaucet(address,uint256)": {
        "params": {
          "_amountToGive": "new amount that the faucet will give.",
          "_token": "ERC20 token address."
        }
      }
    },
    "title": "Think and Dev Faucet",
    "version": 1
  },
  "userdoc": {
    "kind": "user",
    "methods": {
      "addFaucet(address,uint256)": {
        "notice": "Add a new faucet to the faucets mapping."
      },
      "removeFaucet(address)": {
        "notice": "Remove a faucet from the faucets mapping. Only the faucet owner can perform this action."
      },
      "requestFunds(address)": {
        "notice": "Gives to the msg.sender the amount of funds specified in amountToGive"
      },
      "updateFaucet(address,uint256)": {
        "notice": "Update the amountToGive to a faucet. Only the faucet owner can perform this action."
      }
    },
    "notice": "Multiple ERC20 faucet",
    "version": 1
  },
  "storageLayout": {
    "storage": [
      {
        "astId": 3108,
        "contract": "contracts/Faucet.sol:MultiFaucet",
        "label": "faucets",
        "offset": 0,
        "slot": "0",
        "type": "t_mapping(t_address,t_struct(Faucet)3103_storage)"
      }
    ],
    "types": {
      "t_address": {
        "encoding": "inplace",
        "label": "address",
        "numberOfBytes": "20"
      },
      "t_mapping(t_address,t_struct(Faucet)3103_storage)": {
        "encoding": "mapping",
        "key": "t_address",
        "label": "mapping(address => struct MultiFaucet.Faucet)",
        "numberOfBytes": "32",
        "value": "t_struct(Faucet)3103_storage"
      },
      "t_struct(Faucet)3103_storage": {
        "encoding": "inplace",
        "label": "struct MultiFaucet.Faucet",
        "members": [
          {
            "astId": 3100,
            "contract": "contracts/Faucet.sol:MultiFaucet",
            "label": "owner",
            "offset": 0,
            "slot": "0",
            "type": "t_address"
          },
          {
            "astId": 3102,
            "contract": "contracts/Faucet.sol:MultiFaucet",
            "label": "amountToGive",
            "offset": 0,
            "slot": "1",
            "type": "t_uint256"
          }
        ],
        "numberOfBytes": "64"
      },
      "t_uint256": {
        "encoding": "inplace",
        "label": "uint256",
        "numberOfBytes": "32"
      }
    }
  }
}