{
  "address": "0x41dCDf0a0Ab8BdD2FF653408D27693D319C55C4F",
  "abi": [
    {
      "anonymous": false,
      "inputs": [
        {
          "indexed": false,
          "internalType": "address[]",
          "name": "_receivers",
          "type": "address[]"
        },
        {
          "indexed": false,
          "internalType": "uint256[]",
          "name": "_amountsToTransfer",
          "type": "uint256[]"
        }
      ],
      "name": "BatchPaymentFinished",
      "type": "event"
    },
    {
      "anonymous": false,
      "inputs": [
        {
          "indexed": false,
          "internalType": "uint8",
          "name": "version",
          "type": "uint8"
        }
      ],
      "name": "Initialized",
      "type": "event"
    },
    {
      "anonymous": false,
      "inputs": [
        {
          "indexed": true,
          "internalType": "address",
          "name": "previousOwner",
          "type": "address"
        },
        {
          "indexed": true,
          "internalType": "address",
          "name": "newOwner",
          "type": "address"
        }
      ],
      "name": "OwnershipTransferred",
      "type": "event"
    },
    {
      "anonymous": false,
      "inputs": [
        {
          "indexed": false,
          "internalType": "address",
          "name": "_tokenIn",
          "type": "address"
        },
        {
          "indexed": false,
          "internalType": "address",
          "name": "_tokenOut",
          "type": "address"
        },
        {
          "indexed": false,
          "internalType": "uint256",
          "name": "_amountReceived",
          "type": "uint256"
        }
      ],
      "name": "SwapFinished",
      "type": "event"
    },
    {
      "inputs": [
        {
          "internalType": "address",
          "name": "_swapRouter",
          "type": "address"
        },
        {
          "internalType": "bool",
          "name": "_isSwapV2",
          "type": "bool"
        }
      ],
      "name": "initialize",
      "outputs": [],
      "stateMutability": "nonpayable",
      "type": "function"
    },
    {
      "inputs": [],
      "name": "isSwapV2",
      "outputs": [
        {
          "internalType": "bool",
          "name": "",
          "type": "bool"
        }
      ],
      "stateMutability": "view",
      "type": "function"
    },
    {
      "inputs": [],
      "name": "owner",
      "outputs": [
        {
          "internalType": "address",
          "name": "",
          "type": "address"
        }
      ],
      "stateMutability": "view",
      "type": "function"
    },
    {
      "inputs": [
        {
          "internalType": "address",
          "name": "_erc20TokenOrigin",
          "type": "address"
        },
        {
          "internalType": "uint256",
          "name": "_totalAmountToSpend",
          "type": "uint256"
        },
        {
          "internalType": "uint32",
          "name": "_deadline",
          "type": "uint32"
        },
        {
          "components": [
            {
              "internalType": "address",
              "name": "token",
              "type": "address"
            },
            {
              "internalType": "uint256",
              "name": "amountOut",
              "type": "uint256"
            },
            {
              "internalType": "uint256",
              "name": "amountInMax",
              "type": "uint256"
            },
            {
              "internalType": "uint24",
              "name": "poolFee",
              "type": "uint24"
            }
          ],
          "internalType": "struct Payroll.Swap[]",
          "name": "_swaps",
          "type": "tuple[]"
        },
        {
          "components": [
            {
              "internalType": "address",
              "name": "token",
              "type": "address"
            },
            {
              "internalType": "uint256",
              "name": "totalAmountToPay",
              "type": "uint256"
            },
            {
              "internalType": "address[]",
              "name": "receivers",
              "type": "address[]"
            },
            {
              "internalType": "uint256[]",
              "name": "amountsToTransfer",
              "type": "uint256[]"
            }
          ],
          "internalType": "struct Payroll.Payment[]",
          "name": "_payments",
          "type": "tuple[]"
        }
      ],
      "name": "performSwapAndPayment",
      "outputs": [],
      "stateMutability": "nonpayable",
      "type": "function"
    },
    {
      "inputs": [],
      "name": "renounceOwnership",
      "outputs": [],
      "stateMutability": "nonpayable",
      "type": "function"
    },
    {
      "inputs": [
        {
          "internalType": "address",
          "name": "_swapRouter",
          "type": "address"
        },
        {
          "internalType": "bool",
          "name": "_isSwapV2",
          "type": "bool"
        }
      ],
      "name": "setSwapRouter",
      "outputs": [],
      "stateMutability": "nonpayable",
      "type": "function"
    },
    {
      "inputs": [],
      "name": "swapRouter",
      "outputs": [
        {
          "internalType": "contract IUniswapBasic",
          "name": "",
          "type": "address"
        }
      ],
      "stateMutability": "view",
      "type": "function"
    },
    {
      "inputs": [
        {
          "internalType": "address",
          "name": "newOwner",
          "type": "address"
        }
      ],
      "name": "transferOwnership",
      "outputs": [],
      "stateMutability": "nonpayable",
      "type": "function"
    }
  ],
  "transactionHash": "0xbf15ec95d023df2851d557831e2b5266d582fd2810ca3c9a7437eb4901118a17",
  "args": [],
  "numDeployments": 1,
  "solcInputHash": "3ce594d5d30d3039d29e897c90e069c2",
  "bytecode": "0x608060405234801561001057600080fd5b5061001a3361001f565b61006f565b600080546001600160a01b038381166001600160a01b0319831681178455604051919092169283917f8be0079c531659141344cd1fd0a4f28419497f9722a3daafe3b4186f6b6457e09190a35050565b6115b38061007e6000396000f3fe608060405234801561001057600080fd5b50600436106100885760003560e01c80638da5cb5b1161005b5780638da5cb5b146100d0578063c31c9c07146100fa578063f2fde38b1461010d578063f65a83cf1461012057600080fd5b80632171dcc91461008d578063400ada75146100a2578063715018a6146100b5578063891aad70146100bd575b600080fd5b6100a061009b36600461104e565b610144565b005b6100a06100b036600461104e565b6101b1565b6100a0610255565b6100a06100cb3660046110d1565b61028b565b6000546001600160a01b03165b6040516001600160a01b0390911681526020015b60405180910390f35b6001546100dd906001600160a01b031681565b6100a061011b3660046111a8565b6102c4565b60015461013490600160a01b900460ff1681565b60405190151581526020016100f1565b6000546001600160a01b031633146101775760405162461bcd60e51b815260040161016e906111ca565b60405180910390fd5b600180546001600160a01b039093166001600160a01b0319921515600160a01b02929092166001600160a81b031990931692909217179055565b60006101bd600161035f565b905080156101d9576000805460ff60a81b1916600160a81b1790555b600180546001600160a81b031916600160a01b841515026001600160a01b031916176001600160a01b0385161790558015610250576000805460ff60a81b19169055604051600181527f7f26b83ff96e1f2b6a682f133852f6798a09c465da95921460cefb38474024989060200160405180910390a15b505050565b6000546001600160a01b0316331461027f5760405162461bcd60e51b815260040161016e906111ca565b61028960006103ff565b565b821561029e5761029e878787878761044f565b6102a882826105e5565b6102b28282610754565b6102bb87610849565b50505050505050565b6000546001600160a01b031633146102ee5760405162461bcd60e51b815260040161016e906111ca565b6001600160a01b0381166103535760405162461bcd60e51b815260206004820152602660248201527f4f776e61626c653a206e6577206f776e657220697320746865207a65726f206160448201526564647265737360d01b606482015260840161016e565b61035c816103ff565b50565b60008054600160a81b900460ff16156103a8578160ff1660011480156103845750303b155b6103a05760405162461bcd60e51b815260040161016e906111ff565b506000919050565b60005460ff808416600160a01b90920416106103d65760405162461bcd60e51b815260040161016e906111ff565b506000805460ff909216600160a01b0260ff60a01b19909216919091179055600190565b919050565b600080546001600160a01b038381166001600160a01b0319831681178455604051919092169283917f8be0079c531659141344cd1fd0a4f28419497f9722a3daafe3b4186f6b6457e09190a35050565b61045b853330876108da565b6001546104739086906001600160a01b0316866109e4565b600154600160a01b900460ff16156105125760005b8181101561050c576104fa868484848181106104a6576104a661124d565b6104bc92602060809092020190810191506111a8565b8585858181106104ce576104ce61124d565b905060800201602001358686868181106104ea576104ea61124d565b9050608002016040013588610add565b8061050481611279565b915050610488565b506105c5565b60005b818110156105c3576105b1868484848181106105335761053361124d565b61054992602060809092020190810191506111a8565b85858581811061055b5761055b61124d565b90506080020160600160208101906105739190611294565b8686868181106105855761058561124d565b905060800201602001358787878181106105a1576105a161124d565b9050608002016040013589610c5c565b806105bb81611279565b915050610515565b505b6001546105de9086906001600160a01b031660006109e4565b5050505050565b6000805b8281101561074e578383828181106106035761060361124d565b905060200281019061061591906112b9565b6106239060208101906111a8565b6040516370a0823160e01b81523060048201526001600160a01b0391909116906370a082319060240160206040518083038186803b15801561066457600080fd5b505afa158015610678573d6000803e3d6000fd5b505050506040513d601f19601f8201168201806040525081019061069c91906112d9565b9150818484838181106106b1576106b161124d565b90506020028101906106c391906112b9565b60200135111561073c5761073c8484838181106106e2576106e261124d565b90506020028101906106f491906112b9565b6107029060208101906111a8565b3330858888878181106107175761071761124d565b905060200281019061072991906112b9565b6020013561073791906112f2565b6108da565b8061074681611279565b9150506105e9565b50505050565b60005b81811015610250576107fd8383838181106107745761077461124d565b905060200281019061078691906112b9565b6107949060208101906111a8565b8484848181106107a6576107a661124d565b90506020028101906107b891906112b9565b6107c6906040810190611309565b8686868181106107d8576107d861124d565b90506020028101906107ea91906112b9565b6107f8906060810190611309565b610db6565b6108378383838181106108125761081261124d565b905060200281019061082491906112b9565b6108329060208101906111a8565b610849565b8061084181611279565b915050610757565b6040516370a0823160e01b81523060048201526000906001600160a01b038316906370a082319060240160206040518083038186803b15801561088b57600080fd5b505afa15801561089f573d6000803e3d6000fd5b505050506040513d601f19601f820116820180604052508101906108c391906112d9565b905080156108d6576108d6823383610f30565b5050565b604080516001600160a01b0385811660248301528481166044830152606480830185905283518084039091018152608490920183526020820180516001600160e01b03166323b872dd60e01b179052915160009283929088169161093e9190611353565b6000604051808303816000865af19150503d806000811461097b576040519150601f19603f3d011682016040523d82523d6000602084013e610980565b606091505b50915091508180156109aa5750805115806109aa5750808060200190518101906109aa919061138e565b6109dc5760405162461bcd60e51b815260206004820152600360248201526229aa2360e91b604482015260640161016e565b505050505050565b604080516001600160a01b038481166024830152604480830185905283518084039091018152606490920183526020820180516001600160e01b031663095ea7b360e01b1790529151600092839290871691610a409190611353565b6000604051808303816000865af19150503d8060008114610a7d576040519150601f19603f3d011682016040523d82523d6000602084013e610a82565b606091505b5091509150818015610aac575080511580610aac575080806020019051810190610aac919061138e565b6105de5760405162461bcd60e51b8152602060048201526002602482015261534160f01b604482015260640161016e565b6040805160028082526060820183526000926020830190803683370190505090508581600081518110610b1257610b1261124d565b60200260200101906001600160a01b031690816001600160a01b0316815250508481600181518110610b4657610b4661124d565b6001600160a01b039283166020918202929092010152600154604051634401edf760e11b81526000929190911690638803dbee90610b909088908890879030908a906004016113c1565b600060405180830381600087803b158015610baa57600080fd5b505af1158015610bbe573d6000803e3d6000fd5b505050506040513d6000823e601f3d908101601f19168201604052610be6919081019061143d565b600081518110610bf857610bf861124d565b602090810291909101810151604080516001600160a01b03808c1682528a1693810193909352820181905291507f2d8d9d7f49599a20c9e475f932138bdf56ab8ddbcd627a642030d3d788012b56906060015b60405180910390a150505050505050565b60015460408051610100810182526001600160a01b0389811682528881166020830190815262ffffff898116848601908152306060860190815263ffffffff89166080870190815260a087018c815260c088018c8152600060e08a018181529a51631b67c43360e31b81529951891660048b01529651881660248a015293519094166044880152905185166064870152516084860152905160a48501525160c48401529251811660e48301529192919091169063db3e21989061010401602060405180830381600087803b158015610d3357600080fd5b505af1158015610d47573d6000803e3d6000fd5b505050506040513d601f19601f82011682018060405250810190610d6b91906112d9565b604080516001600160a01b03808b168252891660208201529081018290529091507f2d8d9d7f49599a20c9e475f932138bdf56ab8ddbcd627a642030d3d788012b5690606001610c4b565b808314610e055760405162461bcd60e51b815260206004820152601c60248201527f417272617973206d75737420686176652073616d65206c656e67746800000000604482015260640161016e565b60005b83811015610eeb576000858583818110610e2457610e2461124d565b9050602002016020810190610e3991906111a8565b6001600160a01b03161415610e905760405162461bcd60e51b815260206004820152601a60248201527f43616e6e6f742073656e6420746f206120302061646472657373000000000000604482015260640161016e565b610ed986868684818110610ea657610ea661124d565b9050602002016020810190610ebb91906111a8565b858585818110610ecd57610ecd61124d565b90506020020135610f30565b80610ee381611279565b915050610e08565b507f6b82a3962e5fe7c719b4bec2b902045249682ce10c3004d113ae455e5d8c563d84848484604051610f2194939291906114fb565b60405180910390a15050505050565b604080516001600160a01b038481166024830152604480830185905283518084039091018152606490920183526020820180516001600160e01b031663a9059cbb60e01b1790529151600092839290871691610f8c9190611353565b6000604051808303816000865af19150503d8060008114610fc9576040519150601f19603f3d011682016040523d82523d6000602084013e610fce565b606091505b5091509150818015610ff8575080511580610ff8575080806020019051810190610ff8919061138e565b6105de5760405162461bcd60e51b815260206004820152600260248201526114d560f21b604482015260640161016e565b80356001600160a01b03811681146103fa57600080fd5b801515811461035c57600080fd5b6000806040838503121561106157600080fd5b61106a83611029565b9150602083013561107a81611040565b809150509250929050565b60008083601f84011261109757600080fd5b50813567ffffffffffffffff8111156110af57600080fd5b6020830191508360208260051b85010111156110ca57600080fd5b9250929050565b600080600080600080600060a0888a0312156110ec57600080fd5b6110f588611029565b965060208801359550604088013563ffffffff8116811461111557600080fd5b9450606088013567ffffffffffffffff8082111561113257600080fd5b818a0191508a601f83011261114657600080fd5b81358181111561115557600080fd5b8b60208260071b850101111561116a57600080fd5b6020830196508095505060808a013591508082111561118857600080fd5b506111958a828b01611085565b989b979a50959850939692959293505050565b6000602082840312156111ba57600080fd5b6111c382611029565b9392505050565b6020808252818101527f4f776e61626c653a2063616c6c6572206973206e6f7420746865206f776e6572604082015260600190565b6020808252602e908201527f496e697469616c697a61626c653a20636f6e747261637420697320616c72656160408201526d191e481a5b9a5d1a585b1a5e995960921b606082015260800190565b634e487b7160e01b600052603260045260246000fd5b634e487b7160e01b600052601160045260246000fd5b600060001982141561128d5761128d611263565b5060010190565b6000602082840312156112a657600080fd5b813562ffffff811681146111c357600080fd5b60008235607e198336030181126112cf57600080fd5b9190910192915050565b6000602082840312156112eb57600080fd5b5051919050565b60008282101561130457611304611263565b500390565b6000808335601e1984360301811261132057600080fd5b83018035915067ffffffffffffffff82111561133b57600080fd5b6020019150600581901b36038213156110ca57600080fd5b6000825160005b81811015611374576020818601810151858301520161135a565b81811115611383576000828501525b509190910192915050565b6000602082840312156113a057600080fd5b81516111c381611040565b634e487b7160e01b600052604160045260246000fd5b600060a082018783526020878185015260a0604085015281875180845260c086019150828901935060005b818110156114115784516001600160a01b0316835293830193918301916001016113ec565b50506001600160a01b0396909616606085015250505063ffffffff919091166080909101529392505050565b6000602080838503121561145057600080fd5b825167ffffffffffffffff8082111561146857600080fd5b818501915085601f83011261147c57600080fd5b81518181111561148e5761148e6113ab565b8060051b604051601f19603f830116810181811085821117156114b3576114b36113ab565b6040529182528482019250838101850191888311156114d157600080fd5b938501935b828510156114ef578451845293850193928501926114d6565b98975050505050505050565b6040808252810184905260008560608301825b8781101561153c576001600160a01b0361152784611029565b1682526020928301929091019060010161150e565b5083810360208501528481526001600160fb1b0385111561155c57600080fd5b8460051b91508186602083013760009101602001908152969550505050505056fea2646970667358221220260e35785d4c7201935e51fe71c2e385f001bcf9e8f09e50e256531afda42c9164736f6c63430008090033",
  "devdoc": {
    "author": "Lucas Marc",
    "kind": "dev",
    "methods": {
      "owner()": {
        "details": "Returns the address of the current owner."
      },
      "performSwapAndPayment(address,uint256,uint32,(address,uint256,uint256,uint24)[],(address,uint256,address[],uint256[])[])": {
        "params": {
          "_deadline": "The unix timestamp after a swap will fail",
          "_erc20TokenOrigin": "ERC20 token address to swap for another",
          "_payments": "The array of the Payment data",
          "_swaps": "The array of the Swaps data",
          "_totalAmountToSpend": "Total amount of erc20TokenOrigin to spend in swaps and payments. You must know the total amount of erc20TokenOrigin to spend on swaps and also to spend on payments."
        }
      },
      "renounceOwnership()": {
        "details": "Leaves the contract without owner. It will not be possible to call `onlyOwner` functions anymore. Can only be called by the current owner. NOTE: Renouncing ownership will leave the contract without an owner, thereby removing any functionality that is only available to the owner."
      },
      "setSwapRouter(address,bool)": {
        "params": {
          "_swapRouter": "Router address to execute swaps"
        }
      },
      "transferOwnership(address)": {
        "details": "Transfers ownership of the contract to a new account (`newOwner`). Can only be called by the current owner."
      }
    },
    "title": "A contract that allows multiple payments in one transaction",
    "version": 1
  },
  "userdoc": {
    "kind": "user",
    "methods": {
      "performSwapAndPayment(address,uint256,uint32,(address,uint256,uint256,uint24)[],(address,uint256,address[],uint256[])[])": {
        "notice": "Perform the swap, the transfer and finally the payment to the given addressesCurrently the function only works with ERC20 tokens"
      },
      "setSwapRouter(address,bool)": {
        "notice": "Set the SwapRouter and the version to be used"
      }
    },
    "version": 1
  },
  "storageLayout": {
    "storage": [
      {
        "astId": 785,
        "contract": "contracts/Payroll.sol:Payroll",
        "label": "_owner",
        "offset": 0,
        "slot": "0",
        "type": "t_address"
      },
      {
        "astId": 6,
        "contract": "contracts/Payroll.sol:Payroll",
        "label": "_initialized",
        "offset": 20,
        "slot": "0",
        "type": "t_uint8"
      },
      {
        "astId": 9,
        "contract": "contracts/Payroll.sol:Payroll",
        "label": "_initializing",
        "offset": 21,
        "slot": "0",
        "type": "t_bool"
      },
      {
        "astId": 2946,
        "contract": "contracts/Payroll.sol:Payroll",
        "label": "swapRouter",
        "offset": 0,
        "slot": "1",
        "type": "t_contract(IUniswapBasic)3577"
      },
      {
        "astId": 2948,
        "contract": "contracts/Payroll.sol:Payroll",
        "label": "isSwapV2",
        "offset": 20,
        "slot": "1",
        "type": "t_bool"
      }
    ],
    "types": {
      "t_address": {
        "encoding": "inplace",
        "label": "address",
        "numberOfBytes": "20"
      },
      "t_bool": {
        "encoding": "inplace",
        "label": "bool",
        "numberOfBytes": "1"
      },
      "t_contract(IUniswapBasic)3577": {
        "encoding": "inplace",
        "label": "contract IUniswapBasic",
        "numberOfBytes": "20"
      },
      "t_uint8": {
        "encoding": "inplace",
        "label": "uint8",
        "numberOfBytes": "1"
      }
    }
  }
}