{
  "address": "0x330D5e843c66e3e86c045f6442cA0106d8E10F77",
  "abi": [
    {
      "anonymous": false,
      "inputs": [
        {
          "indexed": false,
          "internalType": "address",
          "name": "_erc20TokenAddress",
          "type": "address"
        },
        {
          "indexed": false,
          "internalType": "address[]",
          "name": "_receivers",
          "type": "address[]"
        },
        {
          "indexed": false,
          "internalType": "uint256[]",
          "name": "_amountsToTransfer",
          "type": "uint256[]"
        }
      ],
      "name": "BatchPaymentFinished",
      "type": "event"
    },
    {
      "anonymous": false,
      "inputs": [
        {
          "indexed": false,
          "internalType": "address",
          "name": "_feeAddress",
          "type": "address"
        }
      ],
      "name": "FeeAddressChanged",
      "type": "event"
    },
    {
      "anonymous": false,
      "inputs": [
        {
          "indexed": false,
          "internalType": "uint256",
          "name": "_fee",
          "type": "uint256"
        }
      ],
      "name": "FeeChanged",
      "type": "event"
    },
    {
      "anonymous": false,
      "inputs": [
        {
          "indexed": false,
          "internalType": "address",
          "name": "_erc20TokenAddress",
          "type": "address"
        },
        {
          "indexed": false,
          "internalType": "address",
          "name": "_feeAddress",
          "type": "address"
        },
        {
          "indexed": false,
          "internalType": "uint256",
          "name": "_fees",
          "type": "uint256"
        }
      ],
      "name": "FeeCharged",
      "type": "event"
    },
    {
      "anonymous": false,
      "inputs": [
        {
          "indexed": true,
          "internalType": "address",
          "name": "previousOwner",
          "type": "address"
        },
        {
          "indexed": true,
          "internalType": "address",
          "name": "newOwner",
          "type": "address"
        }
      ],
      "name": "OwnershipTransferred",
      "type": "event"
    },
    {
      "anonymous": false,
      "inputs": [
        {
          "indexed": false,
          "internalType": "address",
          "name": "_tokenIn",
          "type": "address"
        },
        {
          "indexed": false,
          "internalType": "address",
          "name": "_tokenOut",
          "type": "address"
        },
        {
          "indexed": false,
          "internalType": "uint256",
          "name": "_amountReceived",
          "type": "uint256"
        }
      ],
      "name": "SwapFinished",
      "type": "event"
    },
    {
      "anonymous": false,
      "inputs": [
        {
          "indexed": false,
          "internalType": "address",
          "name": "_swapRouter",
          "type": "address"
        },
        {
          "indexed": false,
          "internalType": "bool",
          "name": "_isSwapV2",
          "type": "bool"
        }
      ],
      "name": "SwapRouterChanged",
      "type": "event"
    },
    {
      "inputs": [],
      "name": "MANTISSA",
      "outputs": [
        {
          "internalType": "uint256",
          "name": "",
          "type": "uint256"
        }
      ],
      "stateMutability": "view",
      "type": "function"
    },
    {
      "inputs": [
        {
          "internalType": "address[]",
          "name": "_erc20TokenOrigin",
          "type": "address[]"
        }
      ],
      "name": "approveTokens",
      "outputs": [],
      "stateMutability": "nonpayable",
      "type": "function"
    },
    {
      "inputs": [],
      "name": "fee",
      "outputs": [
        {
          "internalType": "uint256",
          "name": "",
          "type": "uint256"
        }
      ],
      "stateMutability": "view",
      "type": "function"
    },
    {
      "inputs": [],
      "name": "feeAddress",
      "outputs": [
        {
          "internalType": "address",
          "name": "",
          "type": "address"
        }
      ],
      "stateMutability": "view",
      "type": "function"
    },
    {
      "inputs": [
        {
          "internalType": "address",
          "name": "_swapRouter",
          "type": "address"
        },
        {
          "internalType": "bool",
          "name": "_isSwapV2",
          "type": "bool"
        },
        {
          "internalType": "address",
          "name": "_feeAddress",
          "type": "address"
        },
        {
          "internalType": "uint256",
          "name": "_fee",
          "type": "uint256"
        }
      ],
      "name": "initialize",
      "outputs": [],
      "stateMutability": "nonpayable",
      "type": "function"
    },
    {
      "inputs": [],
      "name": "isSwapV2",
      "outputs": [
        {
          "internalType": "bool",
          "name": "",
          "type": "bool"
        }
      ],
      "stateMutability": "view",
      "type": "function"
    },
    {
      "inputs": [],
      "name": "owner",
      "outputs": [
        {
          "internalType": "address",
          "name": "",
          "type": "address"
        }
      ],
      "stateMutability": "view",
      "type": "function"
    },
    {
      "inputs": [
        {
          "components": [
            {
              "internalType": "address",
              "name": "token",
              "type": "address"
            },
            {
              "internalType": "address[]",
              "name": "receivers",
              "type": "address[]"
            },
            {
              "internalType": "uint256[]",
              "name": "amountsToTransfer",
              "type": "uint256[]"
            }
          ],
          "internalType": "struct Payroll.Payment[]",
          "name": "_payments",
          "type": "tuple[]"
        }
      ],
      "name": "performMultiPayment",
      "outputs": [],
      "stateMutability": "nonpayable",
      "type": "function"
    },
    {
      "inputs": [
        {
          "internalType": "address",
          "name": "_erc20TokenOrigin",
          "type": "address"
        },
        {
          "internalType": "uint256",
          "name": "_totalAmountToSwap",
          "type": "uint256"
        },
        {
          "internalType": "uint32",
          "name": "_deadline",
          "type": "uint32"
        },
        {
          "components": [
            {
              "internalType": "address",
              "name": "token",
              "type": "address"
            },
            {
              "internalType": "uint256",
              "name": "amountOut",
              "type": "uint256"
            },
            {
              "internalType": "uint256",
              "name": "amountInMax",
              "type": "uint256"
            },
            {
              "internalType": "uint24",
              "name": "poolFee",
              "type": "uint24"
            }
          ],
          "internalType": "struct Payroll.Swap[]",
          "name": "_swaps",
          "type": "tuple[]"
        },
        {
          "components": [
            {
              "internalType": "address",
              "name": "token",
              "type": "address"
            },
            {
              "internalType": "address[]",
              "name": "receivers",
              "type": "address[]"
            },
            {
              "internalType": "uint256[]",
              "name": "amountsToTransfer",
              "type": "uint256[]"
            }
          ],
          "internalType": "struct Payroll.Payment[]",
          "name": "_payments",
          "type": "tuple[]"
        }
      ],
      "name": "performSwapAndPayment",
      "outputs": [],
      "stateMutability": "nonpayable",
      "type": "function"
    },
    {
      "inputs": [],
      "name": "renounceOwnership",
      "outputs": [],
      "stateMutability": "nonpayable",
      "type": "function"
    },
    {
      "inputs": [
        {
          "internalType": "uint256",
          "name": "_fee",
          "type": "uint256"
        }
      ],
      "name": "setFee",
      "outputs": [],
      "stateMutability": "nonpayable",
      "type": "function"
    },
    {
      "inputs": [
        {
          "internalType": "address",
          "name": "_feeAddress",
          "type": "address"
        }
      ],
      "name": "setFeeAddress",
      "outputs": [],
      "stateMutability": "nonpayable",
      "type": "function"
    },
    {
      "inputs": [
        {
          "internalType": "address",
          "name": "_swapRouter",
          "type": "address"
        },
        {
          "internalType": "bool",
          "name": "_isSwapV2",
          "type": "bool"
        }
      ],
      "name": "setSwapRouter",
      "outputs": [],
      "stateMutability": "nonpayable",
      "type": "function"
    },
    {
      "inputs": [],
      "name": "swapRouter",
      "outputs": [
        {
          "internalType": "contract IUniswapBasic",
          "name": "",
          "type": "address"
        }
      ],
      "stateMutability": "view",
      "type": "function"
    },
    {
      "inputs": [
        {
          "internalType": "address",
          "name": "newOwner",
          "type": "address"
        }
      ],
      "name": "transferOwnership",
      "outputs": [],
      "stateMutability": "nonpayable",
      "type": "function"
    }
  ],
  "transactionHash": "0xbc65efb603430f2cb5707e1506faf2d650d4a4d030d2b61562a78e06f6fac33e",
  "args": [],
  "numDeployments": 2,
  "solcInputHash": "244384d782095884c90e433852d10f63",
  "bytecode": "0x608060405234801561001057600080fd5b50611aed806100206000396000f3fe608060405234801561001057600080fd5b50600436106100f55760003560e01c80638da5cb5b11610097578063ddca3f4311610066578063ddca3f43146101e7578063ef6aa264146101f0578063f2fde38b14610203578063f65a83cf1461021657600080fd5b80638da5cb5b1461019d578063ac43070b146101ae578063c31c9c07146101c1578063db9d0334146101d457600080fd5b806369fe0e2d116100d357806369fe0e2d1461015c578063715018a61461016f5780638705fcd414610177578063895305bc1461018a57600080fd5b80632171dcc9146100fa5780632703984c1461010f5780634127535814610131575b600080fd5b61010d61010836600461143b565b610233565b005b61011e670de0b6b3a764000081565b6040519081526020015b60405180910390f35b609854610144906001600160a01b031681565b6040516001600160a01b039091168152602001610128565b61010d61016a366004611472565b610274565b61010d6102aa565b61010d61018536600461148b565b6102e0565b61010d6101983660046114f9565b610313565b6033546001600160a01b0316610144565b61010d6101bc3660046115d0565b610366565b609754610144906001600160a01b031681565b61010d6101e23660046115d0565b6103f3565b61011e60995481565b61010d6101fe366004611612565b61042e565b61010d61021136600461148b565b610517565b609a546102239060ff1681565b6040519015158152602001610128565b6033546001600160a01b031633146102665760405162461bcd60e51b815260040161025d9061165f565b60405180910390fd5b61027082826105af565b5050565b6033546001600160a01b0316331461029e5760405162461bcd60e51b815260040161025d9061165f565b6102a781610688565b50565b6033546001600160a01b031633146102d45760405162461bcd60e51b815260040161025d9061165f565b6102de6000610726565b565b6033546001600160a01b0316331461030a5760405162461bcd60e51b815260040161025d9061165f565b6102a781610778565b600260655414156103365760405162461bcd60e51b815260040161025d90611694565b6002606555821561034e5761034e878787878761081c565b6103588282610a08565b505060016065555050505050565b600260655414156103895760405162461bcd60e51b815260040161025d90611694565b600260655560005b818110156103e9576103d78383838181106103ae576103ae6116cb565b90506020020160208101906103c3919061148b565b6097546001600160a01b0316600019610ac8565b806103e1816116f7565b915050610391565b5050600160655550565b600260655414156104165760405162461bcd60e51b815260040161025d90611694565b60026065556104258282610a08565b50506001606555565b600054610100900460ff166104495760005460ff161561044d565b303b155b6104b05760405162461bcd60e51b815260206004820152602e60248201527f496e697469616c697a61626c653a20636f6e747261637420697320616c72656160448201526d191e481a5b9a5d1a585b1a5e995960921b606482015260840161025d565b600054610100900460ff161580156104d2576000805461ffff19166101011790555b6104da610bc1565b6104e2610bf0565b6104ec85856105af565b6104f583610778565b6104fe82610688565b8015610510576000805461ff00191690555b5050505050565b6033546001600160a01b031633146105415760405162461bcd60e51b815260040161025d9061165f565b6001600160a01b0381166105a65760405162461bcd60e51b815260206004820152602660248201527f4f776e61626c653a206e6577206f776e657220697320746865207a65726f206160448201526564647265737360d01b606482015260840161025d565b6102a781610726565b6001600160a01b03821661061b5760405162461bcd60e51b815260206004820152602d60248201527f506179726f6c6c3a2043616e6e6f74207365742061203020616464726573732060448201526c30b99039bbb0b82937baba32b960991b606482015260840161025d565b609a805460ff1916821515908117909155609780546001600160a01b0319166001600160a01b0385169081179091556040805191825260208201929092527fa93750f85ffdb877ffb446c32e8a1033c18e7746ffdd0b42d7edee2c98e7db3c910160405180910390a15050565b666a94d74f43000081106106ea5760405162461bcd60e51b815260206004820152602360248201527f506179726f6c6c3a204665652073686f756c64206265206c657373207468616e60448201526220332560e81b606482015260840161025d565b60998190556040518181527f6bbc57480a46553fa4d156ce702beef5f3ad66303b0ed1a5d4cb44966c6584c3906020015b60405180910390a150565b603380546001600160a01b038381166001600160a01b0319831681179093556040519116919082907f8be0079c531659141344cd1fd0a4f28419497f9722a3daafe3b4186f6b6457e090600090a35050565b6001600160a01b0381166107ce5760405162461bcd60e51b815260206004820152601f60248201527f506179726f6c6c3a2046656520616464726573732063616e2774206265203000604482015260640161025d565b609880546001600160a01b0319166001600160a01b0383169081179091556040519081527fd1e93c69f2847f79bfa4d71704aaa84a581729b4b1706d922ee42ba1848a45c99060200161071b565b61082885333087610c1f565b609a5460ff16156108c05760005b818110156108ba576108a886848484818110610854576108546116cb565b61086a926020608090920201908101915061148b565b85858581811061087c5761087c6116cb565b90506080020160200135868686818110610898576108986116cb565b9050608002016040013588610d25565b806108b2816116f7565b915050610836565b50610973565b60005b818110156109715761095f868484848181106108e1576108e16116cb565b6108f7926020608090920201908101915061148b565b858585818110610909576109096116cb565b90506080020160600160208101906109219190611712565b868686818110610933576109336116cb565b9050608002016020013587878781811061094f5761094f6116cb565b9050608002016040013589610e8e565b80610969816116f7565b9150506108c3565b505b6040516370a0823160e01b81523060048201526000906001600160a01b038716906370a082319060240160206040518083038186803b1580156109b557600080fd5b505afa1580156109c9573d6000803e3d6000fd5b505050506040513d601f19601f820116820180604052508101906109ed9190611737565b90508015610a0057610a00863383610fd2565b505050505050565b60005b81811015610ac357610ab1838383818110610a2857610a286116cb565b9050602002810190610a3a9190611750565b610a4890602081019061148b565b848484818110610a5a57610a5a6116cb565b9050602002810190610a6c9190611750565b610a7a906020810190611770565b868686818110610a8c57610a8c6116cb565b9050602002810190610a9e9190611750565b610aac906040810190611770565b6110cb565b80610abb816116f7565b915050610a0b565b505050565b604080516001600160a01b038481166024830152604480830185905283518084039091018152606490920183526020820180516001600160e01b031663095ea7b360e01b1790529151600092839290871691610b2491906117ba565b6000604051808303816000865af19150503d8060008114610b61576040519150601f19603f3d011682016040523d82523d6000602084013e610b66565b606091505b5091509150818015610b90575080511580610b90575080806020019051810190610b9091906117f5565b6105105760405162461bcd60e51b8152602060048201526002602482015261534160f01b604482015260640161025d565b600054610100900460ff16610be85760405162461bcd60e51b815260040161025d90611812565b6102de6113b3565b600054610100900460ff16610c175760405162461bcd60e51b815260040161025d90611812565b6102de6113e1565b600080856001600160a01b03166323b872dd60e01b868686604051602401610c499392919061185d565b60408051601f198184030181529181526020820180516001600160e01b03166001600160e01b0319909416939093179092529051610c8791906117ba565b6000604051808303816000865af19150503d8060008114610cc4576040519150601f19603f3d011682016040523d82523d6000602084013e610cc9565b606091505b5091509150818015610cf3575080511580610cf3575080806020019051810190610cf391906117f5565b610a005760405162461bcd60e51b815260206004820152600360248201526229aa2360e91b604482015260640161025d565b6040805160028082526060820183526000926020830190803683370190505090508581600081518110610d5a57610d5a6116cb565b60200260200101906001600160a01b031690816001600160a01b0316815250508481600181518110610d8e57610d8e6116cb565b6001600160a01b039283166020918202929092010152609754604051634401edf760e11b81526000929190911690638803dbee90610dd89088908890879033908a90600401611897565b600060405180830381600087803b158015610df257600080fd5b505af1158015610e06573d6000803e3d6000fd5b505050506040513d6000823e601f3d908101601f19168201604052610e2e9190810190611913565b600081518110610e4057610e406116cb565b602002602001015190507f2d8d9d7f49599a20c9e475f932138bdf56ab8ddbcd627a642030d3d788012b56878783604051610e7d9392919061185d565b60405180910390a150505050505050565b60975460408051610100810182526001600160a01b0389811682528881166020830190815262ffffff898116848601908152336060860190815263ffffffff89166080870190815260a087018c815260c088018c8152600060e08a018181529a51631b67c43360e31b81529951891660048b01529651881660248a015293519094166044880152905185166064870152516084860152905160a48501525160c48401529251811660e48301529192919091169063db3e21989061010401602060405180830381600087803b158015610f6557600080fd5b505af1158015610f79573d6000803e3d6000fd5b505050506040513d601f19601f82011682018060405250810190610f9d9190611737565b90507f2d8d9d7f49599a20c9e475f932138bdf56ab8ddbcd627a642030d3d788012b56878783604051610e7d9392919061185d565b604080516001600160a01b038481166024830152604480830185905283518084039091018152606490920183526020820180516001600160e01b031663a9059cbb60e01b179052915160009283929087169161102e91906117ba565b6000604051808303816000865af19150503d806000811461106b576040519150601f19603f3d011682016040523d82523d6000602084013e611070565b606091505b509150915081801561109a57508051158061109a57508080602001905181019061109a91906117f5565b6105105760405162461bcd60e51b815260206004820152600260248201526114d560f21b604482015260640161025d565b6001600160a01b0385166111215760405162461bcd60e51b815260206004820152601b60248201527f506179726f6c6c3a20546f6b656e206973203020616464726573730000000000604482015260640161025d565b8061116e5760405162461bcd60e51b815260206004820152601f60248201527f506179726f6c6c3a204e6f20616d6f756e747320746f207472616e7366657200604482015260640161025d565b8083146111cb5760405162461bcd60e51b815260206004820152602560248201527f506179726f6c6c3a20417272617973206d75737420686176652073616d65206c6044820152640cadccee8d60db1b606482015260840161025d565b6000805b848110156113045760008686838181106111eb576111eb6116cb565b9050602002016020810190611200919061148b565b6001600160a01b031614156112635760405162461bcd60e51b815260206004820152602360248201527f506179726f6c6c3a2043616e6e6f742073656e6420746f20612030206164647260448201526265737360e81b606482015260840161025d565b670de0b6b3a7640000609954858584818110611281576112816116cb565b9050602002013561129291906119d1565b61129c91906119f0565b6112a69083611a12565b91506112f287338888858181106112bf576112bf6116cb565b90506020020160208101906112d4919061148b565b8787868181106112e6576112e66116cb565b90506020020135610c1f565b806112fc816116f7565b9150506111cf565b507f12bf982271e0dbba6878628c37389b80d96734e56444e0fa59baf971be04c1b5868686868660405161133c959493929190611a2a565b60405180910390a180156113645760985461136490879033906001600160a01b031684610c1f565b6098546040517f945458c62aa39df7a4d87d6c4dbaaab7de5d870c9a1fe40e2b7571d84f158a8d916113a39189916001600160a01b031690859061185d565b60405180910390a1505050505050565b600054610100900460ff166113da5760405162461bcd60e51b815260040161025d90611812565b6001606555565b600054610100900460ff166114085760405162461bcd60e51b815260040161025d90611812565b6102de33610726565b80356001600160a01b038116811461142857600080fd5b919050565b80151581146102a757600080fd5b6000806040838503121561144e57600080fd5b61145783611411565b915060208301356114678161142d565b809150509250929050565b60006020828403121561148457600080fd5b5035919050565b60006020828403121561149d57600080fd5b6114a682611411565b9392505050565b60008083601f8401126114bf57600080fd5b50813567ffffffffffffffff8111156114d757600080fd5b6020830191508360208260051b85010111156114f257600080fd5b9250929050565b600080600080600080600060a0888a03121561151457600080fd5b61151d88611411565b965060208801359550604088013563ffffffff8116811461153d57600080fd5b9450606088013567ffffffffffffffff8082111561155a57600080fd5b818a0191508a601f83011261156e57600080fd5b81358181111561157d57600080fd5b8b60208260071b850101111561159257600080fd5b6020830196508095505060808a01359150808211156115b057600080fd5b506115bd8a828b016114ad565b989b979a50959850939692959293505050565b600080602083850312156115e357600080fd5b823567ffffffffffffffff8111156115fa57600080fd5b611606858286016114ad565b90969095509350505050565b6000806000806080858703121561162857600080fd5b61163185611411565b935060208501356116418161142d565b925061164f60408601611411565b9396929550929360600135925050565b6020808252818101527f4f776e61626c653a2063616c6c6572206973206e6f7420746865206f776e6572604082015260600190565b6020808252601f908201527f5265656e7472616e637947756172643a207265656e7472616e742063616c6c00604082015260600190565b634e487b7160e01b600052603260045260246000fd5b634e487b7160e01b600052601160045260246000fd5b600060001982141561170b5761170b6116e1565b5060010190565b60006020828403121561172457600080fd5b813562ffffff811681146114a657600080fd5b60006020828403121561174957600080fd5b5051919050565b60008235605e1983360301811261176657600080fd5b9190910192915050565b6000808335601e1984360301811261178757600080fd5b83018035915067ffffffffffffffff8211156117a257600080fd5b6020019150600581901b36038213156114f257600080fd5b6000825160005b818110156117db57602081860181015185830152016117c1565b818111156117ea576000828501525b509190910192915050565b60006020828403121561180757600080fd5b81516114a68161142d565b6020808252602b908201527f496e697469616c697a61626c653a20636f6e7472616374206973206e6f74206960408201526a6e697469616c697a696e6760a81b606082015260800190565b6001600160a01b039384168152919092166020820152604081019190915260600190565b634e487b7160e01b600052604160045260246000fd5b600060a082018783526020878185015260a0604085015281875180845260c086019150828901935060005b818110156118e75784516001600160a01b0316835293830193918301916001016118c2565b50506001600160a01b0396909616606085015250505063ffffffff919091166080909101529392505050565b6000602080838503121561192657600080fd5b825167ffffffffffffffff8082111561193e57600080fd5b818501915085601f83011261195257600080fd5b81518181111561196457611964611881565b8060051b604051601f19603f8301168101818110858211171561198957611989611881565b6040529182528482019250838101850191888311156119a757600080fd5b938501935b828510156119c5578451845293850193928501926119ac565b98975050505050505050565b60008160001904831182151516156119eb576119eb6116e1565b500290565b600082611a0d57634e487b7160e01b600052601260045260246000fd5b500490565b60008219821115611a2557611a256116e1565b500190565b6001600160a01b03868116825260606020808401829052908301869052600091879160808501845b89811015611a775783611a6486611411565b1682529382019390820190600101611a52565b5085810360408701528681526001600160fb1b03871115611a9757600080fd5b8660051b935083888383013760009301019182525097965050505050505056fea26469706673582212201b057c2547a4ed0f6f88581322c91cd02cf104dc8fb74cd90bcb563e130e51c464736f6c63430008090033",
  "devdoc": {
    "author": "Think and Dev Team",
    "kind": "dev",
    "methods": {
      "approveTokens(address[])": {
        "params": {
          "_erc20TokenOrigin": "ERC20 token address to approve."
        }
      },
      "initialize(address,bool,address,uint256)": {
        "params": {
          "_isSwapV2": "Boolean to specify the version of the router; true means v2, false means v3.",
          "_swapRouter": "Router address to execute swaps."
        }
      },
      "owner()": {
        "details": "Returns the address of the current owner."
      },
      "performMultiPayment((address,address[],uint256[])[])": {
        "params": {
          "_payments": "The array of the Payment data."
        }
      },
      "performSwapAndPayment(address,uint256,uint32,(address,uint256,uint256,uint24)[],(address,address[],uint256[])[])": {
        "params": {
          "_deadline": "The unix timestamp after a swap will fail.",
          "_erc20TokenOrigin": "ERC20 token address to swap for another.",
          "_payments": "The array of the Payment data.",
          "_swaps": "The array of the Swaps data.",
          "_totalAmountToSwap": "Total amount of erc20TokenOrigin to spend in swaps."
        }
      },
      "renounceOwnership()": {
        "details": "Leaves the contract without owner. It will not be possible to call `onlyOwner` functions anymore. Can only be called by the current owner. NOTE: Renouncing ownership will leave the contract without an owner, thereby removing any functionality that is only available to the owner."
      },
      "setFee(uint256)": {
        "params": {
          "_fee": "Percentage that will be charged."
        }
      },
      "setFeeAddress(address)": {
        "params": {
          "_feeAddress": "Address that will receive the fees."
        }
      },
      "setSwapRouter(address,bool)": {
        "params": {
          "_isSwapV2": "Boolean to specify the version of the router; true means v2, false means v3.",
          "_swapRouter": "Router address to execute swaps."
        }
      },
      "transferOwnership(address)": {
        "details": "Transfers ownership of the contract to a new account (`newOwner`). Can only be called by the current owner."
      }
    },
    "title": "Think and Dev Paymentbox",
    "version": 1
  },
  "userdoc": {
    "kind": "user",
    "methods": {
      "approveTokens(address[])": {
        "notice": "Approves the following token to be used on swapRouter"
      },
      "isSwapV2()": {
        "notice": "Returns if the contract is working with a v2 Uniswap protocol; true means v2, false means v3."
      },
      "performMultiPayment((address,address[],uint256[])[])": {
        "notice": "Perform the payments to the given addresses and amounts, public method."
      },
      "performSwapAndPayment(address,uint256,uint32,(address,uint256,uint256,uint24)[],(address,address[],uint256[])[])": {
        "notice": "Perform the swap and the transfer to the given addresses.Currently the function only works with ERC20 tokens."
      },
      "setFee(uint256)": {
        "notice": "Set the fee that will be charged, fees are divided by mantissa"
      },
      "setFeeAddress(address)": {
        "notice": "Set the address that will receive the fees."
      },
      "setSwapRouter(address,bool)": {
        "notice": "Set the SwapRouter and the version to be used."
      },
      "swapRouter()": {
        "notice": "Returns the address of the Uniswap protocol router, it could be v2 or v3."
      }
    },
    "notice": "Swap and transfer multiple ERC20 pairs to multiple accounts in a single transaction. Use any router address of any DEX that uses Uniswap protocol v2 or v3 to make swaps.",
    "version": 1
  },
  "storageLayout": {
    "storage": [
      {
        "astId": 130,
        "contract": "contracts/Payroll.sol:Payroll",
        "label": "_initialized",
        "offset": 0,
        "slot": "0",
        "type": "t_bool"
      },
      {
        "astId": 133,
        "contract": "contracts/Payroll.sol:Payroll",
        "label": "_initializing",
        "offset": 1,
        "slot": "0",
        "type": "t_bool"
      },
      {
        "astId": 540,
        "contract": "contracts/Payroll.sol:Payroll",
        "label": "__gap",
        "offset": 0,
        "slot": "1",
        "type": "t_array(t_uint256)50_storage"
      },
      {
        "astId": 10,
        "contract": "contracts/Payroll.sol:Payroll",
        "label": "_owner",
        "offset": 0,
        "slot": "51",
        "type": "t_address"
      },
      {
        "astId": 122,
        "contract": "contracts/Payroll.sol:Payroll",
        "label": "__gap",
        "offset": 0,
        "slot": "52",
        "type": "t_array(t_uint256)49_storage"
      },
      {
        "astId": 211,
        "contract": "contracts/Payroll.sol:Payroll",
        "label": "_status",
        "offset": 0,
        "slot": "101",
        "type": "t_uint256"
      },
      {
        "astId": 255,
        "contract": "contracts/Payroll.sol:Payroll",
        "label": "__gap",
        "offset": 0,
        "slot": "102",
        "type": "t_array(t_uint256)49_storage"
      },
      {
        "astId": 2993,
        "contract": "contracts/Payroll.sol:Payroll",
        "label": "swapRouter",
        "offset": 0,
        "slot": "151",
        "type": "t_contract(IUniswapBasic)3766"
      },
      {
        "astId": 2995,
        "contract": "contracts/Payroll.sol:Payroll",
        "label": "feeAddress",
        "offset": 0,
        "slot": "152",
        "type": "t_address"
      },
      {
        "astId": 2997,
        "contract": "contracts/Payroll.sol:Payroll",
        "label": "fee",
        "offset": 0,
        "slot": "153",
        "type": "t_uint256"
      },
      {
        "astId": 3003,
        "contract": "contracts/Payroll.sol:Payroll",
        "label": "isSwapV2",
        "offset": 0,
        "slot": "154",
        "type": "t_bool"
      }
    ],
    "types": {
      "t_address": {
        "encoding": "inplace",
        "label": "address",
        "numberOfBytes": "20"
      },
      "t_array(t_uint256)49_storage": {
        "base": "t_uint256",
        "encoding": "inplace",
        "label": "uint256[49]",
        "numberOfBytes": "1568"
      },
      "t_array(t_uint256)50_storage": {
        "base": "t_uint256",
        "encoding": "inplace",
        "label": "uint256[50]",
        "numberOfBytes": "1600"
      },
      "t_bool": {
        "encoding": "inplace",
        "label": "bool",
        "numberOfBytes": "1"
      },
      "t_contract(IUniswapBasic)3766": {
        "encoding": "inplace",
        "label": "contract IUniswapBasic",
        "numberOfBytes": "20"
      },
      "t_uint256": {
        "encoding": "inplace",
        "label": "uint256",
        "numberOfBytes": "32"
      }
    }
  }
}