{
  "address": "0xE34F957E42a3a2B5F8A64Ee367851a088bd1426A",
  "abi": [
    {
      "anonymous": false,
      "inputs": [
        {
          "indexed": false,
          "internalType": "address",
          "name": "_erc20TokenAddress",
          "type": "address"
        },
        {
          "indexed": false,
          "internalType": "address[]",
          "name": "_receivers",
          "type": "address[]"
        },
        {
          "indexed": false,
          "internalType": "uint256[]",
          "name": "_amountsToTransfer",
          "type": "uint256[]"
        }
      ],
      "name": "BatchPayment",
      "type": "event"
    },
    {
      "anonymous": false,
      "inputs": [
        {
          "indexed": false,
          "internalType": "address",
          "name": "_feeAddress",
          "type": "address"
        }
      ],
      "name": "FeeAddressChanged",
      "type": "event"
    },
    {
      "anonymous": false,
      "inputs": [
        {
          "indexed": false,
          "internalType": "uint256",
          "name": "_fee",
          "type": "uint256"
        }
      ],
      "name": "FeeChanged",
      "type": "event"
    },
    {
      "anonymous": false,
      "inputs": [
        {
          "indexed": false,
          "internalType": "address",
          "name": "_erc20TokenAddress",
          "type": "address"
        },
        {
          "indexed": false,
          "internalType": "address",
          "name": "_feeAddress",
          "type": "address"
        },
        {
          "indexed": false,
          "internalType": "uint256",
          "name": "_fees",
          "type": "uint256"
        }
      ],
      "name": "FeeCharged",
      "type": "event"
    },
    {
      "anonymous": false,
      "inputs": [
        {
          "indexed": false,
          "internalType": "uint8",
          "name": "version",
          "type": "uint8"
        }
      ],
      "name": "Initialized",
      "type": "event"
    },
    {
      "anonymous": false,
      "inputs": [
        {
          "indexed": true,
          "internalType": "address",
          "name": "previousOwner",
          "type": "address"
        },
        {
          "indexed": true,
          "internalType": "address",
          "name": "newOwner",
          "type": "address"
        }
      ],
      "name": "OwnershipTransferred",
      "type": "event"
    },
    {
      "anonymous": false,
      "inputs": [
        {
          "indexed": false,
          "internalType": "address",
          "name": "_tokenIn",
          "type": "address"
        },
        {
          "indexed": false,
          "internalType": "address",
          "name": "_tokenOut",
          "type": "address"
        },
        {
          "indexed": false,
          "internalType": "uint256",
          "name": "_amountReceived",
          "type": "uint256"
        }
      ],
      "name": "SwapFinished",
      "type": "event"
    },
    {
      "anonymous": false,
      "inputs": [
        {
          "indexed": false,
          "internalType": "address",
          "name": "_swapRouter",
          "type": "address"
        },
        {
          "indexed": false,
          "internalType": "bool",
          "name": "_isSwapV2",
          "type": "bool"
        }
      ],
      "name": "SwapRouterChanged",
      "type": "event"
    },
    {
      "anonymous": false,
      "inputs": [
        {
          "indexed": false,
          "internalType": "uint256",
          "name": "_version",
          "type": "uint256"
        }
      ],
      "name": "UpdatedVersion",
      "type": "event"
    },
    {
      "inputs": [],
      "name": "MANTISSA",
      "outputs": [
        {
          "internalType": "uint256",
          "name": "",
          "type": "uint256"
        }
      ],
      "stateMutability": "view",
      "type": "function"
    },
    {
      "inputs": [
        {
          "internalType": "address[]",
          "name": "_erc20TokenOrigin",
          "type": "address[]"
        }
      ],
      "name": "approveTokens",
      "outputs": [],
      "stateMutability": "nonpayable",
      "type": "function"
    },
    {
      "inputs": [],
      "name": "fee",
      "outputs": [
        {
          "internalType": "uint256",
          "name": "",
          "type": "uint256"
        }
      ],
      "stateMutability": "view",
      "type": "function"
    },
    {
      "inputs": [],
      "name": "feeAddress",
      "outputs": [
        {
          "internalType": "address",
          "name": "",
          "type": "address"
        }
      ],
      "stateMutability": "view",
      "type": "function"
    },
    {
      "inputs": [
        {
          "internalType": "address",
          "name": "_swapRouter",
          "type": "address"
        },
        {
          "internalType": "bool",
          "name": "_isSwapV2",
          "type": "bool"
        },
        {
          "internalType": "address",
          "name": "_feeAddress",
          "type": "address"
        },
        {
          "internalType": "uint256",
          "name": "_fee",
          "type": "uint256"
        }
      ],
      "name": "initialize",
      "outputs": [],
      "stateMutability": "nonpayable",
      "type": "function"
    },
    {
      "inputs": [],
      "name": "isSwapV2",
      "outputs": [
        {
          "internalType": "bool",
          "name": "",
          "type": "bool"
        }
      ],
      "stateMutability": "view",
      "type": "function"
    },
    {
      "inputs": [],
      "name": "owner",
      "outputs": [
        {
          "internalType": "address",
          "name": "",
          "type": "address"
        }
      ],
      "stateMutability": "view",
      "type": "function"
    },
    {
      "inputs": [
        {
          "components": [
            {
              "internalType": "address",
              "name": "token",
              "type": "address"
            },
            {
              "internalType": "address[]",
              "name": "receivers",
              "type": "address[]"
            },
            {
              "internalType": "uint256[]",
              "name": "amountsToTransfer",
              "type": "uint256[]"
            }
          ],
          "internalType": "struct Payroll.Payment[]",
          "name": "_payments",
          "type": "tuple[]"
        }
      ],
      "name": "performMultiPayment",
      "outputs": [],
      "stateMutability": "payable",
      "type": "function"
    },
    {
      "inputs": [
        {
          "internalType": "address",
          "name": "_erc20TokenOrigin",
          "type": "address"
        },
        {
          "internalType": "uint256",
          "name": "_totalAmountToSwap",
          "type": "uint256"
        },
        {
          "internalType": "uint32",
          "name": "_deadline",
          "type": "uint32"
        },
        {
          "components": [
            {
              "internalType": "uint256",
              "name": "amountOut",
              "type": "uint256"
            },
            {
              "internalType": "uint256",
              "name": "amountInMax",
              "type": "uint256"
            },
            {
              "internalType": "address[]",
              "name": "path",
              "type": "address[]"
            }
          ],
          "internalType": "struct Payroll.SwapV2[]",
          "name": "_swaps",
          "type": "tuple[]"
        }
      ],
      "name": "performSwapV2",
      "outputs": [],
      "stateMutability": "nonpayable",
      "type": "function"
    },
    {
      "inputs": [
        {
          "internalType": "address",
          "name": "_erc20TokenOrigin",
          "type": "address"
        },
        {
          "internalType": "uint256",
          "name": "_totalAmountToSwap",
          "type": "uint256"
        },
        {
          "internalType": "uint32",
          "name": "_deadline",
          "type": "uint32"
        },
        {
          "components": [
            {
              "internalType": "uint256",
              "name": "amountOut",
              "type": "uint256"
            },
            {
              "internalType": "uint256",
              "name": "amountInMax",
              "type": "uint256"
            },
            {
              "internalType": "address[]",
              "name": "path",
              "type": "address[]"
            }
          ],
          "internalType": "struct Payroll.SwapV2[]",
          "name": "_swaps",
          "type": "tuple[]"
        },
        {
          "components": [
            {
              "internalType": "address",
              "name": "token",
              "type": "address"
            },
            {
              "internalType": "address[]",
              "name": "receivers",
              "type": "address[]"
            },
            {
              "internalType": "uint256[]",
              "name": "amountsToTransfer",
              "type": "uint256[]"
            }
          ],
          "internalType": "struct Payroll.Payment[]",
          "name": "_payments",
          "type": "tuple[]"
        }
      ],
      "name": "performSwapV2AndPayment",
      "outputs": [],
      "stateMutability": "payable",
      "type": "function"
    },
    {
      "inputs": [
        {
          "internalType": "uint256",
          "name": "_totalAmountToSwap",
          "type": "uint256"
        },
        {
          "internalType": "uint32",
          "name": "_deadline",
          "type": "uint32"
        },
        {
          "components": [
            {
              "internalType": "uint256",
              "name": "amountOut",
              "type": "uint256"
            },
            {
              "internalType": "uint256",
              "name": "amountInMax",
              "type": "uint256"
            },
            {
              "internalType": "address[]",
              "name": "path",
              "type": "address[]"
            }
          ],
          "internalType": "struct Payroll.SwapV2[]",
          "name": "_swaps",
          "type": "tuple[]"
        },
        {
          "components": [
            {
              "internalType": "address",
              "name": "token",
              "type": "address"
            },
            {
              "internalType": "address[]",
              "name": "receivers",
              "type": "address[]"
            },
            {
              "internalType": "uint256[]",
              "name": "amountsToTransfer",
              "type": "uint256[]"
            }
          ],
          "internalType": "struct Payroll.Payment[]",
          "name": "_payments",
          "type": "tuple[]"
        }
      ],
      "name": "performSwapV2AndPaymentETH",
      "outputs": [],
      "stateMutability": "payable",
      "type": "function"
    },
    {
      "inputs": [
        {
          "internalType": "uint256",
          "name": "_totalAmountToSwap",
          "type": "uint256"
        },
        {
          "internalType": "uint32",
          "name": "_deadline",
          "type": "uint32"
        },
        {
          "components": [
            {
              "internalType": "uint256",
              "name": "amountOut",
              "type": "uint256"
            },
            {
              "internalType": "uint256",
              "name": "amountInMax",
              "type": "uint256"
            },
            {
              "internalType": "address[]",
              "name": "path",
              "type": "address[]"
            }
          ],
          "internalType": "struct Payroll.SwapV2[]",
          "name": "_swaps",
          "type": "tuple[]"
        }
      ],
      "name": "performSwapV2ETH",
      "outputs": [],
      "stateMutability": "payable",
      "type": "function"
    },
    {
      "inputs": [
        {
          "internalType": "address",
          "name": "_erc20TokenOrigin",
          "type": "address"
        },
        {
          "internalType": "uint256",
          "name": "_totalAmountToSwap",
          "type": "uint256"
        },
        {
          "internalType": "uint32",
          "name": "_deadline",
          "type": "uint32"
        },
        {
          "components": [
            {
              "internalType": "uint256",
              "name": "amountOut",
              "type": "uint256"
            },
            {
              "internalType": "uint256",
              "name": "amountInMax",
              "type": "uint256"
            },
            {
              "internalType": "bytes",
              "name": "path",
              "type": "bytes"
            }
          ],
          "internalType": "struct Payroll.SwapV3[]",
          "name": "_swaps",
          "type": "tuple[]"
        }
      ],
      "name": "performSwapV3",
      "outputs": [],
      "stateMutability": "nonpayable",
      "type": "function"
    },
    {
      "inputs": [
        {
          "internalType": "address",
          "name": "_erc20TokenOrigin",
          "type": "address"
        },
        {
          "internalType": "uint256",
          "name": "_totalAmountToSwap",
          "type": "uint256"
        },
        {
          "internalType": "uint32",
          "name": "_deadline",
          "type": "uint32"
        },
        {
          "components": [
            {
              "internalType": "uint256",
              "name": "amountOut",
              "type": "uint256"
            },
            {
              "internalType": "uint256",
              "name": "amountInMax",
              "type": "uint256"
            },
            {
              "internalType": "bytes",
              "name": "path",
              "type": "bytes"
            }
          ],
          "internalType": "struct Payroll.SwapV3[]",
          "name": "_swaps",
          "type": "tuple[]"
        },
        {
          "components": [
            {
              "internalType": "address",
              "name": "token",
              "type": "address"
            },
            {
              "internalType": "address[]",
              "name": "receivers",
              "type": "address[]"
            },
            {
              "internalType": "uint256[]",
              "name": "amountsToTransfer",
              "type": "uint256[]"
            }
          ],
          "internalType": "struct Payroll.Payment[]",
          "name": "_payments",
          "type": "tuple[]"
        }
      ],
      "name": "performSwapV3AndPayment",
      "outputs": [],
      "stateMutability": "payable",
      "type": "function"
    },
    {
      "inputs": [
        {
          "internalType": "uint256",
          "name": "_totalAmountToSwap",
          "type": "uint256"
        },
        {
          "internalType": "uint32",
          "name": "_deadline",
          "type": "uint32"
        },
        {
          "components": [
            {
              "internalType": "uint256",
              "name": "amountOut",
              "type": "uint256"
            },
            {
              "internalType": "uint256",
              "name": "amountInMax",
              "type": "uint256"
            },
            {
              "internalType": "bytes",
              "name": "path",
              "type": "bytes"
            }
          ],
          "internalType": "struct Payroll.SwapV3[]",
          "name": "_swaps",
          "type": "tuple[]"
        },
        {
          "components": [
            {
              "internalType": "address",
              "name": "token",
              "type": "address"
            },
            {
              "internalType": "address[]",
              "name": "receivers",
              "type": "address[]"
            },
            {
              "internalType": "uint256[]",
              "name": "amountsToTransfer",
              "type": "uint256[]"
            }
          ],
          "internalType": "struct Payroll.Payment[]",
          "name": "_payments",
          "type": "tuple[]"
        }
      ],
      "name": "performSwapV3AndPaymentETH",
      "outputs": [],
      "stateMutability": "payable",
      "type": "function"
    },
    {
      "inputs": [
        {
          "internalType": "uint256",
          "name": "_totalAmountToSwap",
          "type": "uint256"
        },
        {
          "internalType": "uint32",
          "name": "_deadline",
          "type": "uint32"
        },
        {
          "components": [
            {
              "internalType": "uint256",
              "name": "amountOut",
              "type": "uint256"
            },
            {
              "internalType": "uint256",
              "name": "amountInMax",
              "type": "uint256"
            },
            {
              "internalType": "bytes",
              "name": "path",
              "type": "bytes"
            }
          ],
          "internalType": "struct Payroll.SwapV3[]",
          "name": "_swaps",
          "type": "tuple[]"
        }
      ],
      "name": "performSwapV3ETH",
      "outputs": [],
      "stateMutability": "payable",
      "type": "function"
    },
    {
      "inputs": [],
      "name": "renounceOwnership",
      "outputs": [],
      "stateMutability": "nonpayable",
      "type": "function"
    },
    {
      "inputs": [
        {
          "internalType": "uint256",
          "name": "_fee",
          "type": "uint256"
        }
      ],
      "name": "setFee",
      "outputs": [],
      "stateMutability": "nonpayable",
      "type": "function"
    },
    {
      "inputs": [
        {
          "internalType": "address",
          "name": "_feeAddress",
          "type": "address"
        }
      ],
      "name": "setFeeAddress",
      "outputs": [],
      "stateMutability": "nonpayable",
      "type": "function"
    },
    {
      "inputs": [
        {
          "internalType": "address",
          "name": "_swapRouter",
          "type": "address"
        },
        {
          "internalType": "bool",
          "name": "_isSwapV2",
          "type": "bool"
        }
      ],
      "name": "setSwapRouter",
      "outputs": [],
      "stateMutability": "nonpayable",
      "type": "function"
    },
    {
      "inputs": [
        {
          "internalType": "uint256",
          "name": "_version",
          "type": "uint256"
        }
      ],
      "name": "setVersion",
      "outputs": [],
      "stateMutability": "nonpayable",
      "type": "function"
    },
    {
      "inputs": [],
      "name": "swapRouter",
      "outputs": [
        {
          "internalType": "address",
          "name": "",
          "type": "address"
        }
      ],
      "stateMutability": "view",
      "type": "function"
    },
    {
      "inputs": [
        {
          "internalType": "address",
          "name": "newOwner",
          "type": "address"
        }
      ],
      "name": "transferOwnership",
      "outputs": [],
      "stateMutability": "nonpayable",
      "type": "function"
    },
    {
      "inputs": [],
      "name": "version",
      "outputs": [
        {
          "internalType": "uint256",
          "name": "",
          "type": "uint256"
        }
      ],
      "stateMutability": "view",
      "type": "function"
    },
    {
      "stateMutability": "payable",
      "type": "receive"
    }
  ],
  "transactionHash": "0x471bcbf402baae01d5917f486544ad3bcfb92c8615bf67c103dd7cff4694b687",
  "args": [],
  "numDeployments": 1,
  "solcInputHash": "bb0336ed25787785bc01981e95bc259b",
  "bytecode": "0x608060405234801561001057600080fd5b506137b1806100206000396000f3fe60806040526004361061014f5760003560e01c80638da5cb5b116100b6578063db9d03341161006f578063db9d03341461036c578063ddca3f431461037f578063ef6aa26414610395578063f1b01903146103b5578063f2fde38b146103c8578063f65a83cf146103e857600080fd5b80638da5cb5b146102c857806392721482146102e6578063ac43070b146102f9578063bbc5ffb714610319578063c31c9c071461032c578063d8ca72361461034c57600080fd5b80634127535811610108578063412753581461020557806354fd4d501461023d57806369fe0e2d14610253578063715018a6146102735780638705fcd414610288578063887a622a146102a857600080fd5b80630e7ab0c31461015b5780632171dcc9146101705780632703984c1461019057806332b20df8146101bf578063395ae6a3146101d2578063408def1e146101e557600080fd5b3661015657005b600080fd5b61016e610169366004612e1b565b610412565b005b34801561017c57600080fd5b5061016e61018b366004612e98565b6104a1565b34801561019c57600080fd5b506101ac670de0b6b3a764000081565b6040519081526020015b60405180910390f35b61016e6101cd366004612ed1565b6104b7565b61016e6101e0366004612f5b565b610533565b3480156101f157600080fd5b5061016e610200366004612ff8565b6105b1565b34801561021157600080fd5b50609854610225906001600160a01b031681565b6040516001600160a01b0390911681526020016101b6565b34801561024957600080fd5b506101ac609a5481565b34801561025f57600080fd5b5061016e61026e366004612ff8565b6105c5565b34801561027f57600080fd5b5061016e6105d6565b34801561029457600080fd5b5061016e6102a3366004613011565b6105ea565b3480156102b457600080fd5b5061016e6102c3366004613035565b6105fb565b3480156102d457600080fd5b506033546001600160a01b0316610225565b61016e6102f4366004612f5b565b610683565b34801561030557600080fd5b5061016e6103143660046130a6565b6106e0565b61016e610327366004612ed1565b61076d565b34801561033857600080fd5b50609754610225906001600160a01b031681565b34801561035857600080fd5b5061016e610367366004613035565b6107c9565b61016e61037a3660046130a6565b61083e565b34801561038b57600080fd5b506101ac60995481565b3480156103a157600080fd5b5061016e6103b03660046130e8565b610881565b61016e6103c3366004612e1b565b6109c4565b3480156103d457600080fd5b5061016e6103e3366004613011565b610a38565b3480156103f457600080fd5b50609b546104029060ff1681565b60405190151581526020016101b6565b6002606554141561043e5760405162461bcd60e51b815260040161043590613139565b60405180910390fd5b6002606555609b5460ff166104655760405162461bcd60e51b815260040161043590613170565b806104825760405162461bcd60e51b8152600401610435906131a0565b61048e84848484610aae565b610496610d65565b505060016065555050565b6104a9610e15565b6104b38282610e6f565b5050565b600260655414156104da5760405162461bcd60e51b815260040161043590613139565b6002606555609b5460ff16156105025760405162461bcd60e51b8152600401610435906131ce565b82156105145761051486868686610f48565b61051e82826113d3565b610526610d65565b5050600160655550505050565b600260655414156105565760405162461bcd60e51b815260040161043590613139565b6002606555609b5460ff161561057e5760405162461bcd60e51b8152600401610435906131ce565b82156105915761059187878787876116be565b61059b82826113d3565b6105a3610d65565b505060016065555050505050565b6105b9610e15565b6105c281611cb6565b50565b6105cd610e15565b6105c281611d42565b6105de610e15565b6105e86000611dd9565b565b6105f2610e15565b6105c281611e2b565b6002606554141561061e5760405162461bcd60e51b815260040161043590613139565b6002606555609b5460ff166106455760405162461bcd60e51b815260040161043590613170565b806106625760405162461bcd60e51b8152600401610435906131a0565b61066f8585858585611ecf565b610677610d65565b50506001606555505050565b600260655414156106a65760405162461bcd60e51b815260040161043590613139565b6002606555609b5460ff166106cd5760405162461bcd60e51b815260040161043590613170565b8215610591576105918787878787611ecf565b600260655414156107035760405162461bcd60e51b815260040161043590613139565b600260655560005b8181101561076357610751838383818110610728576107286131fe565b905060200201602081019061073d9190613011565b6097546001600160a01b03166000196122bd565b8061075b8161322a565b91505061070b565b5050600160655550565b600260655414156107905760405162461bcd60e51b815260040161043590613139565b6002606555609b5460ff166107b75760405162461bcd60e51b815260040161043590613170565b82156105145761051486868686610aae565b600260655414156107ec5760405162461bcd60e51b815260040161043590613139565b6002606555609b5460ff16156108145760405162461bcd60e51b8152600401610435906131ce565b806108315760405162461bcd60e51b8152600401610435906131a0565b61066f85858585856116be565b600260655414156108615760405162461bcd60e51b815260040161043590613139565b600260655561087082826113d3565b610878610d65565b50506001606555565b600054610100900460ff16158080156108a15750600054600160ff909116105b806108bb5750303b1580156108bb575060005460ff166001145b61091e5760405162461bcd60e51b815260206004820152602e60248201527f496e697469616c697a61626c653a20636f6e747261637420697320616c72656160448201526d191e481a5b9a5d1a585b1a5e995960921b6064820152608401610435565b6000805460ff191660011790558015610941576000805461ff0019166101001790555b6109496123b6565b6109516123e5565b61095b8585610e6f565b61096483611e2b565b61096d82611d42565b6109776001611cb6565b80156109bd576000805461ff0019169055604051600181527f7f26b83ff96e1f2b6a682f133852f6798a09c465da95921460cefb38474024989060200160405180910390a15b5050505050565b600260655414156109e75760405162461bcd60e51b815260040161043590613139565b6002606555609b5460ff1615610a0f5760405162461bcd60e51b8152600401610435906131ce565b80610a2c5760405162461bcd60e51b8152600401610435906131a0565b61048e84848484610f48565b610a40610e15565b6001600160a01b038116610aa55760405162461bcd60e51b815260206004820152602660248201527f4f776e61626c653a206e6577206f776e657220697320746865207a65726f206160448201526564647265737360d01b6064820152608401610435565b6105c281611dd9565b83341015610afe5760405162461bcd60e51b815260206004820152601d60248201527f506179726f6c6c3a204e6f7420656e6f756768206d73672e76616c75650000006044820152606401610435565b6000610b08612414565b905060005b82811015610d5d576000848483818110610b2957610b296131fe565b9050602002810190610b3b9190613245565b610b49906040810190613265565b905011610b685760405162461bcd60e51b8152600401610435906132af565b816001600160a01b0316848483818110610b8457610b846131fe565b9050602002810190610b969190613245565b610ba4906040810190613265565b6000818110610bb557610bb56131fe565b9050602002016020810190610bca9190613011565b6001600160a01b031614610c205760405162461bcd60e51b815260206004820152601e60248201527f506179726f6c6c3a2053776170206e6f74206e617469766520746f6b656e00006044820152606401610435565b6000610cb1858584818110610c3757610c376131fe565b9050602002810190610c499190613245565b35868685818110610c5c57610c5c6131fe565b9050602002810190610c6e9190613245565b60200135878786818110610c8457610c846131fe565b9050602002810190610c969190613245565b610ca4906040810190613265565b338b63ffffffff16612496565b9050366000868685818110610cc857610cc86131fe565b9050602002810190610cda9190613245565b610ce8906040810190613265565b909250905060008051602061375c83398151915260008383610d0b6001826132dc565b818110610d1a57610d1a6131fe565b9050602002016020810190610d2f9190613011565b85604051610d3f939291906132f3565b60405180910390a15050508080610d559061322a565b915050610b0d565b505050505050565b4760018111156105c257604051600090339083908381818185875af1925050503d8060008114610db1576040519150601f19603f3d011682016040523d82523d6000602084013e610db6565b606091505b50509050806104b35760405162461bcd60e51b815260206004820152602560248201527f506179726f6c6c3a20455448206c6566744f766572207472616e736665722066604482015264185a5b195960da1b6064820152608401610435565b6033546001600160a01b031633146105e85760405162461bcd60e51b815260206004820181905260248201527f4f776e61626c653a2063616c6c6572206973206e6f7420746865206f776e65726044820152606401610435565b6001600160a01b038216610edb5760405162461bcd60e51b815260206004820152602d60248201527f506179726f6c6c3a2043616e6e6f74207365742061203020616464726573732060448201526c30b99039bbb0b82937baba32b960991b6064820152608401610435565b609b805460ff1916821515908117909155609780546001600160a01b0319166001600160a01b0385169081179091556040805191825260208201929092527fa93750f85ffdb877ffb446c32e8a1033c18e7746ffdd0b42d7edee2c98e7db3c910160405180910390a15050565b83341015610f985760405162461bcd60e51b815260206004820152601d60248201527f506179726f6c6c3a204e6f7420656e6f756768206d73672e76616c75650000006044820152606401610435565b609754604080516312a9293f60e21b815290516000926001600160a01b031691634aa4a4fc916004808301926020929190829003018186803b158015610fdd57600080fd5b505afa158015610ff1573d6000803e3d6000fd5b505050506040513d601f19601f820116820180604052508101906110159190613317565b905060005b82811015611363576000848483818110611036576110366131fe565b90506020028101906110489190613245565b611056906040810190613334565b9050116110755760405162461bcd60e51b8152600401610435906132af565b816001600160a01b03166111306014868685818110611096576110966131fe565b90506020028101906110a89190613245565b6110b6906040810190613334565b6110c19291506132dc565b8686858181106110d3576110d36131fe565b90506020028101906110e59190613245565b6110f3906040810190613334565b8080601f016020809104026020016040519081016040528093929190818152602001838380828437600092019190915250929392505061254f9050565b6001600160a01b0316146111865760405162461bcd60e51b815260206004820152601e60248201527f506179726f6c6c3a2053776170206e6f74206e617469766520746f6b656e00006044820152606401610435565b6097546000906001600160a01b031663f28c04988686858181106111ac576111ac6131fe565b90506020028101906111be9190613245565b602001356040518060a001604052808989888181106111df576111df6131fe565b90506020028101906111f19190613245565b6111ff906040810190613334565b8080601f01602080910402602001604051908101604052809392919081815260200183838082843760009201919091525050509082525033602082015263ffffffff8b16604082015260600189898881811061125d5761125d6131fe565b905060200281019061126f9190613245565b358152602001898988818110611287576112876131fe565b90506020028101906112999190613245565b602001358152506040518363ffffffff1660e01b81526004016112bc91906133ab565b6020604051808303818588803b1580156112d557600080fd5b505af11580156112e9573d6000803e3d6000fd5b50505050506040513d601f19601f8201168201806040525081019061130e919061341a565b905060008051602061375c833981519152600061133860008888878181106110d3576110d36131fe565b83604051611348939291906132f3565b60405180910390a1508061135b8161322a565b91505061101a565b50609760009054906101000a90046001600160a01b03166001600160a01b03166312210e8a6040518163ffffffff1660e01b8152600401600060405180830381600087803b1580156113b457600080fd5b505af11580156113c8573d6000803e3d6000fd5b505050505050505050565b60005b818110156116b95760008383838181106113f2576113f26131fe565b90506020028101906114049190613245565b611412906040810190613265565b9050116114615760405162461bcd60e51b815260206004820152601f60248201527f506179726f6c6c3a204e6f20616d6f756e747320746f207472616e73666572006044820152606401610435565b828282818110611473576114736131fe565b90506020028101906114859190613245565b611493906020810190613265565b90508383838181106114a7576114a76131fe565b90506020028101906114b99190613245565b6114c7906040810190613265565b9050146115245760405162461bcd60e51b815260206004820152602560248201527f506179726f6c6c3a20417272617973206d75737420686176652073616d65206c6044820152640cadccee8d60db1b6064820152608401610435565b6000838383818110611538576115386131fe565b905060200281019061154a9190613245565b611558906020810190613011565b6001600160a01b0316146116095761160483838381811061157b5761157b6131fe565b905060200281019061158d9190613245565b61159b906020810190613011565b8484848181106115ad576115ad6131fe565b90506020028101906115bf9190613245565b6115cd906020810190613265565b8686868181106115df576115df6131fe565b90506020028101906115f19190613245565b6115ff906040810190613265565b612603565b6116a7565b6116a783838381811061161e5761161e6131fe565b90506020028101906116309190613245565b61163e906020810190613011565b848484818110611650576116506131fe565b90506020028101906116629190613245565b611670906020810190613265565b868686818110611682576116826131fe565b90506020028101906116949190613245565b6116a2906040810190613265565b6127b6565b806116b18161322a565b9150506113d6565b505050565b6116ca85333087612a89565b609754604080516312a9293f60e21b815290516000926001600160a01b031691634aa4a4fc916004808301926020929190829003018186803b15801561170f57600080fd5b505afa158015611723573d6000803e3d6000fd5b505050506040513d601f19601f820116820180604052508101906117479190613317565b90506000805b83811015611c1e576000858583818110611769576117696131fe565b905060200281019061177b9190613245565b611789906040810190613334565b9050116117a85760405162461bcd60e51b8152600401610435906132af565b876001600160a01b031661180660148787858181106117c9576117c96131fe565b90506020028101906117db9190613245565b6117e9906040810190613334565b6117f49291506132dc565b8787858181106110d3576110d36131fe565b6001600160a01b03161461185c5760405162461bcd60e51b815260206004820152601e60248201527f506179726f6c6c3a2053776170206e6f7420746f6b656e206f726967696e00006044820152606401610435565b600061187560008787858181106110d3576110d36131fe565b9050836001600160a01b0316816001600160a01b03161415611a7d576097546040805160a081019091526001600160a01b039091169063f28c049890808989878181106118c4576118c46131fe565b90506020028101906118d69190613245565b6118e4906040810190613334565b8080601f01602080910402602001604051908101604052809392919081815260200183838082843760009201919091525050509082525030602082015263ffffffff8b166040820152606001898987818110611942576119426131fe565b90506020028101906119549190613245565b35815260200189898781811061196c5761196c6131fe565b905060200281019061197e9190613245565b602001358152506040518263ffffffff1660e01b81526004016119a191906133ab565b602060405180830381600087803b1580156119bb57600080fd5b505af11580156119cf573d6000803e3d6000fd5b505050506040513d601f19601f820116820180604052508101906119f3919061341a565b9250836001600160a01b0316632e1a7d4d878785818110611a1657611a166131fe565b9050602002810190611a289190613245565b60405160e083901b6001600160e01b031916815290356004820152602401600060405180830381600087803b158015611a6057600080fd5b505af1158015611a74573d6000803e3d6000fd5b50505050611be2565b6097546040805160a081019091526001600160a01b039091169063f28c04989080898987818110611ab057611ab06131fe565b9050602002810190611ac29190613245565b611ad0906040810190613334565b8080601f01602080910402602001604051908101604052809392919081815260200183838082843760009201919091525050509082525033602082015263ffffffff8b166040820152606001898987818110611b2e57611b2e6131fe565b9050602002810190611b409190613245565b358152602001898987818110611b5857611b586131fe565b9050602002810190611b6a9190613245565b602001358152506040518263ffffffff1660e01b8152600401611b8d91906133ab565b602060405180830381600087803b158015611ba757600080fd5b505af1158015611bbb573d6000803e3d6000fd5b505050506040513d601f19601f82011682018060405250810190611bdf919061341a565b92505b60008051602061375c833981519152898285604051611c03939291906132f3565b60405180910390a15080611c168161322a565b91505061174d565b506040516370a0823160e01b81523060048201526000906001600160a01b038916906370a082319060240160206040518083038186803b158015611c6157600080fd5b505afa158015611c75573d6000803e3d6000fd5b505050506040513d601f19601f82011682018060405250810190611c99919061341a565b90508015611cac57611cac883383612b8f565b5050505050505050565b60008111611d065760405162461bcd60e51b815260206004820152601b60248201527f506179726f6c6c3a2056657273696f6e2063616e2774206265203000000000006044820152606401610435565b609a8190556040518181527fd559f56ba9b2c69da3765a6d0208c7f7f352ade55a3be7fb9589ba50aa4ce5f3906020015b60405180910390a150565b666a94d74f4300008110611da45760405162461bcd60e51b815260206004820152602360248201527f506179726f6c6c3a204665652073686f756c64206265206c657373207468616e60448201526220332560e81b6064820152608401610435565b60998190556040518181527f6bbc57480a46553fa4d156ce702beef5f3ad66303b0ed1a5d4cb44966c6584c390602001611d37565b603380546001600160a01b038381166001600160a01b0319831681179093556040519116919082907f8be0079c531659141344cd1fd0a4f28419497f9722a3daafe3b4186f6b6457e090600090a35050565b6001600160a01b038116611e815760405162461bcd60e51b815260206004820152601f60248201527f506179726f6c6c3a2046656520616464726573732063616e27742062652030006044820152606401610435565b609880546001600160a01b0319166001600160a01b0383169081179091556040519081527fd1e93c69f2847f79bfa4d71704aaa84a581729b4b1706d922ee42ba1848a45c990602001611d37565b611edb85333087612a89565b6000804661a4ec14158015611ef257504661aef314155b15611f0257611eff612414565b90505b60005b83811015611c1e576000858583818110611f2157611f216131fe565b9050602002810190611f339190613245565b611f41906040810190613265565b905011611f605760405162461bcd60e51b8152600401610435906132af565b876001600160a01b0316858583818110611f7c57611f7c6131fe565b9050602002810190611f8e9190613245565b611f9c906040810190613265565b6000818110611fad57611fad6131fe565b9050602002016020810190611fc29190613011565b6001600160a01b0316146120185760405162461bcd60e51b815260206004820152601e60248201527f506179726f6c6c3a2053776170206e6f7420746f6b656e206f726967696e00006044820152606401610435565b816001600160a01b0316858583818110612034576120346131fe565b90506020028101906120469190613245565b612054906040810190613265565b6001888886818110612068576120686131fe565b905060200281019061207a9190613245565b612088906040810190613265565b6120939291506132dc565b8181106120a2576120a26131fe565b90506020020160208101906120b79190613011565b6001600160a01b0316141561215c576121558585838181106120db576120db6131fe565b90506020028101906120ed9190613245565b35868684818110612100576121006131fe565b90506020028101906121129190613245565b60200135878785818110612128576121286131fe565b905060200281019061213a9190613245565b612148906040810190613265565b308b63ffffffff16612c88565b92506121ee565b6121eb858583818110612171576121716131fe565b90506020028101906121839190613245565b35868684818110612196576121966131fe565b90506020028101906121a89190613245565b602001358787858181106121be576121be6131fe565b90506020028101906121d09190613245565b6121de906040810190613265565b338b63ffffffff16612d1b565b92505b60008051602061375c83398151915288868684818110612210576122106131fe565b90506020028101906122229190613245565b612230906040810190613265565b6001898987818110612244576122446131fe565b90506020028101906122569190613245565b612264906040810190613265565b61226f9291506132dc565b81811061227e5761227e6131fe565b90506020020160208101906122939190613011565b856040516122a3939291906132f3565b60405180910390a1806122b58161322a565b915050611f05565b604080516001600160a01b038481166024830152604480830185905283518084039091018152606490920183526020820180516001600160e01b031663095ea7b360e01b17905291516000928392908716916123199190613433565b6000604051808303816000865af19150503d8060008114612356576040519150601f19603f3d011682016040523d82523d6000602084013e61235b565b606091505b50915091508180156123855750805115806123855750808060200190518101906123859190613445565b6109bd5760405162461bcd60e51b8152602060048201526002602482015261534160f01b6044820152606401610435565b600054610100900460ff166123dd5760405162461bcd60e51b815260040161043590613462565b6105e8612d58565b600054610100900460ff1661240c5760405162461bcd60e51b815260040161043590613462565b6105e8612d86565b609754604080516315ab88c960e31b815290516000926001600160a01b03169163ad5c4648916004808301926020929190829003018186803b15801561245957600080fd5b505afa15801561246d573d6000803e3d6000fd5b505050506040513d601f19601f820116820180604052508101906124919190613317565b905090565b609754604051631788072560e11b81526000916001600160a01b031690632f100e4a9088906124d3908b908a908a908a908a908a906004016134f6565b6000604051808303818588803b1580156124ec57600080fd5b505af1158015612500573d6000803e3d6000fd5b50505050506040513d6000823e601f3d908101601f191682016040526125299190810190613551565b60008151811061253b5761253b6131fe565b602002602001015190509695505050505050565b60008161255d81601461360f565b10156125a05760405162461bcd60e51b8152602060048201526012602482015271746f416464726573735f6f766572666c6f7760701b6044820152606401610435565b6125ab82601461360f565b835110156125f35760405162461bcd60e51b8152602060048201526015602482015274746f416464726573735f6f75744f66426f756e647360581b6044820152606401610435565b500160200151600160601b900490565b60008060005b858110156126e3576000878783818110612625576126256131fe565b905060200201602081019061263a9190613011565b6001600160a01b031614156126615760405162461bcd60e51b815260040161043590613627565b848482818110612673576126736131fe565b9050602002013582612685919061360f565b91506126d1883389898581811061269e5761269e6131fe565b90506020020160208101906126b39190613011565b8888868181106126c5576126c56131fe565b90506020020135612a89565b806126db8161322a565b915050612609565b507f61296616dea919da05ed0d5608a730a6f4f39d0703b9d8819da47e233c9a92d9878787878760405161271b95949392919061366a565b60405180910390a1670de0b6b3a76400006099548261273a91906136ce565b61274491906136ed565b915081156127665760985461276690889033906001600160a01b031685612a89565b6098546040517f945458c62aa39df7a4d87d6c4dbaaab7de5d870c9a1fe40e2b7571d84f158a8d916127a5918a916001600160a01b03169086906132f3565b60405180910390a150505050505050565b60008060005b8581101561292e5760008787838181106127d8576127d86131fe565b90506020020160208101906127ed9190613011565b6001600160a01b031614156128145760405162461bcd60e51b815260040161043590613627565b848482818110612826576128266131fe565b9050602002013582612838919061360f565b9150600087878381811061284e5761284e6131fe565b90506020020160208101906128639190613011565b6001600160a01b031686868481811061287e5761287e6131fe565b9050602002013560405160006040518083038185875af1925050503d80600081146128c5576040519150601f19603f3d011682016040523d82523d6000602084013e6128ca565b606091505b505090508061291b5760405162461bcd60e51b815260206004820152601c60248201527f506179726f6c6c3a20455448207472616e73666572206661696c6564000000006044820152606401610435565b50806129268161322a565b9150506127bc565b507f61296616dea919da05ed0d5608a730a6f4f39d0703b9d8819da47e233c9a92d9878787878760405161296695949392919061366a565b60405180910390a1670de0b6b3a76400006099548261298591906136ce565b61298f91906136ed565b91508115612766576129a1828261360f565b6098546040519192506000916001600160a01b039091169084908381818185875af1925050503d80600081146129f3576040519150601f19603f3d011682016040523d82523d6000602084013e6129f8565b606091505b5050905080612a495760405162461bcd60e51b815260206004820181905260248201527f506179726f6c6c3a2045544820666565207472616e73666572206661696c65646044820152606401610435565b506098546040517f945458c62aa39df7a4d87d6c4dbaaab7de5d870c9a1fe40e2b7571d84f158a8d916127a5918a916001600160a01b03169086906132f3565b600080856001600160a01b03166323b872dd60e01b868686604051602401612ab3939291906132f3565b60408051601f198184030181529181526020820180516001600160e01b03166001600160e01b0319909416939093179092529051612af19190613433565b6000604051808303816000865af19150503d8060008114612b2e576040519150601f19603f3d011682016040523d82523d6000602084013e612b33565b606091505b5091509150818015612b5d575080511580612b5d575080806020019051810190612b5d9190613445565b610d5d5760405162461bcd60e51b815260206004820152600360248201526229aa2360e91b6044820152606401610435565b604080516001600160a01b038481166024830152604480830185905283518084039091018152606490920183526020820180516001600160e01b031663a9059cbb60e01b1790529151600092839290871691612beb9190613433565b6000604051808303816000865af19150503d8060008114612c28576040519150601f19603f3d011682016040523d82523d6000602084013e612c2d565b606091505b5091509150818015612c57575080511580612c57575080806020019051810190612c579190613445565b6109bd5760405162461bcd60e51b815260206004820152600260248201526114d560f21b6044820152606401610435565b60975460405163962efddb60e01b81526000916001600160a01b03169063962efddb90612cc5908a908a908a908a908a908a908a9060040161370f565b600060405180830381600087803b158015612cdf57600080fd5b505af1158015612cf3573d6000803e3d6000fd5b505050506040513d6000823e601f3d908101601f191682016040526125299190810190613551565b609754604051635190b37760e11b81526000916001600160a01b03169063a32166ee90612cc5908a908a908a908a908a908a908a9060040161370f565b600054610100900460ff16612d7f5760405162461bcd60e51b815260040161043590613462565b6001606555565b600054610100900460ff16612dad5760405162461bcd60e51b815260040161043590613462565b6105e833611dd9565b803563ffffffff81168114612dca57600080fd5b919050565b60008083601f840112612de157600080fd5b50813567ffffffffffffffff811115612df957600080fd5b6020830191508360208260051b8501011115612e1457600080fd5b9250929050565b60008060008060608587031215612e3157600080fd5b84359350612e4160208601612db6565b9250604085013567ffffffffffffffff811115612e5d57600080fd5b612e6987828801612dcf565b95989497509550505050565b6001600160a01b03811681146105c257600080fd5b80151581146105c257600080fd5b60008060408385031215612eab57600080fd5b8235612eb681612e75565b91506020830135612ec681612e8a565b809150509250929050565b60008060008060008060808789031215612eea57600080fd5b86359550612efa60208801612db6565b9450604087013567ffffffffffffffff80821115612f1757600080fd5b612f238a838b01612dcf565b90965094506060890135915080821115612f3c57600080fd5b50612f4989828a01612dcf565b979a9699509497509295939492505050565b600080600080600080600060a0888a031215612f7657600080fd5b8735612f8181612e75565b965060208801359550612f9660408901612db6565b9450606088013567ffffffffffffffff80821115612fb357600080fd5b612fbf8b838c01612dcf565b909650945060808a0135915080821115612fd857600080fd5b50612fe58a828b01612dcf565b989b979a50959850939692959293505050565b60006020828403121561300a57600080fd5b5035919050565b60006020828403121561302357600080fd5b813561302e81612e75565b9392505050565b60008060008060006080868803121561304d57600080fd5b853561305881612e75565b94506020860135935061306d60408701612db6565b9250606086013567ffffffffffffffff81111561308957600080fd5b61309588828901612dcf565b969995985093965092949392505050565b600080602083850312156130b957600080fd5b823567ffffffffffffffff8111156130d057600080fd5b6130dc85828601612dcf565b90969095509350505050565b600080600080608085870312156130fe57600080fd5b843561310981612e75565b9350602085013561311981612e8a565b9250604085013561312981612e75565b9396929550929360600135925050565b6020808252601f908201527f5265656e7472616e637947756172643a207265656e7472616e742063616c6c00604082015260600190565b6020808252601690820152752830bcb937b6361d102737ba103ab734b9bbb0b82b1960511b604082015260600190565b602080825260149082015273506179726f6c6c3a20456d70747920737761707360601b604082015260600190565b602080825260169082015275506179726f6c6c3a204e6f7420756e6973776170563360501b604082015260600190565b634e487b7160e01b600052603260045260246000fd5b634e487b7160e01b600052601160045260246000fd5b600060001982141561323e5761323e613214565b5060010190565b60008235605e1983360301811261325b57600080fd5b9190910192915050565b6000808335601e1984360301811261327c57600080fd5b83018035915067ffffffffffffffff82111561329757600080fd5b6020019150600581901b3603821315612e1457600080fd5b6020808252601390820152720a0c2f2e4ded8d874408adae0e8f240e0c2e8d606b1b604082015260600190565b6000828210156132ee576132ee613214565b500390565b6001600160a01b039384168152919092166020820152604081019190915260600190565b60006020828403121561332957600080fd5b815161302e81612e75565b6000808335601e1984360301811261334b57600080fd5b83018035915067ffffffffffffffff82111561336657600080fd5b602001915036819003821315612e1457600080fd5b60005b8381101561339657818101518382015260200161337e565b838111156133a5576000848401525b50505050565b602081526000825160a0602084015280518060c08501526133d38160e086016020850161337b565b60018060a01b0360208601511660408501526040850151606085015260608501516080850152608085015160a085015260e0601f19601f8301168501019250505092915050565b60006020828403121561342c57600080fd5b5051919050565b6000825161325b81846020870161337b565b60006020828403121561345757600080fd5b815161302e81612e8a565b6020808252602b908201527f496e697469616c697a61626c653a20636f6e7472616374206973206e6f74206960408201526a6e697469616c697a696e6760a81b606082015260800190565b8183526000602080850194508260005b858110156134eb5781356134d081612e75565b6001600160a01b0316875295820195908201906001016134bd565b509495945050505050565b86815260a06020820152600061351060a0830187896134ad565b6001600160a01b03958616604084015260608301949094525092166080909201919091529392505050565b634e487b7160e01b600052604160045260246000fd5b6000602080838503121561356457600080fd5b825167ffffffffffffffff8082111561357c57600080fd5b818501915085601f83011261359057600080fd5b8151818111156135a2576135a261353b565b8060051b604051601f19603f830116810181811085821117156135c7576135c761353b565b6040529182528482019250838101850191888311156135e557600080fd5b938501935b82851015613603578451845293850193928501926135ea565b98975050505050505050565b6000821982111561362257613622613214565b500190565b60208082526023908201527f506179726f6c6c3a2043616e6e6f742073656e6420746f20612030206164647260408201526265737360e81b606082015260800190565b6001600160a01b038616815260606020820181905260009061368f90830186886134ad565b82810360408401528381526001600160fb1b038411156136ae57600080fd5b8360051b8086602084013760009101602001908152979650505050505050565b60008160001904831182151516156136e8576136e8613214565b500290565b60008261370a57634e487b7160e01b600052601260045260246000fd5b500490565b87815286602082015260c06040820152600061372f60c0830187896134ad565b6001600160a01b039586166060840152608083019490945250921660a09092019190915294935050505056fe2d8d9d7f49599a20c9e475f932138bdf56ab8ddbcd627a642030d3d788012b56a264697066735822122074045fed0bf3a7b1293cb45a47c9630edf92849f3d94f03e87200bc233b1eacb64736f6c63430008090033",
  "devdoc": {
    "author": "Think and Dev Team",
    "kind": "dev",
    "methods": {
      "approveTokens(address[])": {
        "params": {
          "_erc20TokenOrigin": "ERC20 token address to approve."
        }
      },
      "initialize(address,bool,address,uint256)": {
        "params": {
          "_isSwapV2": "Boolean to specify the version of the router; true means v2, false means v3.",
          "_swapRouter": "Router address to execute swaps."
        }
      },
      "owner()": {
        "details": "Returns the address of the current owner."
      },
      "performMultiPayment((address,address[],uint256[])[])": {
        "params": {
          "_payments": "The array of the Payment data."
        }
      },
      "performSwapV2(address,uint256,uint32,(uint256,uint256,address[])[])": {
        "params": {
          "_deadline": "The unix timestamp after a swap will fail.",
          "_erc20TokenOrigin": "ERC20 token address to swap for another.",
          "_swaps": "The array of the Swaps data.",
          "_totalAmountToSwap": "Total amount of erc20TokenOrigin to spend in swaps."
        }
      },
      "performSwapV2AndPayment(address,uint256,uint32,(uint256,uint256,address[])[],(address,address[],uint256[])[])": {
        "params": {
          "_deadline": "The unix timestamp after a swap will fail.",
          "_erc20TokenOrigin": "ERC20 token address to swap for another.",
          "_payments": "The array of the Payment data.",
          "_swaps": "The array of the Swaps data.",
          "_totalAmountToSwap": "Total amount of erc20TokenOrigin to spend in swaps."
        }
      },
      "performSwapV2AndPaymentETH(uint256,uint32,(uint256,uint256,address[])[],(address,address[],uint256[])[])": {
        "params": {
          "_deadline": "The unix timestamp after a swap will fail.",
          "_payments": "The array of the Payment data.",
          "_swaps": "The array of the Swaps data.",
          "_totalAmountToSwap": "Total amount of erc20TokenOrigin to spend in swaps."
        }
      },
      "performSwapV2ETH(uint256,uint32,(uint256,uint256,address[])[])": {
        "params": {
          "_deadline": "The unix timestamp after a swap will fail.",
          "_swaps": "The array of the Swaps data.",
          "_totalAmountToSwap": "Total amount of erc20TokenOrigin to spend in swaps."
        }
      },
      "performSwapV3(address,uint256,uint32,(uint256,uint256,bytes)[])": {
        "params": {
          "_deadline": "The unix timestamp after a swap will fail.",
          "_erc20TokenOrigin": "ERC20 token address to swap for another.",
          "_swaps": "The array of the Swaps data.",
          "_totalAmountToSwap": "Total amount of erc20TokenOrigin to spend in swaps."
        }
      },
      "performSwapV3AndPayment(address,uint256,uint32,(uint256,uint256,bytes)[],(address,address[],uint256[])[])": {
        "params": {
          "_deadline": "The unix timestamp after a swap will fail.",
          "_erc20TokenOrigin": "ERC20 token address to swap for another.",
          "_payments": "The array of the Payment data.",
          "_swaps": "The array of the Swaps data.",
          "_totalAmountToSwap": "Total amount of erc20TokenOrigin to spend in swaps."
        }
      },
      "performSwapV3AndPaymentETH(uint256,uint32,(uint256,uint256,bytes)[],(address,address[],uint256[])[])": {
        "params": {
          "_deadline": "The unix timestamp after a swap will fail.",
          "_payments": "The array of the Payment data.",
          "_swaps": "The array of the Swaps data.",
          "_totalAmountToSwap": "Total amount of erc20TokenOrigin to spend in swaps."
        }
      },
      "performSwapV3ETH(uint256,uint32,(uint256,uint256,bytes)[])": {
        "params": {
          "_deadline": "The unix timestamp after a swap will fail.",
          "_swaps": "The array of the Swaps data.",
          "_totalAmountToSwap": "Total amount of erc20TokenOrigin to spend in swaps."
        }
      },
      "renounceOwnership()": {
        "details": "Leaves the contract without owner. It will not be possible to call `onlyOwner` functions anymore. Can only be called by the current owner. NOTE: Renouncing ownership will leave the contract without an owner, thereby removing any functionality that is only available to the owner."
      },
      "setFee(uint256)": {
        "params": {
          "_fee": "Percentage that will be charged."
        }
      },
      "setFeeAddress(address)": {
        "params": {
          "_feeAddress": "Address that will receive the fees."
        }
      },
      "setSwapRouter(address,bool)": {
        "params": {
          "_isSwapV2": "Boolean to specify the version of the router; true means v2, false means v3.",
          "_swapRouter": "Router address to execute swaps."
        }
      },
      "transferOwnership(address)": {
        "details": "Transfers ownership of the contract to a new account (`newOwner`). Can only be called by the current owner."
      }
    },
    "title": "Think and Dev Paymentbox",
    "version": 1
  },
  "userdoc": {
    "kind": "user",
    "methods": {
      "approveTokens(address[])": {
        "notice": "Approves the following token to be used on swapRouter"
      },
      "isSwapV2()": {
        "notice": "Returns if the contract is working with a v2 Uniswap protocol; true means v2, false means v3."
      },
      "performMultiPayment((address,address[],uint256[])[])": {
        "notice": "Perform the payments to the given addresses and amounts, public method.Available to send ETH or ERC20."
      },
      "performSwapV2(address,uint256,uint32,(uint256,uint256,address[])[])": {
        "notice": "Perform the swap with Uniswap V2 to the given token addresses and amounts.Swap ERC20 to ERC20."
      },
      "performSwapV2AndPayment(address,uint256,uint32,(uint256,uint256,address[])[],(address,address[],uint256[])[])": {
        "notice": "Perform the swap with Uniswap V2 and the transfer to the given addresses.Swap ERC20 to ERC20.Available to send ETH or ERC20."
      },
      "performSwapV2AndPaymentETH(uint256,uint32,(uint256,uint256,address[])[],(address,address[],uint256[])[])": {
        "notice": "Perform the swap with Uniswap V2 and the transfer to the given addresses.Swap ETH to ERC20.Available to send ETH or ERC20."
      },
      "performSwapV2ETH(uint256,uint32,(uint256,uint256,address[])[])": {
        "notice": "Perform the swap with Uniswap V2 to the given token addresses and amounts.Swap ETH to ERC20."
      },
      "performSwapV3(address,uint256,uint32,(uint256,uint256,bytes)[])": {
        "notice": "Perform the swap with Uniswap V3 to the given token addresses and amounts.Swap ERC20 to ERC20."
      },
      "performSwapV3AndPayment(address,uint256,uint32,(uint256,uint256,bytes)[],(address,address[],uint256[])[])": {
        "notice": "Perform the swap with Uniswap V3 and the transfer to the given addresses.Swap ERC20 to ERC20.Available to send ETH or ERC20."
      },
      "performSwapV3AndPaymentETH(uint256,uint32,(uint256,uint256,bytes)[],(address,address[],uint256[])[])": {
        "notice": "Perform the swap with Uniswap V3 and the transfer to the given addresses.Swap ETH to ERC20.Available to send ETH or ERC20."
      },
      "performSwapV3ETH(uint256,uint32,(uint256,uint256,bytes)[])": {
        "notice": "Perform the swap with Uniswap V3 to the given token addresses and amounts.Swap ETH to ERC20."
      },
      "setFee(uint256)": {
        "notice": "Set the fee that will be charged, fees are divided by mantissa"
      },
      "setFeeAddress(address)": {
        "notice": "Set the address that will receive the fees."
      },
      "setSwapRouter(address,bool)": {
        "notice": "Set the SwapRouter and the version to be used."
      },
      "swapRouter()": {
        "notice": "Returns the address of the Uniswap protocol router, it could be v2 or v3."
      }
    },
    "notice": "Swap and transfer multiple ERC20 pairs to multiple accounts in a single transaction. Use any router address of any DEX that uses Uniswap protocol v2 or v3 to make swaps.",
    "version": 1
  },
  "storageLayout": {
    "storage": [
      {
        "astId": 138,
        "contract": "contracts/PayrollIotex.sol:PayrollIotex",
        "label": "_initialized",
        "offset": 0,
        "slot": "0",
        "type": "t_uint8"
      },
      {
        "astId": 141,
        "contract": "contracts/PayrollIotex.sol:PayrollIotex",
        "label": "_initializing",
        "offset": 1,
        "slot": "0",
        "type": "t_bool"
      },
      {
        "astId": 625,
        "contract": "contracts/PayrollIotex.sol:PayrollIotex",
        "label": "__gap",
        "offset": 0,
        "slot": "1",
        "type": "t_array(t_uint256)50_storage"
      },
      {
        "astId": 10,
        "contract": "contracts/PayrollIotex.sol:PayrollIotex",
        "label": "_owner",
        "offset": 0,
        "slot": "51",
        "type": "t_address"
      },
      {
        "astId": 130,
        "contract": "contracts/PayrollIotex.sol:PayrollIotex",
        "label": "__gap",
        "offset": 0,
        "slot": "52",
        "type": "t_array(t_uint256)49_storage"
      },
      {
        "astId": 296,
        "contract": "contracts/PayrollIotex.sol:PayrollIotex",
        "label": "_status",
        "offset": 0,
        "slot": "101",
        "type": "t_uint256"
      },
      {
        "astId": 340,
        "contract": "contracts/PayrollIotex.sol:PayrollIotex",
        "label": "__gap",
        "offset": 0,
        "slot": "102",
        "type": "t_array(t_uint256)49_storage"
      },
      {
        "astId": 3405,
        "contract": "contracts/PayrollIotex.sol:PayrollIotex",
        "label": "swapRouter",
        "offset": 0,
        "slot": "151",
        "type": "t_address"
      },
      {
        "astId": 3407,
        "contract": "contracts/PayrollIotex.sol:PayrollIotex",
        "label": "feeAddress",
        "offset": 0,
        "slot": "152",
        "type": "t_address"
      },
      {
        "astId": 3409,
        "contract": "contracts/PayrollIotex.sol:PayrollIotex",
        "label": "fee",
        "offset": 0,
        "slot": "153",
        "type": "t_uint256"
      },
      {
        "astId": 3414,
        "contract": "contracts/PayrollIotex.sol:PayrollIotex",
        "label": "version",
        "offset": 0,
        "slot": "154",
        "type": "t_uint256"
      },
      {
        "astId": 3417,
        "contract": "contracts/PayrollIotex.sol:PayrollIotex",
        "label": "isSwapV2",
        "offset": 0,
        "slot": "155",
        "type": "t_bool"
      }
    ],
    "types": {
      "t_address": {
        "encoding": "inplace",
        "label": "address",
        "numberOfBytes": "20"
      },
      "t_array(t_uint256)49_storage": {
        "base": "t_uint256",
        "encoding": "inplace",
        "label": "uint256[49]",
        "numberOfBytes": "1568"
      },
      "t_array(t_uint256)50_storage": {
        "base": "t_uint256",
        "encoding": "inplace",
        "label": "uint256[50]",
        "numberOfBytes": "1600"
      },
      "t_bool": {
        "encoding": "inplace",
        "label": "bool",
        "numberOfBytes": "1"
      },
      "t_uint256": {
        "encoding": "inplace",
        "label": "uint256",
        "numberOfBytes": "32"
      },
      "t_uint8": {
        "encoding": "inplace",
        "label": "uint8",
        "numberOfBytes": "1"
      }
    }
  }
}