{
  "address": "0x8cAdae44F6bE306a025C11EbD5Da28d746a159f1",
  "abi": [
    {
      "anonymous": false,
      "inputs": [
        {
          "indexed": false,
          "internalType": "address",
          "name": "_erc20TokenAddress",
          "type": "address"
        },
        {
          "indexed": false,
          "internalType": "address[]",
          "name": "_receivers",
          "type": "address[]"
        },
        {
          "indexed": false,
          "internalType": "uint256[]",
          "name": "_amountsToTransfer",
          "type": "uint256[]"
        }
      ],
      "name": "BatchPayment",
      "type": "event"
    },
    {
      "anonymous": false,
      "inputs": [
        {
          "indexed": false,
          "internalType": "address",
          "name": "_feeAddress",
          "type": "address"
        }
      ],
      "name": "FeeAddressChanged",
      "type": "event"
    },
    {
      "anonymous": false,
      "inputs": [
        {
          "indexed": false,
          "internalType": "uint256",
          "name": "_fee",
          "type": "uint256"
        }
      ],
      "name": "FeeChanged",
      "type": "event"
    },
    {
      "anonymous": false,
      "inputs": [
        {
          "indexed": false,
          "internalType": "address",
          "name": "_erc20TokenAddress",
          "type": "address"
        },
        {
          "indexed": false,
          "internalType": "address",
          "name": "_feeAddress",
          "type": "address"
        },
        {
          "indexed": false,
          "internalType": "uint256",
          "name": "_fees",
          "type": "uint256"
        }
      ],
      "name": "FeeCharged",
      "type": "event"
    },
    {
      "anonymous": false,
      "inputs": [
        {
          "indexed": false,
          "internalType": "uint8",
          "name": "version",
          "type": "uint8"
        }
      ],
      "name": "Initialized",
      "type": "event"
    },
    {
      "anonymous": false,
      "inputs": [
        {
          "indexed": true,
          "internalType": "address",
          "name": "previousOwner",
          "type": "address"
        },
        {
          "indexed": true,
          "internalType": "address",
          "name": "newOwner",
          "type": "address"
        }
      ],
      "name": "OwnershipTransferred",
      "type": "event"
    },
    {
      "anonymous": false,
      "inputs": [
        {
          "indexed": false,
          "internalType": "address",
          "name": "_tokenIn",
          "type": "address"
        },
        {
          "indexed": false,
          "internalType": "address",
          "name": "_tokenOut",
          "type": "address"
        },
        {
          "indexed": false,
          "internalType": "uint256",
          "name": "_amountReceived",
          "type": "uint256"
        }
      ],
      "name": "SwapFinished",
      "type": "event"
    },
    {
      "anonymous": false,
      "inputs": [
        {
          "indexed": false,
          "internalType": "address",
          "name": "_swapRouter",
          "type": "address"
        },
        {
          "indexed": false,
          "internalType": "bool",
          "name": "_isSwapV2",
          "type": "bool"
        }
      ],
      "name": "SwapRouterChanged",
      "type": "event"
    },
    {
      "anonymous": false,
      "inputs": [
        {
          "indexed": false,
          "internalType": "uint256",
          "name": "_version",
          "type": "uint256"
        }
      ],
      "name": "UpdatedVersion",
      "type": "event"
    },
    {
      "inputs": [],
      "name": "MANTISSA",
      "outputs": [
        {
          "internalType": "uint256",
          "name": "",
          "type": "uint256"
        }
      ],
      "stateMutability": "view",
      "type": "function"
    },
    {
      "inputs": [
        {
          "internalType": "address[]",
          "name": "_erc20TokenOrigin",
          "type": "address[]"
        }
      ],
      "name": "approveTokens",
      "outputs": [],
      "stateMutability": "nonpayable",
      "type": "function"
    },
    {
      "inputs": [],
      "name": "fee",
      "outputs": [
        {
          "internalType": "uint256",
          "name": "",
          "type": "uint256"
        }
      ],
      "stateMutability": "view",
      "type": "function"
    },
    {
      "inputs": [],
      "name": "feeAddress",
      "outputs": [
        {
          "internalType": "address",
          "name": "",
          "type": "address"
        }
      ],
      "stateMutability": "view",
      "type": "function"
    },
    {
      "inputs": [
        {
          "internalType": "address",
          "name": "_swapRouter",
          "type": "address"
        },
        {
          "internalType": "bool",
          "name": "_isSwapV2",
          "type": "bool"
        },
        {
          "internalType": "address",
          "name": "_feeAddress",
          "type": "address"
        },
        {
          "internalType": "uint256",
          "name": "_fee",
          "type": "uint256"
        }
      ],
      "name": "initialize",
      "outputs": [],
      "stateMutability": "nonpayable",
      "type": "function"
    },
    {
      "inputs": [],
      "name": "isSwapV2",
      "outputs": [
        {
          "internalType": "bool",
          "name": "",
          "type": "bool"
        }
      ],
      "stateMutability": "view",
      "type": "function"
    },
    {
      "inputs": [],
      "name": "owner",
      "outputs": [
        {
          "internalType": "address",
          "name": "",
          "type": "address"
        }
      ],
      "stateMutability": "view",
      "type": "function"
    },
    {
      "inputs": [
        {
          "components": [
            {
              "internalType": "address",
              "name": "token",
              "type": "address"
            },
            {
              "internalType": "address[]",
              "name": "receivers",
              "type": "address[]"
            },
            {
              "internalType": "uint256[]",
              "name": "amountsToTransfer",
              "type": "uint256[]"
            }
          ],
          "internalType": "struct Payroll.Payment[]",
          "name": "_payments",
          "type": "tuple[]"
        }
      ],
      "name": "performMultiPayment",
      "outputs": [],
      "stateMutability": "payable",
      "type": "function"
    },
    {
      "inputs": [
        {
          "internalType": "address",
          "name": "_erc20TokenOrigin",
          "type": "address"
        },
        {
          "internalType": "uint256",
          "name": "_totalAmountToSwap",
          "type": "uint256"
        },
        {
          "internalType": "uint32",
          "name": "_deadline",
          "type": "uint32"
        },
        {
          "components": [
            {
              "internalType": "uint256",
              "name": "amountOut",
              "type": "uint256"
            },
            {
              "internalType": "uint256",
              "name": "amountInMax",
              "type": "uint256"
            },
            {
              "internalType": "address[]",
              "name": "path",
              "type": "address[]"
            }
          ],
          "internalType": "struct Payroll.SwapV2[]",
          "name": "_swaps",
          "type": "tuple[]"
        }
      ],
      "name": "performSwapV2",
      "outputs": [
        {
          "internalType": "uint256",
          "name": "",
          "type": "uint256"
        }
      ],
      "stateMutability": "nonpayable",
      "type": "function"
    },
    {
      "inputs": [
        {
          "internalType": "address",
          "name": "_erc20TokenOrigin",
          "type": "address"
        },
        {
          "internalType": "uint256",
          "name": "_totalAmountToSwap",
          "type": "uint256"
        },
        {
          "internalType": "uint32",
          "name": "_deadline",
          "type": "uint32"
        },
        {
          "components": [
            {
              "internalType": "uint256",
              "name": "amountOut",
              "type": "uint256"
            },
            {
              "internalType": "uint256",
              "name": "amountInMax",
              "type": "uint256"
            },
            {
              "internalType": "address[]",
              "name": "path",
              "type": "address[]"
            }
          ],
          "internalType": "struct Payroll.SwapV2[]",
          "name": "_swaps",
          "type": "tuple[]"
        },
        {
          "components": [
            {
              "internalType": "address",
              "name": "token",
              "type": "address"
            },
            {
              "internalType": "address[]",
              "name": "receivers",
              "type": "address[]"
            },
            {
              "internalType": "uint256[]",
              "name": "amountsToTransfer",
              "type": "uint256[]"
            }
          ],
          "internalType": "struct Payroll.Payment[]",
          "name": "_payments",
          "type": "tuple[]"
        }
      ],
      "name": "performSwapV2AndPayment",
      "outputs": [],
      "stateMutability": "payable",
      "type": "function"
    },
    {
      "inputs": [
        {
          "internalType": "address",
          "name": "_erc20TokenOrigin",
          "type": "address"
        },
        {
          "internalType": "uint256",
          "name": "_totalAmountToSwap",
          "type": "uint256"
        },
        {
          "internalType": "uint32",
          "name": "_deadline",
          "type": "uint32"
        },
        {
          "components": [
            {
              "internalType": "uint256",
              "name": "amountOut",
              "type": "uint256"
            },
            {
              "internalType": "uint256",
              "name": "amountInMax",
              "type": "uint256"
            },
            {
              "internalType": "bytes",
              "name": "path",
              "type": "bytes"
            }
          ],
          "internalType": "struct Payroll.SwapV3[]",
          "name": "_swaps",
          "type": "tuple[]"
        }
      ],
      "name": "performSwapV3",
      "outputs": [
        {
          "internalType": "uint256",
          "name": "",
          "type": "uint256"
        }
      ],
      "stateMutability": "nonpayable",
      "type": "function"
    },
    {
      "inputs": [
        {
          "internalType": "address",
          "name": "_erc20TokenOrigin",
          "type": "address"
        },
        {
          "internalType": "uint256",
          "name": "_totalAmountToSwap",
          "type": "uint256"
        },
        {
          "internalType": "uint32",
          "name": "_deadline",
          "type": "uint32"
        },
        {
          "components": [
            {
              "internalType": "uint256",
              "name": "amountOut",
              "type": "uint256"
            },
            {
              "internalType": "uint256",
              "name": "amountInMax",
              "type": "uint256"
            },
            {
              "internalType": "bytes",
              "name": "path",
              "type": "bytes"
            }
          ],
          "internalType": "struct Payroll.SwapV3[]",
          "name": "_swaps",
          "type": "tuple[]"
        },
        {
          "components": [
            {
              "internalType": "address",
              "name": "token",
              "type": "address"
            },
            {
              "internalType": "address[]",
              "name": "receivers",
              "type": "address[]"
            },
            {
              "internalType": "uint256[]",
              "name": "amountsToTransfer",
              "type": "uint256[]"
            }
          ],
          "internalType": "struct Payroll.Payment[]",
          "name": "_payments",
          "type": "tuple[]"
        }
      ],
      "name": "performSwapV3AndPayment",
      "outputs": [],
      "stateMutability": "payable",
      "type": "function"
    },
    {
      "inputs": [],
      "name": "renounceOwnership",
      "outputs": [],
      "stateMutability": "nonpayable",
      "type": "function"
    },
    {
      "inputs": [
        {
          "internalType": "uint256",
          "name": "_fee",
          "type": "uint256"
        }
      ],
      "name": "setFee",
      "outputs": [],
      "stateMutability": "nonpayable",
      "type": "function"
    },
    {
      "inputs": [
        {
          "internalType": "address",
          "name": "_feeAddress",
          "type": "address"
        }
      ],
      "name": "setFeeAddress",
      "outputs": [],
      "stateMutability": "nonpayable",
      "type": "function"
    },
    {
      "inputs": [
        {
          "internalType": "address",
          "name": "_swapRouter",
          "type": "address"
        },
        {
          "internalType": "bool",
          "name": "_isSwapV2",
          "type": "bool"
        }
      ],
      "name": "setSwapRouter",
      "outputs": [],
      "stateMutability": "nonpayable",
      "type": "function"
    },
    {
      "inputs": [
        {
          "internalType": "uint256",
          "name": "_version",
          "type": "uint256"
        }
      ],
      "name": "setVersion",
      "outputs": [],
      "stateMutability": "nonpayable",
      "type": "function"
    },
    {
      "inputs": [],
      "name": "swapRouter",
      "outputs": [
        {
          "internalType": "address",
          "name": "",
          "type": "address"
        }
      ],
      "stateMutability": "view",
      "type": "function"
    },
    {
      "inputs": [
        {
          "internalType": "address",
          "name": "newOwner",
          "type": "address"
        }
      ],
      "name": "transferOwnership",
      "outputs": [],
      "stateMutability": "nonpayable",
      "type": "function"
    },
    {
      "inputs": [],
      "name": "version",
      "outputs": [
        {
          "internalType": "uint256",
          "name": "",
          "type": "uint256"
        }
      ],
      "stateMutability": "view",
      "type": "function"
    }
  ],
  "transactionHash": "0x1a2b11c587d74ddfdd0ffb7efceccc137ecec8de821bf03e47513959d475f0a5",
  "args": [],
  "numDeployments": 1,
  "solcInputHash": "eaa2c9edbdd68666a54bdf46d9fef59f",
  "bytecode": "0x608060405234801561001057600080fd5b506127ab806100206000396000f3fe60806040526004361061011f5760003560e01c80638da5cb5b116100a0578063db9d033411610064578063db9d0334146102fc578063ddca3f431461030f578063ef6aa26414610325578063f2fde38b14610345578063f65a83cf1461036557600080fd5b80638da5cb5b1461026b5780639272148214610289578063ac43070b1461029c578063c31c9c07146102bc578063d8ca7236146102dc57600080fd5b806354fd4d50116100e757806354fd4d50146101e057806369fe0e2d146101f6578063715018a6146102165780638705fcd41461022b578063887a622a1461024b57600080fd5b80632171dcc9146101245780632703984c14610146578063395ae6a314610175578063408def1e1461018857806341275358146101a8575b600080fd5b34801561013057600080fd5b5061014461013f36600461200e565b61038f565b005b34801561015257600080fd5b50610162670de0b6b3a764000081565b6040519081526020015b60405180910390f35b6101446101833660046120a5565b6103a5565b34801561019457600080fd5b506101446101a3366004612140565b61044f565b3480156101b457600080fd5b506098546101c8906001600160a01b031681565b6040516001600160a01b03909116815260200161016c565b3480156101ec57600080fd5b50610162609a5481565b34801561020257600080fd5b50610144610211366004612140565b610463565b34801561022257600080fd5b50610144610474565b34801561023757600080fd5b50610144610246366004612159565b610488565b34801561025757600080fd5b5061016261026636600461217b565b610499565b34801561027757600080fd5b506033546001600160a01b03166101c8565b6101446102973660046120a5565b61056e565b3480156102a857600080fd5b506101446102b73660046121ea565b6105f4565b3480156102c857600080fd5b506097546101c8906001600160a01b031681565b3480156102e857600080fd5b506101626102f736600461217b565b610681565b61014461030a3660046121ea565b610748565b34801561031b57600080fd5b5061016260995481565b34801561033157600080fd5b5061014461034036600461222c565b610783565b34801561035157600080fd5b50610144610360366004612159565b6108c6565b34801561037157600080fd5b50609b5461037f9060ff1681565b604051901515815260200161016c565b61039761093c565b6103a18282610996565b5050565b600260655414156103d15760405162461bcd60e51b81526004016103c890612279565b60405180910390fd5b6002606555609b5460ff16156104225760405162461bcd60e51b8152602060048201526016602482015275506179726f6c6c3a204e6f7420756e6973776170563360501b60448201526064016103c8565b8215610437576104358787878787610a6f565b505b6104418282610dcd565b505060016065555050505050565b61045761093c565b61046081611185565b50565b61046b61093c565b61046081611211565b61047c61093c565b61048660006112a8565b565b61049061093c565b610460816112fa565b6000600260655414156104be5760405162461bcd60e51b81526004016103c890612279565b6002606555609b5460ff1661050e5760405162461bcd60e51b81526020600482015260166024820152752830bcb937b6361d102737ba103ab734b9bbb0b82b1960511b60448201526064016103c8565b816105525760405162461bcd60e51b8152602060048201526014602482015273506179726f6c6c3a20456d70747920737761707360601b60448201526064016103c8565b61055f868686868661139e565b60016065559695505050505050565b600260655414156105915760405162461bcd60e51b81526004016103c890612279565b6002606555609b5460ff166105e15760405162461bcd60e51b81526020600482015260166024820152752830bcb937b6361d102737ba103ab734b9bbb0b82b1960511b60448201526064016103c8565b821561043757610435878787878761139e565b600260655414156106175760405162461bcd60e51b81526004016103c890612279565b600260655560005b818110156106775761066583838381811061063c5761063c6122b0565b90506020020160208101906106519190612159565b6097546001600160a01b03166000196116da565b8061066f816122dc565b91505061061f565b5050600160655550565b6000600260655414156106a65760405162461bcd60e51b81526004016103c890612279565b6002606555609b5460ff16156106f75760405162461bcd60e51b8152602060048201526016602482015275506179726f6c6c3a204e6f7420756e6973776170563360501b60448201526064016103c8565b8161073b5760405162461bcd60e51b8152602060048201526014602482015273506179726f6c6c3a20456d70747920737761707360601b60448201526064016103c8565b61055f8686868686610a6f565b6002606554141561076b5760405162461bcd60e51b81526004016103c890612279565b600260655561077a8282610dcd565b50506001606555565b600054610100900460ff16158080156107a35750600054600160ff909116105b806107bd5750303b1580156107bd575060005460ff166001145b6108205760405162461bcd60e51b815260206004820152602e60248201527f496e697469616c697a61626c653a20636f6e747261637420697320616c72656160448201526d191e481a5b9a5d1a585b1a5e995960921b60648201526084016103c8565b6000805460ff191660011790558015610843576000805461ff0019166101001790555b61084b6117d3565b610853611802565b61085d8585610996565b610866836112fa565b61086f82611211565b6108796001611185565b80156108bf576000805461ff0019169055604051600181527f7f26b83ff96e1f2b6a682f133852f6798a09c465da95921460cefb38474024989060200160405180910390a15b5050505050565b6108ce61093c565b6001600160a01b0381166109335760405162461bcd60e51b815260206004820152602660248201527f4f776e61626c653a206e6577206f776e657220697320746865207a65726f206160448201526564647265737360d01b60648201526084016103c8565b610460816112a8565b6033546001600160a01b031633146104865760405162461bcd60e51b815260206004820181905260248201527f4f776e61626c653a2063616c6c6572206973206e6f7420746865206f776e657260448201526064016103c8565b6001600160a01b038216610a025760405162461bcd60e51b815260206004820152602d60248201527f506179726f6c6c3a2043616e6e6f74207365742061203020616464726573732060448201526c30b99039bbb0b82937baba32b960991b60648201526084016103c8565b609b805460ff1916821515908117909155609780546001600160a01b0319166001600160a01b0385169081179091556040805191825260208201929092527fa93750f85ffdb877ffb446c32e8a1033c18e7746ffdd0b42d7edee2c98e7db3c910160405180910390a15050565b6000610a7d86333088611831565b6000805b83811015610d34576000858583818110610a9d57610a9d6122b0565b9050602002810190610aaf91906122f7565b610abd906040810190612317565b905011610b025760405162461bcd60e51b81526020600482015260136024820152720a0c2f2e4ded8d874408adae0e8f240e0c2e8d606b1b60448201526064016103c8565b6097546040805160a081019091526000916001600160a01b03169063f28c04989080898987818110610b3657610b366122b0565b9050602002810190610b4891906122f7565b610b56906040810190612317565b8080601f01602080910402602001604051908101604052809392919081815260200183838082843760009201919091525050509082525033602082015263ffffffff8b166040820152606001898987818110610bb457610bb46122b0565b9050602002810190610bc691906122f7565b358152602001898987818110610bde57610bde6122b0565b9050602002810190610bf091906122f7565b602001358152506040518263ffffffff1660e01b8152600401610c13919061238a565b602060405180830381600087803b158015610c2d57600080fd5b505af1158015610c41573d6000803e3d6000fd5b505050506040513d601f19601f82011682018060405250810190610c6591906123f9565b9050610c718184612412565b92507f2d8d9d7f49599a20c9e475f932138bdf56ab8ddbcd627a642030d3d788012b5689610d096000898987818110610cac57610cac6122b0565b9050602002810190610cbe91906122f7565b610ccc906040810190612317565b8080601f016020809104026020016040519081016040528093929190818152602001838380828437600092019190915250929392505061193f9050565b83604051610d199392919061242a565b60405180910390a15080610d2c816122dc565b915050610a81565b506040516370a0823160e01b81523060048201526000906001600160a01b038916906370a082319060240160206040518083038186803b158015610d7757600080fd5b505afa158015610d8b573d6000803e3d6000fd5b505050506040513d601f19601f82011682018060405250810190610daf91906123f9565b90508015610dc257610dc28833836119f3565b509695505050505050565b6000805b828110156110c1576000848483818110610ded57610ded6122b0565b9050602002810190610dff91906122f7565b610e0d90604081019061244e565b905011610e5c5760405162461bcd60e51b815260206004820152601f60248201527f506179726f6c6c3a204e6f20616d6f756e747320746f207472616e736665720060448201526064016103c8565b838382818110610e6e57610e6e6122b0565b9050602002810190610e8091906122f7565b610e8e90602081019061244e565b9050848483818110610ea257610ea26122b0565b9050602002810190610eb491906122f7565b610ec290604081019061244e565b905014610f1f5760405162461bcd60e51b815260206004820152602560248201527f506179726f6c6c3a20417272617973206d75737420686176652073616d65206c6044820152640cadccee8d60db1b60648201526084016103c8565b6000848483818110610f3357610f336122b0565b9050602002810190610f4591906122f7565b610f53906020810190612159565b6001600160a01b03161461100457610fff848483818110610f7657610f766122b0565b9050602002810190610f8891906122f7565b610f96906020810190612159565b858584818110610fa857610fa86122b0565b9050602002810190610fba91906122f7565b610fc890602081019061244e565b878786818110610fda57610fda6122b0565b9050602002810190610fec91906122f7565b610ffa90604081019061244e565b611aec565b6110af565b6110a2848483818110611019576110196122b0565b905060200281019061102b91906122f7565b611039906020810190612159565b85858481811061104b5761104b6122b0565b905060200281019061105d91906122f7565b61106b90602081019061244e565b87878681811061107d5761107d6122b0565b905060200281019061108f91906122f7565b61109d90604081019061244e565b611c9f565b6110ac9083612412565b91505b806110b9816122dc565b915050610dd1565b5060006110ce8234612498565b9050600181111561117f57604051600090339083908381818185875af1925050503d806000811461111b576040519150601f19603f3d011682016040523d82523d6000602084013e611120565b606091505b50509050806108bf5760405162461bcd60e51b815260206004820152602560248201527f506179726f6c6c3a20455448206c6566744f766572207472616e736665722066604482015264185a5b195960da1b60648201526084016103c8565b50505050565b600081116111d55760405162461bcd60e51b815260206004820152601b60248201527f506179726f6c6c3a2056657273696f6e2063616e27742062652030000000000060448201526064016103c8565b609a8190556040518181527fd559f56ba9b2c69da3765a6d0208c7f7f352ade55a3be7fb9589ba50aa4ce5f3906020015b60405180910390a150565b666a94d74f43000081106112735760405162461bcd60e51b815260206004820152602360248201527f506179726f6c6c3a204665652073686f756c64206265206c657373207468616e60448201526220332560e81b60648201526084016103c8565b60998190556040518181527f6bbc57480a46553fa4d156ce702beef5f3ad66303b0ed1a5d4cb44966c6584c390602001611206565b603380546001600160a01b038381166001600160a01b0319831681179093556040519116919082907f8be0079c531659141344cd1fd0a4f28419497f9722a3daafe3b4186f6b6457e090600090a35050565b6001600160a01b0381166113505760405162461bcd60e51b815260206004820152601f60248201527f506179726f6c6c3a2046656520616464726573732063616e277420626520300060448201526064016103c8565b609880546001600160a01b0319166001600160a01b0383169081179091556040519081527fd1e93c69f2847f79bfa4d71704aaa84a581729b4b1706d922ee42ba1848a45c990602001611206565b60006113ac86333088611831565b6000805b83811015610d345760008585838181106113cc576113cc6122b0565b90506020028101906113de91906122f7565b6113ec90604081019061244e565b9050116114315760405162461bcd60e51b81526020600482015260136024820152720a0c2f2e4ded8d874408adae0e8f240e0c2e8d606b1b60448201526064016103c8565b876001600160a01b031685858381811061144d5761144d6122b0565b905060200281019061145f91906122f7565b61146d90604081019061244e565b600081811061147e5761147e6122b0565b90506020020160208101906114939190612159565b6001600160a01b0316146114e95760405162461bcd60e51b815260206004820152601e60248201527f506179726f6c6c3a2053776170206e6f7420746f6b656e206f726967696e000060448201526064016103c8565b6097546000906001600160a01b0316638803dbee87878581811061150f5761150f6122b0565b905060200281019061152191906122f7565b35888886818110611534576115346122b0565b905060200281019061154691906122f7565b6020013589898781811061155c5761155c6122b0565b905060200281019061156e91906122f7565b61157c90604081019061244e565b338d6040518763ffffffff1660e01b815260040161159f969594939291906124f6565b600060405180830381600087803b1580156115b957600080fd5b505af11580156115cd573d6000803e3d6000fd5b505050506040513d6000823e601f3d908101601f191682016040526115f59190810190612555565b600081518110611607576116076122b0565b60200260200101519050808361161d9190612412565b9250366000878785818110611634576116346122b0565b905060200281019061164691906122f7565b61165490604081019061244e565b90925090507f2d8d9d7f49599a20c9e475f932138bdf56ab8ddbcd627a642030d3d788012b568b8383611688600182612498565b818110611697576116976122b0565b90506020020160208101906116ac9190612159565b856040516116bc9392919061242a565b60405180910390a150505080806116d2906122dc565b9150506113b0565b604080516001600160a01b038481166024830152604480830185905283518084039091018152606490920183526020820180516001600160e01b031663095ea7b360e01b17905291516000928392908716916117369190612613565b6000604051808303816000865af19150503d8060008114611773576040519150601f19603f3d011682016040523d82523d6000602084013e611778565b606091505b50915091508180156117a25750805115806117a25750808060200190518101906117a29190612625565b6108bf5760405162461bcd60e51b8152602060048201526002602482015261534160f01b60448201526064016103c8565b600054610100900460ff166117fa5760405162461bcd60e51b81526004016103c890612642565b610486611f86565b600054610100900460ff166118295760405162461bcd60e51b81526004016103c890612642565b610486611fb4565b600080856001600160a01b03166323b872dd60e01b86868660405160240161185b9392919061242a565b60408051601f198184030181529181526020820180516001600160e01b03166001600160e01b03199094169390931790925290516118999190612613565b6000604051808303816000865af19150503d80600081146118d6576040519150601f19603f3d011682016040523d82523d6000602084013e6118db565b606091505b50915091508180156119055750805115806119055750808060200190518101906119059190612625565b6119375760405162461bcd60e51b815260206004820152600360248201526229aa2360e91b60448201526064016103c8565b505050505050565b60008161194d816014612412565b10156119905760405162461bcd60e51b8152602060048201526012602482015271746f416464726573735f6f766572666c6f7760701b60448201526064016103c8565b61199b826014612412565b835110156119e35760405162461bcd60e51b8152602060048201526015602482015274746f416464726573735f6f75744f66426f756e647360581b60448201526064016103c8565b500160200151600160601b900490565b604080516001600160a01b038481166024830152604480830185905283518084039091018152606490920183526020820180516001600160e01b031663a9059cbb60e01b1790529151600092839290871691611a4f9190612613565b6000604051808303816000865af19150503d8060008114611a8c576040519150601f19603f3d011682016040523d82523d6000602084013e611a91565b606091505b5091509150818015611abb575080511580611abb575080806020019051810190611abb9190612625565b6108bf5760405162461bcd60e51b815260206004820152600260248201526114d560f21b60448201526064016103c8565b60008060005b85811015611bcc576000878783818110611b0e57611b0e6122b0565b9050602002016020810190611b239190612159565b6001600160a01b03161415611b4a5760405162461bcd60e51b81526004016103c89061268d565b848482818110611b5c57611b5c6122b0565b9050602002013582611b6e9190612412565b9150611bba8833898985818110611b8757611b876122b0565b9050602002016020810190611b9c9190612159565b888886818110611bae57611bae6122b0565b90506020020135611831565b80611bc4816122dc565b915050611af2565b507f61296616dea919da05ed0d5608a730a6f4f39d0703b9d8819da47e233c9a92d98787878787604051611c049594939291906126d0565b60405180910390a1670de0b6b3a764000060995482611c239190612734565b611c2d9190612753565b91508115611c4f57609854611c4f90889033906001600160a01b031685611831565b6098546040517f945458c62aa39df7a4d87d6c4dbaaab7de5d870c9a1fe40e2b7571d84f158a8d91611c8e918a916001600160a01b031690869061242a565b60405180910390a150505050505050565b60008080805b86811015611e17576000888883818110611cc157611cc16122b0565b9050602002016020810190611cd69190612159565b6001600160a01b03161415611cfd5760405162461bcd60e51b81526004016103c89061268d565b858582818110611d0f57611d0f6122b0565b9050602002013582611d219190612412565b91506000888883818110611d3757611d376122b0565b9050602002016020810190611d4c9190612159565b6001600160a01b0316878784818110611d6757611d676122b0565b9050602002013560405160006040518083038185875af1925050503d8060008114611dae576040519150601f19603f3d011682016040523d82523d6000602084013e611db3565b606091505b5050905080611e045760405162461bcd60e51b815260206004820152601c60248201527f506179726f6c6c3a20455448207472616e73666572206661696c65640000000060448201526064016103c8565b5080611e0f816122dc565b915050611ca5565b507f61296616dea919da05ed0d5608a730a6f4f39d0703b9d8819da47e233c9a92d98888888888604051611e4f9594939291906126d0565b60405180910390a1670de0b6b3a764000060995482611e6e9190612734565b611e789190612753565b91508115611f3457611e8a8282612412565b6098546040519192506000916001600160a01b039091169084908381818185875af1925050503d8060008114611edc576040519150601f19603f3d011682016040523d82523d6000602084013e611ee1565b606091505b5050905080611f325760405162461bcd60e51b815260206004820181905260248201527f506179726f6c6c3a2045544820666565207472616e73666572206661696c656460448201526064016103c8565b505b6098546040517f945458c62aa39df7a4d87d6c4dbaaab7de5d870c9a1fe40e2b7571d84f158a8d91611f73918b916001600160a01b031690869061242a565b60405180910390a1979650505050505050565b600054610100900460ff16611fad5760405162461bcd60e51b81526004016103c890612642565b6001606555565b600054610100900460ff16611fdb5760405162461bcd60e51b81526004016103c890612642565b610486336112a8565b80356001600160a01b0381168114611ffb57600080fd5b919050565b801515811461046057600080fd5b6000806040838503121561202157600080fd5b61202a83611fe4565b9150602083013561203a81612000565b809150509250929050565b803563ffffffff81168114611ffb57600080fd5b60008083601f84011261206b57600080fd5b50813567ffffffffffffffff81111561208357600080fd5b6020830191508360208260051b850101111561209e57600080fd5b9250929050565b600080600080600080600060a0888a0312156120c057600080fd5b6120c988611fe4565b9650602088013595506120de60408901612045565b9450606088013567ffffffffffffffff808211156120fb57600080fd5b6121078b838c01612059565b909650945060808a013591508082111561212057600080fd5b5061212d8a828b01612059565b989b979a50959850939692959293505050565b60006020828403121561215257600080fd5b5035919050565b60006020828403121561216b57600080fd5b61217482611fe4565b9392505050565b60008060008060006080868803121561219357600080fd5b61219c86611fe4565b9450602086013593506121b160408701612045565b9250606086013567ffffffffffffffff8111156121cd57600080fd5b6121d988828901612059565b969995985093965092949392505050565b600080602083850312156121fd57600080fd5b823567ffffffffffffffff81111561221457600080fd5b61222085828601612059565b90969095509350505050565b6000806000806080858703121561224257600080fd5b61224b85611fe4565b9350602085013561225b81612000565b925061226960408601611fe4565b9396929550929360600135925050565b6020808252601f908201527f5265656e7472616e637947756172643a207265656e7472616e742063616c6c00604082015260600190565b634e487b7160e01b600052603260045260246000fd5b634e487b7160e01b600052601160045260246000fd5b60006000198214156122f0576122f06122c6565b5060010190565b60008235605e1983360301811261230d57600080fd5b9190910192915050565b6000808335601e1984360301811261232e57600080fd5b83018035915067ffffffffffffffff82111561234957600080fd5b60200191503681900382131561209e57600080fd5b60005b83811015612379578181015183820152602001612361565b8381111561117f5750506000910152565b602081526000825160a0602084015280518060c08501526123b28160e086016020850161235e565b60018060a01b0360208601511660408501526040850151606085015260608501516080850152608085015160a085015260e0601f19601f8301168501019250505092915050565b60006020828403121561240b57600080fd5b5051919050565b60008219821115612425576124256122c6565b500190565b6001600160a01b039384168152919092166020820152604081019190915260600190565b6000808335601e1984360301811261246557600080fd5b83018035915067ffffffffffffffff82111561248057600080fd5b6020019150600581901b360382131561209e57600080fd5b6000828210156124aa576124aa6122c6565b500390565b8183526000602080850194508260005b858110156124eb576001600160a01b036124d883611fe4565b16875295820195908201906001016124bf565b509495945050505050565b86815285602082015260a06040820152600061251660a0830186886124af565b6001600160a01b039490941660608301525063ffffffff91909116608090910152949350505050565b634e487b7160e01b600052604160045260246000fd5b6000602080838503121561256857600080fd5b825167ffffffffffffffff8082111561258057600080fd5b818501915085601f83011261259457600080fd5b8151818111156125a6576125a661253f565b8060051b604051601f19603f830116810181811085821117156125cb576125cb61253f565b6040529182528482019250838101850191888311156125e957600080fd5b938501935b82851015612607578451845293850193928501926125ee565b98975050505050505050565b6000825161230d81846020870161235e565b60006020828403121561263757600080fd5b815161217481612000565b6020808252602b908201527f496e697469616c697a61626c653a20636f6e7472616374206973206e6f74206960408201526a6e697469616c697a696e6760a81b606082015260800190565b60208082526023908201527f506179726f6c6c3a2043616e6e6f742073656e6420746f20612030206164647260408201526265737360e81b606082015260800190565b6001600160a01b03861681526060602082018190526000906126f590830186886124af565b82810360408401528381526001600160fb1b0384111561271457600080fd5b8360051b8086602084013760009101602001908152979650505050505050565b600081600019048311821515161561274e5761274e6122c6565b500290565b60008261277057634e487b7160e01b600052601260045260246000fd5b50049056fea26469706673582212200b50a83941022a2be6be67f6317545b7d80fa1bd2cbe2411dbc68ebf3885814164736f6c63430008090033",
  "devdoc": {
    "author": "Think and Dev Team",
    "kind": "dev",
    "methods": {
      "approveTokens(address[])": {
        "params": {
          "_erc20TokenOrigin": "ERC20 token address to approve."
        }
      },
      "initialize(address,bool,address,uint256)": {
        "params": {
          "_isSwapV2": "Boolean to specify the version of the router; true means v2, false means v3.",
          "_swapRouter": "Router address to execute swaps."
        }
      },
      "owner()": {
        "details": "Returns the address of the current owner."
      },
      "performMultiPayment((address,address[],uint256[])[])": {
        "params": {
          "_payments": "The array of the Payment data."
        }
      },
      "performSwapV2(address,uint256,uint32,(uint256,uint256,address[])[])": {
        "params": {
          "_deadline": "The unix timestamp after a swap will fail.",
          "_erc20TokenOrigin": "ERC20 token address to swap for another.",
          "_swaps": "The array of the Swaps data.",
          "_totalAmountToSwap": "Total amount of erc20TokenOrigin to spend in swaps."
        }
      },
      "performSwapV2AndPayment(address,uint256,uint32,(uint256,uint256,address[])[],(address,address[],uint256[])[])": {
        "params": {
          "_deadline": "The unix timestamp after a swap will fail.",
          "_erc20TokenOrigin": "ERC20 token address to swap for another.",
          "_payments": "The array of the Payment data.",
          "_swaps": "The array of the Swaps data.",
          "_totalAmountToSwap": "Total amount of erc20TokenOrigin to spend in swaps."
        }
      },
      "performSwapV3(address,uint256,uint32,(uint256,uint256,bytes)[])": {
        "params": {
          "_deadline": "The unix timestamp after a swap will fail.",
          "_erc20TokenOrigin": "ERC20 token address to swap for another.",
          "_swaps": "The array of the Swaps data.",
          "_totalAmountToSwap": "Total amount of erc20TokenOrigin to spend in swaps."
        }
      },
      "performSwapV3AndPayment(address,uint256,uint32,(uint256,uint256,bytes)[],(address,address[],uint256[])[])": {
        "params": {
          "_deadline": "The unix timestamp after a swap will fail.",
          "_erc20TokenOrigin": "ERC20 token address to swap for another.",
          "_payments": "The array of the Payment data.",
          "_swaps": "The array of the Swaps data.",
          "_totalAmountToSwap": "Total amount of erc20TokenOrigin to spend in swaps."
        }
      },
      "renounceOwnership()": {
        "details": "Leaves the contract without owner. It will not be possible to call `onlyOwner` functions anymore. Can only be called by the current owner. NOTE: Renouncing ownership will leave the contract without an owner, thereby removing any functionality that is only available to the owner."
      },
      "setFee(uint256)": {
        "params": {
          "_fee": "Percentage that will be charged."
        }
      },
      "setFeeAddress(address)": {
        "params": {
          "_feeAddress": "Address that will receive the fees."
        }
      },
      "setSwapRouter(address,bool)": {
        "params": {
          "_isSwapV2": "Boolean to specify the version of the router; true means v2, false means v3.",
          "_swapRouter": "Router address to execute swaps."
        }
      },
      "transferOwnership(address)": {
        "details": "Transfers ownership of the contract to a new account (`newOwner`). Can only be called by the current owner."
      }
    },
    "title": "Think and Dev Paymentbox",
    "version": 1
  },
  "userdoc": {
    "kind": "user",
    "methods": {
      "approveTokens(address[])": {
        "notice": "Approves the following token to be used on swapRouter"
      },
      "isSwapV2()": {
        "notice": "Returns if the contract is working with a v2 Uniswap protocol; true means v2, false means v3."
      },
      "performMultiPayment((address,address[],uint256[])[])": {
        "notice": "Perform the payments to the given addresses and amounts, public method."
      },
      "performSwapV2(address,uint256,uint32,(uint256,uint256,address[])[])": {
        "notice": "Perform the swap with Uniswap V2 to the given token addresses and amounts."
      },
      "performSwapV2AndPayment(address,uint256,uint32,(uint256,uint256,address[])[],(address,address[],uint256[])[])": {
        "notice": "Perform the swap with Uniswap V2 and the transfer to the given addresses using Uniswap V2 interface.Currently the function only works with ERC20 tokens."
      },
      "performSwapV3(address,uint256,uint32,(uint256,uint256,bytes)[])": {
        "notice": "Perform the swap with Uniswap V3 to the given token addresses and amounts."
      },
      "performSwapV3AndPayment(address,uint256,uint32,(uint256,uint256,bytes)[],(address,address[],uint256[])[])": {
        "notice": "Perform the swap with Uniswap V3 and the transfer to the given addresses.Currently the function only works with ERC20 tokens."
      },
      "setFee(uint256)": {
        "notice": "Set the fee that will be charged, fees are divided by mantissa"
      },
      "setFeeAddress(address)": {
        "notice": "Set the address that will receive the fees."
      },
      "setSwapRouter(address,bool)": {
        "notice": "Set the SwapRouter and the version to be used."
      },
      "swapRouter()": {
        "notice": "Returns the address of the Uniswap protocol router, it could be v2 or v3."
      }
    },
    "notice": "Swap and transfer multiple ERC20 pairs to multiple accounts in a single transaction. Use any router address of any DEX that uses Uniswap protocol v2 or v3 to make swaps.",
    "version": 1
  },
  "storageLayout": {
    "storage": [
      {
        "astId": 138,
        "contract": "contracts/Payroll.sol:Payroll",
        "label": "_initialized",
        "offset": 0,
        "slot": "0",
        "type": "t_uint8"
      },
      {
        "astId": 141,
        "contract": "contracts/Payroll.sol:Payroll",
        "label": "_initializing",
        "offset": 1,
        "slot": "0",
        "type": "t_bool"
      },
      {
        "astId": 625,
        "contract": "contracts/Payroll.sol:Payroll",
        "label": "__gap",
        "offset": 0,
        "slot": "1",
        "type": "t_array(t_uint256)50_storage"
      },
      {
        "astId": 10,
        "contract": "contracts/Payroll.sol:Payroll",
        "label": "_owner",
        "offset": 0,
        "slot": "51",
        "type": "t_address"
      },
      {
        "astId": 130,
        "contract": "contracts/Payroll.sol:Payroll",
        "label": "__gap",
        "offset": 0,
        "slot": "52",
        "type": "t_array(t_uint256)49_storage"
      },
      {
        "astId": 296,
        "contract": "contracts/Payroll.sol:Payroll",
        "label": "_status",
        "offset": 0,
        "slot": "101",
        "type": "t_uint256"
      },
      {
        "astId": 340,
        "contract": "contracts/Payroll.sol:Payroll",
        "label": "__gap",
        "offset": 0,
        "slot": "102",
        "type": "t_array(t_uint256)49_storage"
      },
      {
        "astId": 3404,
        "contract": "contracts/Payroll.sol:Payroll",
        "label": "swapRouter",
        "offset": 0,
        "slot": "151",
        "type": "t_address"
      },
      {
        "astId": 3406,
        "contract": "contracts/Payroll.sol:Payroll",
        "label": "feeAddress",
        "offset": 0,
        "slot": "152",
        "type": "t_address"
      },
      {
        "astId": 3408,
        "contract": "contracts/Payroll.sol:Payroll",
        "label": "fee",
        "offset": 0,
        "slot": "153",
        "type": "t_uint256"
      },
      {
        "astId": 3413,
        "contract": "contracts/Payroll.sol:Payroll",
        "label": "version",
        "offset": 0,
        "slot": "154",
        "type": "t_uint256"
      },
      {
        "astId": 3416,
        "contract": "contracts/Payroll.sol:Payroll",
        "label": "isSwapV2",
        "offset": 0,
        "slot": "155",
        "type": "t_bool"
      }
    ],
    "types": {
      "t_address": {
        "encoding": "inplace",
        "label": "address",
        "numberOfBytes": "20"
      },
      "t_array(t_uint256)49_storage": {
        "base": "t_uint256",
        "encoding": "inplace",
        "label": "uint256[49]",
        "numberOfBytes": "1568"
      },
      "t_array(t_uint256)50_storage": {
        "base": "t_uint256",
        "encoding": "inplace",
        "label": "uint256[50]",
        "numberOfBytes": "1600"
      },
      "t_bool": {
        "encoding": "inplace",
        "label": "bool",
        "numberOfBytes": "1"
      },
      "t_uint256": {
        "encoding": "inplace",
        "label": "uint256",
        "numberOfBytes": "32"
      },
      "t_uint8": {
        "encoding": "inplace",
        "label": "uint8",
        "numberOfBytes": "1"
      }
    }
  }
}