{
  "address": "0x3d047d723702800161d492889F0D5136E88bceA4",
  "abi": [
    {
      "anonymous": false,
      "inputs": [
        {
          "indexed": false,
          "internalType": "address[]",
          "name": "_receivers",
          "type": "address[]"
        },
        {
          "indexed": false,
          "internalType": "uint256[]",
          "name": "_amountsToTransfer",
          "type": "uint256[]"
        }
      ],
      "name": "BatchPaymentFinished",
      "type": "event"
    },
    {
      "anonymous": false,
      "inputs": [
        {
          "indexed": true,
          "internalType": "bytes32",
          "name": "role",
          "type": "bytes32"
        },
        {
          "indexed": true,
          "internalType": "bytes32",
          "name": "previousAdminRole",
          "type": "bytes32"
        },
        {
          "indexed": true,
          "internalType": "bytes32",
          "name": "newAdminRole",
          "type": "bytes32"
        }
      ],
      "name": "RoleAdminChanged",
      "type": "event"
    },
    {
      "anonymous": false,
      "inputs": [
        {
          "indexed": true,
          "internalType": "bytes32",
          "name": "role",
          "type": "bytes32"
        },
        {
          "indexed": true,
          "internalType": "address",
          "name": "account",
          "type": "address"
        },
        {
          "indexed": true,
          "internalType": "address",
          "name": "sender",
          "type": "address"
        }
      ],
      "name": "RoleGranted",
      "type": "event"
    },
    {
      "anonymous": false,
      "inputs": [
        {
          "indexed": true,
          "internalType": "bytes32",
          "name": "role",
          "type": "bytes32"
        },
        {
          "indexed": true,
          "internalType": "address",
          "name": "account",
          "type": "address"
        },
        {
          "indexed": true,
          "internalType": "address",
          "name": "sender",
          "type": "address"
        }
      ],
      "name": "RoleRevoked",
      "type": "event"
    },
    {
      "anonymous": false,
      "inputs": [
        {
          "indexed": false,
          "internalType": "address",
          "name": "_tokenIn",
          "type": "address"
        },
        {
          "indexed": false,
          "internalType": "address",
          "name": "_tokenOut",
          "type": "address"
        },
        {
          "indexed": false,
          "internalType": "uint256",
          "name": "_amountReceived",
          "type": "uint256"
        }
      ],
      "name": "SwapFinished",
      "type": "event"
    },
    {
      "inputs": [],
      "name": "ADMIN_ROLE",
      "outputs": [
        {
          "internalType": "bytes32",
          "name": "",
          "type": "bytes32"
        }
      ],
      "stateMutability": "view",
      "type": "function"
    },
    {
      "inputs": [],
      "name": "DEFAULT_ADMIN_ROLE",
      "outputs": [
        {
          "internalType": "bytes32",
          "name": "",
          "type": "bytes32"
        }
      ],
      "stateMutability": "view",
      "type": "function"
    },
    {
      "inputs": [],
      "name": "PAYER_ROLE",
      "outputs": [
        {
          "internalType": "bytes32",
          "name": "",
          "type": "bytes32"
        }
      ],
      "stateMutability": "view",
      "type": "function"
    },
    {
      "inputs": [
        {
          "internalType": "bytes32",
          "name": "role",
          "type": "bytes32"
        }
      ],
      "name": "getRoleAdmin",
      "outputs": [
        {
          "internalType": "bytes32",
          "name": "",
          "type": "bytes32"
        }
      ],
      "stateMutability": "view",
      "type": "function"
    },
    {
      "inputs": [
        {
          "internalType": "bytes32",
          "name": "role",
          "type": "bytes32"
        },
        {
          "internalType": "address",
          "name": "account",
          "type": "address"
        }
      ],
      "name": "grantRole",
      "outputs": [],
      "stateMutability": "nonpayable",
      "type": "function"
    },
    {
      "inputs": [
        {
          "internalType": "bytes32",
          "name": "role",
          "type": "bytes32"
        },
        {
          "internalType": "address",
          "name": "account",
          "type": "address"
        }
      ],
      "name": "hasRole",
      "outputs": [
        {
          "internalType": "bool",
          "name": "",
          "type": "bool"
        }
      ],
      "stateMutability": "view",
      "type": "function"
    },
    {
      "inputs": [
        {
          "internalType": "address",
          "name": "_owner",
          "type": "address"
        },
        {
          "internalType": "address",
          "name": "_swapRouter",
          "type": "address"
        }
      ],
      "name": "initialize",
      "outputs": [],
      "stateMutability": "nonpayable",
      "type": "function"
    },
    {
      "inputs": [],
      "name": "owner",
      "outputs": [
        {
          "internalType": "address",
          "name": "",
          "type": "address"
        }
      ],
      "stateMutability": "view",
      "type": "function"
    },
    {
      "inputs": [
        {
          "internalType": "address",
          "name": "_erc20TokenOrigin",
          "type": "address"
        },
        {
          "internalType": "uint256",
          "name": "_totalAmountToSpend",
          "type": "uint256"
        },
        {
          "internalType": "uint32",
          "name": "_deadline",
          "type": "uint32"
        },
        {
          "components": [
            {
              "internalType": "address",
              "name": "token",
              "type": "address"
            },
            {
              "internalType": "uint256",
              "name": "amountOut",
              "type": "uint256"
            },
            {
              "internalType": "uint256",
              "name": "amountInMax",
              "type": "uint256"
            },
            {
              "internalType": "uint24",
              "name": "poolFee",
              "type": "uint24"
            }
          ],
          "internalType": "struct Payroll.Swap[]",
          "name": "_swaps",
          "type": "tuple[]"
        },
        {
          "components": [
            {
              "internalType": "address",
              "name": "token",
              "type": "address"
            },
            {
              "internalType": "uint256",
              "name": "totalAmountToPay",
              "type": "uint256"
            },
            {
              "internalType": "address[]",
              "name": "receivers",
              "type": "address[]"
            },
            {
              "internalType": "uint256[]",
              "name": "amountsToTransfer",
              "type": "uint256[]"
            }
          ],
          "internalType": "struct Payroll.Payment[]",
          "name": "_payments",
          "type": "tuple[]"
        }
      ],
      "name": "performSwapAndPayment",
      "outputs": [],
      "stateMutability": "nonpayable",
      "type": "function"
    },
    {
      "inputs": [
        {
          "internalType": "bytes32",
          "name": "role",
          "type": "bytes32"
        },
        {
          "internalType": "address",
          "name": "account",
          "type": "address"
        }
      ],
      "name": "renounceRole",
      "outputs": [],
      "stateMutability": "nonpayable",
      "type": "function"
    },
    {
      "inputs": [
        {
          "internalType": "bytes32",
          "name": "role",
          "type": "bytes32"
        },
        {
          "internalType": "address",
          "name": "account",
          "type": "address"
        }
      ],
      "name": "revokeRole",
      "outputs": [],
      "stateMutability": "nonpayable",
      "type": "function"
    },
    {
      "inputs": [
        {
          "internalType": "bytes4",
          "name": "interfaceId",
          "type": "bytes4"
        }
      ],
      "name": "supportsInterface",
      "outputs": [
        {
          "internalType": "bool",
          "name": "",
          "type": "bool"
        }
      ],
      "stateMutability": "view",
      "type": "function"
    },
    {
      "inputs": [],
      "name": "swapRouter",
      "outputs": [
        {
          "internalType": "contract ISwapRouter",
          "name": "",
          "type": "address"
        }
      ],
      "stateMutability": "view",
      "type": "function"
    }
  ],
  "transactionHash": "0x60a12e37db1f4b0fde68b05b18b1c5c214b7d620660bf25bfdf25b420dcf97d0",
  "args": [],
  "numDeployments": 3,
  "solcInputHash": "a901e3aecf42482bdfd76e6377ef1761",
  "bytecode": "0x608060405234801561001057600080fd5b50612be9806100206000396000f3fe608060405234801561001057600080fd5b50600436106100cf5760003560e01c806377f050b01161008c57806391d148541161006657806391d14854146101fe578063a217fddf1461022e578063c31c9c071461024c578063d547741f1461026a576100cf565b806377f050b0146101a6578063891aad70146101c45780638da5cb5b146101e0576100cf565b806301ffc9a7146100d4578063248a9ca3146101045780632f2ff15d1461013457806336568abe14610150578063485cc9551461016c57806375b238fc14610188575b600080fd5b6100ee60048036038101906100e99190611d7d565b610286565b6040516100fb91906122ee565b60405180910390f35b61011e60048036038101906101199190611d18565b610300565b60405161012b9190612309565b60405180910390f35b61014e60048036038101906101499190611d41565b610320565b005b61016a60048036038101906101659190611d41565b610349565b005b61018660048036038101906101819190611c03565b6103cc565b005b61019061056b565b60405161019d9190612309565b60405180910390f35b6101ae610572565b6040516101bb9190612309565b60405180910390f35b6101de60048036038101906101d99190611c3f565b610596565b005b6101e8610609565b6040516101f59190612238565b60405180910390f35b61021860048036038101906102139190611d41565b61062f565b60405161022591906122ee565b60405180910390f35b61023661069a565b6040516102439190612309565b60405180910390f35b6102546106a1565b6040516102619190612324565b60405180910390f35b610284600480360381019061027f9190611d41565b6106c7565b005b60007f7965db0b000000000000000000000000000000000000000000000000000000007bffffffffffffffffffffffffffffffffffffffffffffffffffffffff1916827bffffffffffffffffffffffffffffffffffffffffffffffffffffffff191614806102f957506102f8826106f0565b5b9050919050565b600060016000838152602001908152602001600020600101549050919050565b61032982610300565b61033a8161033561075a565b610762565b61034483836107ff565b505050565b61035161075a565b73ffffffffffffffffffffffffffffffffffffffff168173ffffffffffffffffffffffffffffffffffffffff16146103be576040517f08c379a00000000000000000000000000000000000000000000000000000000081526004016103b590612441565b60405180910390fd5b6103c882826108df565b5050565b600060019054906101000a900460ff166103f45760008054906101000a900460ff16156103fd565b6103fc6109c1565b5b61043c576040517f08c379a0000000000000000000000000000000000000000000000000000000008152600401610433906123a1565b60405180910390fd5b60008060019054906101000a900460ff16159050801561048c576001600060016101000a81548160ff02191690831515021790555060016000806101000a81548160ff0219169083151502179055505b82600360006101000a81548173ffffffffffffffffffffffffffffffffffffffff021916908373ffffffffffffffffffffffffffffffffffffffff16021790555081600260006101000a81548173ffffffffffffffffffffffffffffffffffffffff021916908373ffffffffffffffffffffffffffffffffffffffff16021790555061051b6000801b846109d2565b6105457f8ec07e268e32cae7f300b49ad34f20106d088445cb9d9b2d62cbd864638308b2846109d2565b80156105665760008060016101000a81548160ff0219169083151502179055505b505050565b6000801b81565b7f8ec07e268e32cae7f300b49ad34f20106d088445cb9d9b2d62cbd864638308b281565b7f8ec07e268e32cae7f300b49ad34f20106d088445cb9d9b2d62cbd864638308b26105c8816105c361075a565b610762565b60008585905011156105e2576105e188888888886109e0565b5b6105ec8383610ba3565b6105f68383610d8a565b6105ff88610f2e565b5050505050505050565b600360009054906101000a900473ffffffffffffffffffffffffffffffffffffffff1681565b60006001600084815260200190815260200160002060000160008373ffffffffffffffffffffffffffffffffffffffff1673ffffffffffffffffffffffffffffffffffffffff16815260200190815260200160002060009054906101000a900460ff16905092915050565b6000801b81565b600260009054906101000a900473ffffffffffffffffffffffffffffffffffffffff1681565b6106d082610300565b6106e1816106dc61075a565b610762565b6106eb83836108df565b505050565b60007f01ffc9a7000000000000000000000000000000000000000000000000000000007bffffffffffffffffffffffffffffffffffffffffffffffffffffffff1916827bffffffffffffffffffffffffffffffffffffffffffffffffffffffff1916149050919050565b600033905090565b61076c828261062f565b6107fb576107918173ffffffffffffffffffffffffffffffffffffffff166014610fda565b61079f8360001c6020610fda565b6040516020016107b09291906121fe565b6040516020818303038152906040526040517f08c379a00000000000000000000000000000000000000000000000000000000081526004016107f2919061233f565b60405180910390fd5b5050565b610809828261062f565b6108db57600180600084815260200190815260200160002060000160008373ffffffffffffffffffffffffffffffffffffffff1673ffffffffffffffffffffffffffffffffffffffff16815260200190815260200160002060006101000a81548160ff02191690831515021790555061088061075a565b73ffffffffffffffffffffffffffffffffffffffff168173ffffffffffffffffffffffffffffffffffffffff16837f2f8788117e7eff1d82e926ec794901d17c78024a50270940304540a733656f0d60405160405180910390a45b5050565b6108e9828261062f565b156109bd5760006001600084815260200190815260200160002060000160008373ffffffffffffffffffffffffffffffffffffffff1673ffffffffffffffffffffffffffffffffffffffff16815260200190815260200160002060006101000a81548160ff02191690831515021790555061096261075a565b73ffffffffffffffffffffffffffffffffffffffff168173ffffffffffffffffffffffffffffffffffffffff16837ff6391f5c32d9c69d2a47ea670b442974b53935d1edc7fd64eb21e047a839171b60405160405180910390a45b5050565b60006109cc306112d4565b15905090565b6109dc82826107ff565b5050565b6109ec853330876112f7565b610a1985600260009054906101000a900473ffffffffffffffffffffffffffffffffffffffff168661144f565b60005b82829050811015610b6d57610b5986848484818110610a64577f4e487b7100000000000000000000000000000000000000000000000000000000600052603260045260246000fd5b9050608002016000016020810190610a7c9190611bda565b858585818110610ab5577f4e487b7100000000000000000000000000000000000000000000000000000000600052603260045260246000fd5b9050608002016060016020810190610acd9190611da6565b868686818110610b06577f4e487b7100000000000000000000000000000000000000000000000000000000600052603260045260246000fd5b90506080020160200135878787818110610b49577f4e487b7100000000000000000000000000000000000000000000000000000000600052603260045260246000fd5b90506080020160400135896115a4565b508080610b6590612857565b915050610a1c565b50610b9c85600260009054906101000a900473ffffffffffffffffffffffffffffffffffffffff16600061144f565b5050505050565b60005b82829050811015610d85576000838383818110610bec577f4e487b7100000000000000000000000000000000000000000000000000000000600052603260045260246000fd5b9050602002810190610bfe919061252b565b6000016020810190610c109190611bda565b905060008173ffffffffffffffffffffffffffffffffffffffff166370a08231306040518263ffffffff1660e01b8152600401610c4d9190612238565b60206040518083038186803b158015610c6557600080fd5b505afa158015610c79573d6000803e3d6000fd5b505050506040513d601f19601f82011682018060405250810190610c9d9190611dcf565b9050600081868686818110610cdb577f4e487b7100000000000000000000000000000000000000000000000000000000600052603260045260246000fd5b9050602002810190610ced919061252b565b60200135610cfb919061268c565b90506000811315610d6f57610d6e868686818110610d42577f4e487b7100000000000000000000000000000000000000000000000000000000600052603260045260246000fd5b9050602002810190610d54919061252b565b6000016020810190610d669190611bda565b3330846112f7565b5b5050508080610d7d90612857565b915050610ba6565b505050565b60005b82829050811015610f2957610eb1838383818110610dd4577f4e487b7100000000000000000000000000000000000000000000000000000000600052603260045260246000fd5b9050602002810190610de6919061252b565b6000016020810190610df89190611bda565b848484818110610e31577f4e487b7100000000000000000000000000000000000000000000000000000000600052603260045260246000fd5b9050602002810190610e43919061252b565b8060400190610e52919061247d565b868686818110610e8b577f4e487b7100000000000000000000000000000000000000000000000000000000600052603260045260246000fd5b9050602002810190610e9d919061252b565b8060600190610eac91906124d4565b61173c565b610f16838383818110610eed577f4e487b7100000000000000000000000000000000000000000000000000000000600052603260045260246000fd5b9050602002810190610eff919061252b565b6000016020810190610f119190611bda565b610f2e565b8080610f2190612857565b915050610d8d565b505050565b600081905060008173ffffffffffffffffffffffffffffffffffffffff166370a08231306040518263ffffffff1660e01b8152600401610f6e9190612238565b60206040518083038186803b158015610f8657600080fd5b505afa158015610f9a573d6000803e3d6000fd5b505050506040513d601f19601f82011682018060405250810190610fbe9190611dcf565b90506000811115610fd557610fd4833383611949565b5b505050565b606060006002836002610fed9190612632565b610ff791906125dc565b67ffffffffffffffff811115611036577f4e487b7100000000000000000000000000000000000000000000000000000000600052604160045260246000fd5b6040519080825280601f01601f1916602001820160405280156110685781602001600182028036833780820191505090505b5090507f3000000000000000000000000000000000000000000000000000000000000000816000815181106110c6577f4e487b7100000000000000000000000000000000000000000000000000000000600052603260045260246000fd5b60200101907effffffffffffffffffffffffffffffffffffffffffffffffffffffffffffff1916908160001a9053507f780000000000000000000000000000000000000000000000000000000000000081600181518110611150577f4e487b7100000000000000000000000000000000000000000000000000000000600052603260045260246000fd5b60200101907effffffffffffffffffffffffffffffffffffffffffffffffffffffffffffff1916908160001a905350600060018460026111909190612632565b61119a91906125dc565b90505b6001811115611286577f3031323334353637383961626364656600000000000000000000000000000000600f861660108110611202577f4e487b7100000000000000000000000000000000000000000000000000000000600052603260045260246000fd5b1a60f81b82828151811061123f577f4e487b7100000000000000000000000000000000000000000000000000000000600052603260045260246000fd5b60200101907effffffffffffffffffffffffffffffffffffffffffffffffffffffffffffff1916908160001a905350600485901c94508061127f9061282d565b905061119d565b50600084146112ca576040517f08c379a00000000000000000000000000000000000000000000000000000000081526004016112c190612361565b60405180910390fd5b8091505092915050565b6000808273ffffffffffffffffffffffffffffffffffffffff163b119050919050565b6000808573ffffffffffffffffffffffffffffffffffffffff166323b872dd60e01b86868660405160240161132e93929190612253565b604051602081830303815290604052907bffffffffffffffffffffffffffffffffffffffffffffffffffffffff19166020820180517bffffffffffffffffffffffffffffffffffffffffffffffffffffffff838183161783525050505060405161139891906121e7565b6000604051808303816000865af19150503d80600081146113d5576040519150601f19603f3d011682016040523d82523d6000602084013e6113da565b606091505b509150915081801561140857506000815114806114075750808060200190518101906114069190611cef565b5b5b611447576040517f08c379a000000000000000000000000000000000000000000000000000000000815260040161143e90612421565b60405180910390fd5b505050505050565b6000808473ffffffffffffffffffffffffffffffffffffffff1663095ea7b360e01b858560405160240161148492919061228a565b604051602081830303815290604052907bffffffffffffffffffffffffffffffffffffffffffffffffffffffff19166020820180517bffffffffffffffffffffffffffffffffffffffffffffffffffffffff83818316178352505050506040516114ee91906121e7565b6000604051808303816000865af19150503d806000811461152b576040519150601f19603f3d011682016040523d82523d6000602084013e611530565b606091505b509150915081801561155e575060008151148061155d57508080602001905181019061155c9190611cef565b5b5b61159d576040517f08c379a000000000000000000000000000000000000000000000000000000000815260040161159490612381565b60405180910390fd5b5050505050565b6000806040518061010001604052808973ffffffffffffffffffffffffffffffffffffffff1681526020018873ffffffffffffffffffffffffffffffffffffffff1681526020018762ffffff1681526020013073ffffffffffffffffffffffffffffffffffffffff1681526020018463ffffffff168152602001868152602001858152602001600073ffffffffffffffffffffffffffffffffffffffff168152509050600260009054906101000a900473ffffffffffffffffffffffffffffffffffffffff1673ffffffffffffffffffffffffffffffffffffffff1663db3e2198826040518263ffffffff1660e01b81526004016116a29190612461565b602060405180830381600087803b1580156116bc57600080fd5b505af11580156116d0573d6000803e3d6000fd5b505050506040513d601f19601f820116820180604052508101906116f49190611dcf565b91507f2d8d9d7f49599a20c9e475f932138bdf56ab8ddbcd627a642030d3d788012b5688888460405161172993929190612253565b60405180910390a1509695505050505050565b838390508282905014611784576040517f08c379a000000000000000000000000000000000000000000000000000000000815260040161177b906123c1565b60405180910390fd5b60008060005b86869050811015611902578686828181106117ce577f4e487b7100000000000000000000000000000000000000000000000000000000600052603260045260246000fd5b90506020020160208101906117e39190611bda565b9250600073ffffffffffffffffffffffffffffffffffffffff16878783818110611836577f4e487b7100000000000000000000000000000000000000000000000000000000600052603260045260246000fd5b905060200201602081019061184b9190611bda565b73ffffffffffffffffffffffffffffffffffffffff1614156118a2576040517f08c379a0000000000000000000000000000000000000000000000000000000008152600401611899906123e1565b60405180910390fd5b8484828181106118db577f4e487b7100000000000000000000000000000000000000000000000000000000600052603260045260246000fd5b9050602002013591506118ef888484611949565b80806118fa90612857565b91505061178a565b507f6b82a3962e5fe7c719b4bec2b902045249682ce10c3004d113ae455e5d8c563d8686868660405161193894939291906122b3565b60405180910390a150505050505050565b6000808473ffffffffffffffffffffffffffffffffffffffff1663a9059cbb60e01b858560405160240161197e92919061228a565b604051602081830303815290604052907bffffffffffffffffffffffffffffffffffffffffffffffffffffffff19166020820180517bffffffffffffffffffffffffffffffffffffffffffffffffffffffff83818316178352505050506040516119e891906121e7565b6000604051808303816000865af19150503d8060008114611a25576040519150601f19603f3d011682016040523d82523d6000602084013e611a2a565b606091505b5091509150818015611a585750600081511480611a57575080806020019051810190611a569190611cef565b5b5b611a97576040517f08c379a0000000000000000000000000000000000000000000000000000000008152600401611a8e90612401565b60405180910390fd5b5050505050565b600081359050611aad81612b12565b92915050565b60008083601f840112611ac557600080fd5b8235905067ffffffffffffffff811115611ade57600080fd5b602083019150836020820283011115611af657600080fd5b9250929050565b60008083601f840112611b0f57600080fd5b8235905067ffffffffffffffff811115611b2857600080fd5b602083019150836080820283011115611b4057600080fd5b9250929050565b600081519050611b5681612b29565b92915050565b600081359050611b6b81612b40565b92915050565b600081359050611b8081612b57565b92915050565b600081359050611b9581612b6e565b92915050565b600081359050611baa81612b85565b92915050565b600081519050611bbf81612b85565b92915050565b600081359050611bd481612b9c565b92915050565b600060208284031215611bec57600080fd5b6000611bfa84828501611a9e565b91505092915050565b60008060408385031215611c1657600080fd5b6000611c2485828601611a9e565b9250506020611c3585828601611a9e565b9150509250929050565b600080600080600080600060a0888a031215611c5a57600080fd5b6000611c688a828b01611a9e565b9750506020611c798a828b01611b9b565b9650506040611c8a8a828b01611bc5565b955050606088013567ffffffffffffffff811115611ca757600080fd5b611cb38a828b01611afd565b9450945050608088013567ffffffffffffffff811115611cd257600080fd5b611cde8a828b01611ab3565b925092505092959891949750929550565b600060208284031215611d0157600080fd5b6000611d0f84828501611b47565b91505092915050565b600060208284031215611d2a57600080fd5b6000611d3884828501611b5c565b91505092915050565b60008060408385031215611d5457600080fd5b6000611d6285828601611b5c565b9250506020611d7385828601611a9e565b9150509250929050565b600060208284031215611d8f57600080fd5b6000611d9d84828501611b71565b91505092915050565b600060208284031215611db857600080fd5b6000611dc684828501611b86565b91505092915050565b600060208284031215611de157600080fd5b6000611def84828501611bb0565b91505092915050565b6000611e048383611e10565b60208301905092915050565b611e1981612720565b82525050565b611e2881612720565b82525050565b6000611e3a838561257c565b9350611e458261254f565b8060005b85811015611e7e57611e5b82846125c5565b611e658882611df8565b9750611e708361256f565b925050600181019050611e49565b5085925050509392505050565b6000611e97838561258d565b93507f07ffffffffffffffffffffffffffffffffffffffffffffffffffffffffffffff831115611ec657600080fd5b602083029250611ed78385846127eb565b82840190509392505050565b611eec81612732565b82525050565b611efb8161273e565b82525050565b6000611f0c82612559565b611f16818561259e565b9350611f268185602086016127fa565b80840191505092915050565b611f3b816127c7565b82525050565b6000611f4c82612564565b611f5681856125a9565b9350611f668185602086016127fa565b611f6f816128cf565b840191505092915050565b6000611f8582612564565b611f8f81856125ba565b9350611f9f8185602086016127fa565b80840191505092915050565b6000611fb86020836125a9565b9150611fc3826128e0565b602082019050919050565b6000611fdb6002836125a9565b9150611fe682612909565b602082019050919050565b6000611ffe602e836125a9565b915061200982612932565b604082019050919050565b60006120216025836125a9565b915061202c82612981565b604082019050919050565b60006120446022836125a9565b915061204f826129d0565b604082019050919050565b60006120676002836125a9565b915061207282612a1f565b602082019050919050565b600061208a6003836125a9565b915061209582612a48565b602082019050919050565b60006120ad6017836125ba565b91506120b882612a71565b601782019050919050565b60006120d06011836125ba565b91506120db82612a9a565b601182019050919050565b60006120f3602f836125a9565b91506120fe82612ac3565b604082019050919050565b610100820160008201516121206000850182611e10565b5060208201516121336020850182611e10565b50604082015161214660408501826121ba565b5060608201516121596060850182611e10565b50608082015161216c60808501826121c9565b5060a082015161217f60a08501826121c9565b5060c082015161219260c08501826121c9565b5060e08201516121a560e08501826121ab565b50505050565b6121b48161277e565b82525050565b6121c38161279e565b82525050565b6121d2816127ad565b82525050565b6121e1816127ad565b82525050565b60006121f38284611f01565b915081905092915050565b6000612209826120a0565b91506122158285611f7a565b9150612220826120c3565b915061222c8284611f7a565b91508190509392505050565b600060208201905061224d6000830184611e1f565b92915050565b60006060820190506122686000830186611e1f565b6122756020830185611e1f565b61228260408301846121d8565b949350505050565b600060408201905061229f6000830185611e1f565b6122ac60208301846121d8565b9392505050565b600060408201905081810360008301526122ce818688611e2e565b905081810360208301526122e3818486611e8b565b905095945050505050565b60006020820190506123036000830184611ee3565b92915050565b600060208201905061231e6000830184611ef2565b92915050565b60006020820190506123396000830184611f32565b92915050565b600060208201905081810360008301526123598184611f41565b905092915050565b6000602082019050818103600083015261237a81611fab565b9050919050565b6000602082019050818103600083015261239a81611fce565b9050919050565b600060208201905081810360008301526123ba81611ff1565b9050919050565b600060208201905081810360008301526123da81612014565b9050919050565b600060208201905081810360008301526123fa81612037565b9050919050565b6000602082019050818103600083015261241a8161205a565b9050919050565b6000602082019050818103600083015261243a8161207d565b9050919050565b6000602082019050818103600083015261245a816120e6565b9050919050565b6000610100820190506124776000830184612109565b92915050565b6000808335600160200384360303811261249657600080fd5b80840192508235915067ffffffffffffffff8211156124b457600080fd5b6020830192506020820236038313156124cc57600080fd5b509250929050565b600080833560016020038436030381126124ed57600080fd5b80840192508235915067ffffffffffffffff82111561250b57600080fd5b60208301925060208202360383131561252357600080fd5b509250929050565b60008235600160800383360303811261254357600080fd5b80830191505092915050565b6000819050919050565b600081519050919050565b600081519050919050565b6000602082019050919050565b600082825260208201905092915050565b600082825260208201905092915050565b600081905092915050565b600082825260208201905092915050565b600081905092915050565b60006125d46020840184611a9e565b905092915050565b60006125e7826127ad565b91506125f2836127ad565b9250827fffffffffffffffffffffffffffffffffffffffffffffffffffffffffffffffff03821115612627576126266128a0565b5b828201905092915050565b600061263d826127ad565b9150612648836127ad565b9250817fffffffffffffffffffffffffffffffffffffffffffffffffffffffffffffffff0483118215151615612681576126806128a0565b5b828202905092915050565b600061269782612774565b91506126a283612774565b9250827f8000000000000000000000000000000000000000000000000000000000000000018212600084121516156126dd576126dc6128a0565b5b827f7fffffffffffffffffffffffffffffffffffffffffffffffffffffffffffffff018213600084121615612715576127146128a0565b5b828203905092915050565b600061272b8261277e565b9050919050565b60008115159050919050565b6000819050919050565b60007fffffffff0000000000000000000000000000000000000000000000000000000082169050919050565b6000819050919050565b600073ffffffffffffffffffffffffffffffffffffffff82169050919050565b600062ffffff82169050919050565b6000819050919050565b600063ffffffff82169050919050565b60006127d2826127d9565b9050919050565b60006127e48261277e565b9050919050565b82818337600083830152505050565b60005b838110156128185780820151818401526020810190506127fd565b83811115612827576000848401525b50505050565b6000612838826127ad565b9150600082141561284c5761284b6128a0565b5b600182039050919050565b6000612862826127ad565b91507fffffffffffffffffffffffffffffffffffffffffffffffffffffffffffffffff821415612895576128946128a0565b5b600182019050919050565b7f4e487b7100000000000000000000000000000000000000000000000000000000600052601160045260246000fd5b6000601f19601f8301169050919050565b7f537472696e67733a20686578206c656e67746820696e73756666696369656e74600082015250565b7f5341000000000000000000000000000000000000000000000000000000000000600082015250565b7f496e697469616c697a61626c653a20636f6e747261637420697320616c72656160008201527f647920696e697469616c697a6564000000000000000000000000000000000000602082015250565b7f426f746820617272617973206d7573742068617665207468652073616d65206c60008201527f656e677468000000000000000000000000000000000000000000000000000000602082015250565b7f45524332303a2063616e6e6f742072656769737465722061203020616464726560008201527f7373000000000000000000000000000000000000000000000000000000000000602082015250565b7f5354000000000000000000000000000000000000000000000000000000000000600082015250565b7f5354460000000000000000000000000000000000000000000000000000000000600082015250565b7f416363657373436f6e74726f6c3a206163636f756e7420000000000000000000600082015250565b7f206973206d697373696e6720726f6c6520000000000000000000000000000000600082015250565b7f416363657373436f6e74726f6c3a2063616e206f6e6c792072656e6f756e636560008201527f20726f6c657320666f722073656c660000000000000000000000000000000000602082015250565b612b1b81612720565b8114612b2657600080fd5b50565b612b3281612732565b8114612b3d57600080fd5b50565b612b498161273e565b8114612b5457600080fd5b50565b612b6081612748565b8114612b6b57600080fd5b50565b612b778161279e565b8114612b8257600080fd5b50565b612b8e816127ad565b8114612b9957600080fd5b50565b612ba5816127b7565b8114612bb057600080fd5b5056fea26469706673582212202a5bbcd7840f3068815a33873f1109588f88320277d08a094eec69c35d329fce64736f6c63430008040033",
  "devdoc": {
    "author": "Lucas Marc",
    "kind": "dev",
    "methods": {
      "getRoleAdmin(bytes32)": {
        "details": "Returns the admin role that controls `role`. See {grantRole} and {revokeRole}. To change a role's admin, use {_setRoleAdmin}."
      },
      "grantRole(bytes32,address)": {
        "details": "Grants `role` to `account`. If `account` had not been already granted `role`, emits a {RoleGranted} event. Requirements: - the caller must have ``role``'s admin role."
      },
      "hasRole(bytes32,address)": {
        "details": "Returns `true` if `account` has been granted `role`."
      },
      "performSwapAndPayment(address,uint256,uint32,(address,uint256,uint256,uint24)[],(address,uint256,address[],uint256[])[])": {
        "params": {
          "_deadline": "The unix timestamp after a swap will fail",
          "_erc20TokenOrigin": "ERC20 token address to swap for another",
          "_payments": "The array of the Payment data",
          "_swaps": "The array of the Swaps data",
          "_totalAmountToSpend": "Total amount of erc20TokenOrigin to spend in swaps and payments. You must know the total amount of erc20TokenOrigin to spend on swaps and also to spend on payments."
        }
      },
      "renounceRole(bytes32,address)": {
        "details": "Revokes `role` from the calling account. Roles are often managed via {grantRole} and {revokeRole}: this function's purpose is to provide a mechanism for accounts to lose their privileges if they are compromised (such as when a trusted device is misplaced). If the calling account had been revoked `role`, emits a {RoleRevoked} event. Requirements: - the caller must be `account`."
      },
      "revokeRole(bytes32,address)": {
        "details": "Revokes `role` from `account`. If `account` had been granted `role`, emits a {RoleRevoked} event. Requirements: - the caller must have ``role``'s admin role."
      },
      "supportsInterface(bytes4)": {
        "details": "See {IERC165-supportsInterface}."
      }
    },
    "title": "A contract that allows multiple payments in one transaction",
    "version": 1
  },
  "userdoc": {
    "kind": "user",
    "methods": {
      "performSwapAndPayment(address,uint256,uint32,(address,uint256,uint256,uint24)[],(address,uint256,address[],uint256[])[])": {
        "notice": "Perform the swap, the transfer and finally the payment to the given addressesCurrently the function only works with ERC20 tokens"
      }
    },
    "version": 1
  },
  "storageLayout": {
    "storage": [
      {
        "astId": 6,
        "contract": "contracts/Payroll.sol:Payroll",
        "label": "_initialized",
        "offset": 0,
        "slot": "0",
        "type": "t_bool"
      },
      {
        "astId": 9,
        "contract": "contracts/Payroll.sol:Payroll",
        "label": "_initializing",
        "offset": 1,
        "slot": "0",
        "type": "t_bool"
      },
      {
        "astId": 341,
        "contract": "contracts/Payroll.sol:Payroll",
        "label": "_roles",
        "offset": 0,
        "slot": "1",
        "type": "t_mapping(t_bytes32,t_struct(RoleData)336_storage)"
      },
      {
        "astId": 3017,
        "contract": "contracts/Payroll.sol:Payroll",
        "label": "swapRouter",
        "offset": 0,
        "slot": "2",
        "type": "t_contract(ISwapRouter)2822"
      },
      {
        "astId": 3019,
        "contract": "contracts/Payroll.sol:Payroll",
        "label": "owner",
        "offset": 0,
        "slot": "3",
        "type": "t_address"
      }
    ],
    "types": {
      "t_address": {
        "encoding": "inplace",
        "label": "address",
        "numberOfBytes": "20"
      },
      "t_bool": {
        "encoding": "inplace",
        "label": "bool",
        "numberOfBytes": "1"
      },
      "t_bytes32": {
        "encoding": "inplace",
        "label": "bytes32",
        "numberOfBytes": "32"
      },
      "t_contract(ISwapRouter)2822": {
        "encoding": "inplace",
        "label": "contract ISwapRouter",
        "numberOfBytes": "20"
      },
      "t_mapping(t_address,t_bool)": {
        "encoding": "mapping",
        "key": "t_address",
        "label": "mapping(address => bool)",
        "numberOfBytes": "32",
        "value": "t_bool"
      },
      "t_mapping(t_bytes32,t_struct(RoleData)336_storage)": {
        "encoding": "mapping",
        "key": "t_bytes32",
        "label": "mapping(bytes32 => struct AccessControl.RoleData)",
        "numberOfBytes": "32",
        "value": "t_struct(RoleData)336_storage"
      },
      "t_struct(RoleData)336_storage": {
        "encoding": "inplace",
        "label": "struct AccessControl.RoleData",
        "members": [
          {
            "astId": 333,
            "contract": "contracts/Payroll.sol:Payroll",
            "label": "members",
            "offset": 0,
            "slot": "0",
            "type": "t_mapping(t_address,t_bool)"
          },
          {
            "astId": 335,
            "contract": "contracts/Payroll.sol:Payroll",
            "label": "adminRole",
            "offset": 0,
            "slot": "1",
            "type": "t_bytes32"
          }
        ],
        "numberOfBytes": "64"
      }
    }
  }
}