{
  "address": "0x17a2e8962d8fCba27FC3Ce09F715904359aA2085",
  "abi": [
    {
      "anonymous": false,
      "inputs": [
        {
          "indexed": false,
          "internalType": "address[]",
          "name": "_receivers",
          "type": "address[]"
        },
        {
          "indexed": false,
          "internalType": "uint256[]",
          "name": "_amountsToTransfer",
          "type": "uint256[]"
        }
      ],
      "name": "BatchPaymentFinished",
      "type": "event"
    },
    {
      "anonymous": false,
      "inputs": [
        {
          "indexed": true,
          "internalType": "bytes32",
          "name": "role",
          "type": "bytes32"
        },
        {
          "indexed": true,
          "internalType": "bytes32",
          "name": "previousAdminRole",
          "type": "bytes32"
        },
        {
          "indexed": true,
          "internalType": "bytes32",
          "name": "newAdminRole",
          "type": "bytes32"
        }
      ],
      "name": "RoleAdminChanged",
      "type": "event"
    },
    {
      "anonymous": false,
      "inputs": [
        {
          "indexed": true,
          "internalType": "bytes32",
          "name": "role",
          "type": "bytes32"
        },
        {
          "indexed": true,
          "internalType": "address",
          "name": "account",
          "type": "address"
        },
        {
          "indexed": true,
          "internalType": "address",
          "name": "sender",
          "type": "address"
        }
      ],
      "name": "RoleGranted",
      "type": "event"
    },
    {
      "anonymous": false,
      "inputs": [
        {
          "indexed": true,
          "internalType": "bytes32",
          "name": "role",
          "type": "bytes32"
        },
        {
          "indexed": true,
          "internalType": "address",
          "name": "account",
          "type": "address"
        },
        {
          "indexed": true,
          "internalType": "address",
          "name": "sender",
          "type": "address"
        }
      ],
      "name": "RoleRevoked",
      "type": "event"
    },
    {
      "anonymous": false,
      "inputs": [
        {
          "indexed": false,
          "internalType": "address",
          "name": "_tokenIn",
          "type": "address"
        },
        {
          "indexed": false,
          "internalType": "address",
          "name": "_tokenOut",
          "type": "address"
        },
        {
          "indexed": false,
          "internalType": "uint256",
          "name": "_amountReceived",
          "type": "uint256"
        }
      ],
      "name": "SwapFinished",
      "type": "event"
    },
    {
      "inputs": [],
      "name": "ADMIN_ROLE",
      "outputs": [
        {
          "internalType": "bytes32",
          "name": "",
          "type": "bytes32"
        }
      ],
      "stateMutability": "view",
      "type": "function"
    },
    {
      "inputs": [],
      "name": "DEFAULT_ADMIN_ROLE",
      "outputs": [
        {
          "internalType": "bytes32",
          "name": "",
          "type": "bytes32"
        }
      ],
      "stateMutability": "view",
      "type": "function"
    },
    {
      "inputs": [],
      "name": "PAYER_ROLE",
      "outputs": [
        {
          "internalType": "bytes32",
          "name": "",
          "type": "bytes32"
        }
      ],
      "stateMutability": "view",
      "type": "function"
    },
    {
      "inputs": [
        {
          "internalType": "bytes32",
          "name": "role",
          "type": "bytes32"
        }
      ],
      "name": "getRoleAdmin",
      "outputs": [
        {
          "internalType": "bytes32",
          "name": "",
          "type": "bytes32"
        }
      ],
      "stateMutability": "view",
      "type": "function"
    },
    {
      "inputs": [
        {
          "internalType": "bytes32",
          "name": "role",
          "type": "bytes32"
        },
        {
          "internalType": "address",
          "name": "account",
          "type": "address"
        }
      ],
      "name": "grantRole",
      "outputs": [],
      "stateMutability": "nonpayable",
      "type": "function"
    },
    {
      "inputs": [
        {
          "internalType": "bytes32",
          "name": "role",
          "type": "bytes32"
        },
        {
          "internalType": "address",
          "name": "account",
          "type": "address"
        }
      ],
      "name": "hasRole",
      "outputs": [
        {
          "internalType": "bool",
          "name": "",
          "type": "bool"
        }
      ],
      "stateMutability": "view",
      "type": "function"
    },
    {
      "inputs": [
        {
          "internalType": "address",
          "name": "_owner",
          "type": "address"
        },
        {
          "internalType": "address",
          "name": "_swapRouter",
          "type": "address"
        }
      ],
      "name": "initialize",
      "outputs": [],
      "stateMutability": "nonpayable",
      "type": "function"
    },
    {
      "inputs": [],
      "name": "owner",
      "outputs": [
        {
          "internalType": "address",
          "name": "",
          "type": "address"
        }
      ],
      "stateMutability": "view",
      "type": "function"
    },
    {
      "inputs": [
        {
          "internalType": "address",
          "name": "_erc20TokenOrigin",
          "type": "address"
        },
        {
          "internalType": "uint256",
          "name": "_totalAmountToSpend",
          "type": "uint256"
        },
        {
          "internalType": "uint32",
          "name": "_deadline",
          "type": "uint32"
        },
        {
          "components": [
            {
              "internalType": "address",
              "name": "token",
              "type": "address"
            },
            {
              "internalType": "uint256",
              "name": "amountOut",
              "type": "uint256"
            },
            {
              "internalType": "uint256",
              "name": "amountInMax",
              "type": "uint256"
            },
            {
              "internalType": "uint24",
              "name": "poolFee",
              "type": "uint24"
            }
          ],
          "internalType": "struct Payroll.Swap[]",
          "name": "_swaps",
          "type": "tuple[]"
        },
        {
          "components": [
            {
              "internalType": "address",
              "name": "token",
              "type": "address"
            },
            {
              "internalType": "uint256",
              "name": "totalAmountToPay",
              "type": "uint256"
            },
            {
              "internalType": "address[]",
              "name": "receivers",
              "type": "address[]"
            },
            {
              "internalType": "uint256[]",
              "name": "amountsToTransfer",
              "type": "uint256[]"
            }
          ],
          "internalType": "struct Payroll.Payment[]",
          "name": "_payments",
          "type": "tuple[]"
        }
      ],
      "name": "performSwapAndPayment",
      "outputs": [],
      "stateMutability": "nonpayable",
      "type": "function"
    },
    {
      "inputs": [
        {
          "internalType": "bytes32",
          "name": "role",
          "type": "bytes32"
        },
        {
          "internalType": "address",
          "name": "account",
          "type": "address"
        }
      ],
      "name": "renounceRole",
      "outputs": [],
      "stateMutability": "nonpayable",
      "type": "function"
    },
    {
      "inputs": [
        {
          "internalType": "bytes32",
          "name": "role",
          "type": "bytes32"
        },
        {
          "internalType": "address",
          "name": "account",
          "type": "address"
        }
      ],
      "name": "revokeRole",
      "outputs": [],
      "stateMutability": "nonpayable",
      "type": "function"
    },
    {
      "inputs": [
        {
          "internalType": "bytes4",
          "name": "interfaceId",
          "type": "bytes4"
        }
      ],
      "name": "supportsInterface",
      "outputs": [
        {
          "internalType": "bool",
          "name": "",
          "type": "bool"
        }
      ],
      "stateMutability": "view",
      "type": "function"
    },
    {
      "inputs": [],
      "name": "swapRouter",
      "outputs": [
        {
          "internalType": "contract ISwapRouter",
          "name": "",
          "type": "address"
        }
      ],
      "stateMutability": "view",
      "type": "function"
    }
  ],
  "transactionHash": "0xecd8a10559079996e737bc93613870f3cacd5a4f1a941e3a6b9a7a3e47ae6ee7",
  "args": [],
  "numDeployments": 4,
  "solcInputHash": "5761adb4ccbac81c749a14774498d190",
  "bytecode": "0x608060405234801561001057600080fd5b506116ba806100206000396000f3fe608060405234801561001057600080fd5b50600436106100cf5760003560e01c806377f050b01161008c57806391d148541161006657806391d14854146101d6578063a217fddf14610169578063c31c9c07146101e9578063d547741f146101fc57600080fd5b806377f050b014610171578063891aad70146101985780638da5cb5b146101ab57600080fd5b806301ffc9a7146100d4578063248a9ca3146100fc5780632f2ff15d1461012e57806336568abe14610143578063485cc9551461015657806375b238fc14610169575b600080fd5b6100e76100e2366004611199565b61020f565b60405190151581526020015b60405180910390f35b61012061010a3660046111c3565b6000908152600160208190526040909120015490565b6040519081526020016100f3565b61014161013c3660046111f8565b610246565b005b6101416101513660046111f8565b610272565b610141610164366004611224565b6102f5565b610120600081565b6101207f8ec07e268e32cae7f300b49ad34f20106d088445cb9d9b2d62cbd864638308b281565b6101416101a636600461129a565b610414565b6003546101be906001600160a01b031681565b6040516001600160a01b0390911681526020016100f3565b6100e76101e43660046111f8565b610479565b6002546101be906001600160a01b031681565b61014161020a3660046111f8565b6104a4565b60006001600160e01b03198216637965db0b60e01b148061024057506301ffc9a760e01b6001600160e01b03198316145b92915050565b6000828152600160208190526040909120015461026381336104cb565b61026d838361052f565b505050565b6001600160a01b03811633146102e75760405162461bcd60e51b815260206004820152602f60248201527f416363657373436f6e74726f6c3a2063616e206f6e6c792072656e6f756e636560448201526e103937b632b9903337b91039b2b63360891b60648201526084015b60405180910390fd5b6102f1828261059a565b5050565b600054610100900460ff166103105760005460ff1615610314565b303b155b6103775760405162461bcd60e51b815260206004820152602e60248201527f496e697469616c697a61626c653a20636f6e747261637420697320616c72656160448201526d191e481a5b9a5d1a585b1a5e995960921b60648201526084016102de565b600054610100900460ff16158015610399576000805461ffff19166101011790555b600380546001600160a01b038086166001600160a01b03199283161790925560028054928516929091169190911790556103d4600084610601565b6103fe7f8ec07e268e32cae7f300b49ad34f20106d088445cb9d9b2d62cbd864638308b284610601565b801561026d576000805461ff0019169055505050565b7f8ec07e268e32cae7f300b49ad34f20106d088445cb9d9b2d62cbd864638308b261043f81336104cb565b831561045257610452888888888861060b565b61045c8383610702565b6104668383610873565b61046f88610968565b5050505050505050565b60009182526001602090815260408084206001600160a01b0393909316845291905290205460ff1690565b600082815260016020819052604090912001546104c181336104cb565b61026d838361059a565b6104d58282610479565b6102f1576104ed816001600160a01b031660146109f7565b6104f88360206109f7565b6040516020016105099291906113a1565b60408051601f198184030181529082905262461bcd60e51b82526102de91600401611416565b6105398282610479565b6102f15760008281526001602081815260408084206001600160a01b0386168086529252808420805460ff19169093179092559051339285917f2f8788117e7eff1d82e926ec794901d17c78024a50270940304540a733656f0d9190a45050565b6105a48282610479565b156102f15760008281526001602090815260408083206001600160a01b0385168085529252808320805460ff1916905551339285917ff6391f5c32d9c69d2a47ea670b442974b53935d1edc7fd64eb21e047a839171b9190a45050565b6102f1828261052f565b61061785333087610b9a565b60025461062f9086906001600160a01b031686610ca4565b60005b818110156106e1576106ce8684848481811061065057610650611449565b610666926020608090920201908101915061145f565b85858581811061067857610678611449565b9050608002016060016020810190610690919061147a565b8686868181106106a2576106a2611449565b905060800201602001358787878181106106be576106be611449565b9050608002016040013589610d9d565b50806106d9816114b5565b915050610632565b506002546106fb9086906001600160a01b03166000610ca4565b5050505050565b60005b8181101561026d57600083838381811061072157610721611449565b905060200281019061073391906114d0565b61074190602081019061145f565b6040516370a0823160e01b81523060048201529091506000906001600160a01b038316906370a082319060240160206040518083038186803b15801561078657600080fd5b505afa15801561079a573d6000803e3d6000fd5b505050506040513d601f19601f820116820180604052508101906107be91906114f0565b9050808585858181106107d3576107d3611449565b90506020028101906107e591906114d0565b60200135111561085e5761085e85858581811061080457610804611449565b905060200281019061081691906114d0565b61082490602081019061145f565b33308489898981811061083957610839611449565b905060200281019061084b91906114d0565b602001356108599190611509565b610b9a565b5050808061086b906114b5565b915050610705565b60005b8181101561026d5761091c83838381811061089357610893611449565b90506020028101906108a591906114d0565b6108b390602081019061145f565b8484848181106108c5576108c5611449565b90506020028101906108d791906114d0565b6108e5906040810190611520565b8686868181106108f7576108f7611449565b905060200281019061090991906114d0565b610917906060810190611520565b610f02565b61095683838381811061093157610931611449565b905060200281019061094391906114d0565b61095190602081019061145f565b610968565b80610960816114b5565b915050610876565b6040516370a0823160e01b815230600482015281906000906001600160a01b038316906370a082319060240160206040518083038186803b1580156109ac57600080fd5b505afa1580156109c0573d6000803e3d6000fd5b505050506040513d601f19601f820116820180604052508101906109e491906114f0565b9050801561026d5761026d8333836110a0565b60606000610a0683600261156a565b610a11906002611589565b67ffffffffffffffff811115610a2957610a296115a1565b6040519080825280601f01601f191660200182016040528015610a53576020820181803683370190505b509050600360fc1b81600081518110610a6e57610a6e611449565b60200101906001600160f81b031916908160001a905350600f60fb1b81600181518110610a9d57610a9d611449565b60200101906001600160f81b031916908160001a9053506000610ac184600261156a565b610acc906001611589565b90505b6001811115610b44576f181899199a1a9b1b9c1cb0b131b232b360811b85600f1660108110610b0057610b00611449565b1a60f81b828281518110610b1657610b16611449565b60200101906001600160f81b031916908160001a90535060049490941c93610b3d816115b7565b9050610acf565b508315610b935760405162461bcd60e51b815260206004820181905260248201527f537472696e67733a20686578206c656e67746820696e73756666696369656e7460448201526064016102de565b9392505050565b604080516001600160a01b0385811660248301528481166044830152606480830185905283518084039091018152608490920183526020820180516001600160e01b03166323b872dd60e01b1790529151600092839290881691610bfe91906115ce565b6000604051808303816000865af19150503d8060008114610c3b576040519150601f19603f3d011682016040523d82523d6000602084013e610c40565b606091505b5091509150818015610c6a575080511580610c6a575080806020019051810190610c6a91906115e0565b610c9c5760405162461bcd60e51b815260206004820152600360248201526229aa2360e91b60448201526064016102de565b505050505050565b604080516001600160a01b038481166024830152604480830185905283518084039091018152606490920183526020820180516001600160e01b031663095ea7b360e01b1790529151600092839290871691610d0091906115ce565b6000604051808303816000865af19150503d8060008114610d3d576040519150601f19603f3d011682016040523d82523d6000602084013e610d42565b606091505b5091509150818015610d6c575080511580610d6c575080806020019051810190610d6c91906115e0565b6106fb5760405162461bcd60e51b8152602060048201526002602482015261534160f01b60448201526064016102de565b60408051610100810182526001600160a01b0388811682528781166020830190815262ffffff888116848601908152306060860190815263ffffffff88166080870190815260a087018b815260c088018b8152600060e08a018181526002549b51631b67c43360e31b81528b518b16600482015298518a1660248a015295519096166044880152925187166064870152905160848601525160a48501525160c484015251831660e4830152939091169063db3e21989061010401602060405180830381600087803b158015610e7157600080fd5b505af1158015610e85573d6000803e3d6000fd5b505050506040513d601f19601f82011682018060405250810190610ea991906114f0565b604080516001600160a01b03808c1682528a1660208201529081018290529092507f2d8d9d7f49599a20c9e475f932138bdf56ab8ddbcd627a642030d3d788012b569060600160405180910390a1509695505050505050565b808314610f5f5760405162461bcd60e51b815260206004820152602560248201527f426f746820617272617973206d7573742068617665207468652073616d65206c6044820152640cadccee8d60db1b60648201526084016102de565b60008060005b8581101561105957868682818110610f7f57610f7f611449565b9050602002016020810190610f94919061145f565b92506000878783818110610faa57610faa611449565b9050602002016020810190610fbf919061145f565b6001600160a01b031614156110215760405162461bcd60e51b815260206004820152602260248201527f45524332303a2063616e6e6f7420726567697374657220612030206164647265604482015261737360f01b60648201526084016102de565b84848281811061103357611033611449565b9050602002013591506110478884846110a0565b80611051816114b5565b915050610f65565b507f6b82a3962e5fe7c719b4bec2b902045249682ce10c3004d113ae455e5d8c563d8686868660405161108f9493929190611602565b60405180910390a150505050505050565b604080516001600160a01b038481166024830152604480830185905283518084039091018152606490920183526020820180516001600160e01b031663a9059cbb60e01b17905291516000928392908716916110fc91906115ce565b6000604051808303816000865af19150503d8060008114611139576040519150601f19603f3d011682016040523d82523d6000602084013e61113e565b606091505b509150915081801561116857508051158061116857508080602001905181019061116891906115e0565b6106fb5760405162461bcd60e51b815260206004820152600260248201526114d560f21b60448201526064016102de565b6000602082840312156111ab57600080fd5b81356001600160e01b031981168114610b9357600080fd5b6000602082840312156111d557600080fd5b5035919050565b80356001600160a01b03811681146111f357600080fd5b919050565b6000806040838503121561120b57600080fd5b8235915061121b602084016111dc565b90509250929050565b6000806040838503121561123757600080fd5b611240836111dc565b915061121b602084016111dc565b60008083601f84011261126057600080fd5b50813567ffffffffffffffff81111561127857600080fd5b6020830191508360208260051b850101111561129357600080fd5b9250929050565b600080600080600080600060a0888a0312156112b557600080fd5b6112be886111dc565b965060208801359550604088013563ffffffff811681146112de57600080fd5b9450606088013567ffffffffffffffff808211156112fb57600080fd5b818a0191508a601f83011261130f57600080fd5b81358181111561131e57600080fd5b8b60208260071b850101111561133357600080fd5b6020830196508095505060808a013591508082111561135157600080fd5b5061135e8a828b0161124e565b989b979a50959850939692959293505050565b60005b8381101561138c578181015183820152602001611374565b8381111561139b576000848401525b50505050565b7f416363657373436f6e74726f6c3a206163636f756e74200000000000000000008152600083516113d9816017850160208801611371565b7001034b99036b4b9b9b4b733903937b6329607d1b601791840191820152835161140a816028840160208801611371565b01602801949350505050565b6020815260008251806020840152611435816040850160208701611371565b601f01601f19169190910160400192915050565b634e487b7160e01b600052603260045260246000fd5b60006020828403121561147157600080fd5b610b93826111dc565b60006020828403121561148c57600080fd5b813562ffffff81168114610b9357600080fd5b634e487b7160e01b600052601160045260246000fd5b60006000198214156114c9576114c961149f565b5060010190565b60008235607e198336030181126114e657600080fd5b9190910192915050565b60006020828403121561150257600080fd5b5051919050565b60008282101561151b5761151b61149f565b500390565b6000808335601e1984360301811261153757600080fd5b83018035915067ffffffffffffffff82111561155257600080fd5b6020019150600581901b360382131561129357600080fd5b60008160001904831182151516156115845761158461149f565b500290565b6000821982111561159c5761159c61149f565b500190565b634e487b7160e01b600052604160045260246000fd5b6000816115c6576115c661149f565b506000190190565b600082516114e6818460208701611371565b6000602082840312156115f257600080fd5b81518015158114610b9357600080fd5b6040808252810184905260008560608301825b87811015611643576001600160a01b0361162e846111dc565b16825260209283019290910190600101611615565b5083810360208501528481526001600160fb1b0385111561166357600080fd5b8460051b91508186602083013760009101602001908152969550505050505056fea26469706673582212200662ad6c1f853d5cd4e71f6d39f742ec2dafbaddd1fa1b3f54006d8f5cd8ce9864736f6c63430008090033",
  "devdoc": {
    "author": "Lucas Marc",
    "kind": "dev",
    "methods": {
      "getRoleAdmin(bytes32)": {
        "details": "Returns the admin role that controls `role`. See {grantRole} and {revokeRole}. To change a role's admin, use {_setRoleAdmin}."
      },
      "grantRole(bytes32,address)": {
        "details": "Grants `role` to `account`. If `account` had not been already granted `role`, emits a {RoleGranted} event. Requirements: - the caller must have ``role``'s admin role."
      },
      "hasRole(bytes32,address)": {
        "details": "Returns `true` if `account` has been granted `role`."
      },
      "performSwapAndPayment(address,uint256,uint32,(address,uint256,uint256,uint24)[],(address,uint256,address[],uint256[])[])": {
        "params": {
          "_deadline": "The unix timestamp after a swap will fail",
          "_erc20TokenOrigin": "ERC20 token address to swap for another",
          "_payments": "The array of the Payment data",
          "_swaps": "The array of the Swaps data",
          "_totalAmountToSpend": "Total amount of erc20TokenOrigin to spend in swaps and payments. You must know the total amount of erc20TokenOrigin to spend on swaps and also to spend on payments."
        }
      },
      "renounceRole(bytes32,address)": {
        "details": "Revokes `role` from the calling account. Roles are often managed via {grantRole} and {revokeRole}: this function's purpose is to provide a mechanism for accounts to lose their privileges if they are compromised (such as when a trusted device is misplaced). If the calling account had been revoked `role`, emits a {RoleRevoked} event. Requirements: - the caller must be `account`."
      },
      "revokeRole(bytes32,address)": {
        "details": "Revokes `role` from `account`. If `account` had been granted `role`, emits a {RoleRevoked} event. Requirements: - the caller must have ``role``'s admin role."
      },
      "supportsInterface(bytes4)": {
        "details": "See {IERC165-supportsInterface}."
      }
    },
    "title": "A contract that allows multiple payments in one transaction",
    "version": 1
  },
  "userdoc": {
    "kind": "user",
    "methods": {
      "performSwapAndPayment(address,uint256,uint32,(address,uint256,uint256,uint24)[],(address,uint256,address[],uint256[])[])": {
        "notice": "Perform the swap, the transfer and finally the payment to the given addressesCurrently the function only works with ERC20 tokens"
      }
    },
    "version": 1
  },
  "storageLayout": {
    "storage": [
      {
        "astId": 6,
        "contract": "contracts/Payroll.sol:Payroll",
        "label": "_initialized",
        "offset": 0,
        "slot": "0",
        "type": "t_bool"
      },
      {
        "astId": 9,
        "contract": "contracts/Payroll.sol:Payroll",
        "label": "_initializing",
        "offset": 1,
        "slot": "0",
        "type": "t_bool"
      },
      {
        "astId": 341,
        "contract": "contracts/Payroll.sol:Payroll",
        "label": "_roles",
        "offset": 0,
        "slot": "1",
        "type": "t_mapping(t_bytes32,t_struct(RoleData)336_storage)"
      },
      {
        "astId": 2772,
        "contract": "contracts/Payroll.sol:Payroll",
        "label": "swapRouter",
        "offset": 0,
        "slot": "2",
        "type": "t_contract(ISwapRouter)2577"
      },
      {
        "astId": 2774,
        "contract": "contracts/Payroll.sol:Payroll",
        "label": "owner",
        "offset": 0,
        "slot": "3",
        "type": "t_address"
      }
    ],
    "types": {
      "t_address": {
        "encoding": "inplace",
        "label": "address",
        "numberOfBytes": "20"
      },
      "t_bool": {
        "encoding": "inplace",
        "label": "bool",
        "numberOfBytes": "1"
      },
      "t_bytes32": {
        "encoding": "inplace",
        "label": "bytes32",
        "numberOfBytes": "32"
      },
      "t_contract(ISwapRouter)2577": {
        "encoding": "inplace",
        "label": "contract ISwapRouter",
        "numberOfBytes": "20"
      },
      "t_mapping(t_address,t_bool)": {
        "encoding": "mapping",
        "key": "t_address",
        "label": "mapping(address => bool)",
        "numberOfBytes": "32",
        "value": "t_bool"
      },
      "t_mapping(t_bytes32,t_struct(RoleData)336_storage)": {
        "encoding": "mapping",
        "key": "t_bytes32",
        "label": "mapping(bytes32 => struct AccessControl.RoleData)",
        "numberOfBytes": "32",
        "value": "t_struct(RoleData)336_storage"
      },
      "t_struct(RoleData)336_storage": {
        "encoding": "inplace",
        "label": "struct AccessControl.RoleData",
        "members": [
          {
            "astId": 333,
            "contract": "contracts/Payroll.sol:Payroll",
            "label": "members",
            "offset": 0,
            "slot": "0",
            "type": "t_mapping(t_address,t_bool)"
          },
          {
            "astId": 335,
            "contract": "contracts/Payroll.sol:Payroll",
            "label": "adminRole",
            "offset": 0,
            "slot": "1",
            "type": "t_bytes32"
          }
        ],
        "numberOfBytes": "64"
      }
    }
  }
}