{
  "address": "0x229C76049b205436D49705922782Bfb182e26676",
  "abi": [
    {
      "anonymous": false,
      "inputs": [
        {
          "indexed": false,
          "internalType": "address",
          "name": "_erc20TokenAddress",
          "type": "address"
        },
        {
          "indexed": false,
          "internalType": "address[]",
          "name": "_receivers",
          "type": "address[]"
        },
        {
          "indexed": false,
          "internalType": "uint256[]",
          "name": "_amountsToTransfer",
          "type": "uint256[]"
        }
      ],
      "name": "BatchPaymentFinished",
      "type": "event"
    },
    {
      "anonymous": false,
      "inputs": [
        {
          "indexed": false,
          "internalType": "address",
          "name": "_feeAddress",
          "type": "address"
        }
      ],
      "name": "FeeAddressChanged",
      "type": "event"
    },
    {
      "anonymous": false,
      "inputs": [
        {
          "indexed": false,
          "internalType": "uint256",
          "name": "_fee",
          "type": "uint256"
        }
      ],
      "name": "FeeChanged",
      "type": "event"
    },
    {
      "anonymous": false,
      "inputs": [
        {
          "indexed": false,
          "internalType": "address",
          "name": "_erc20TokenAddress",
          "type": "address"
        },
        {
          "indexed": false,
          "internalType": "address",
          "name": "_feeAddress",
          "type": "address"
        },
        {
          "indexed": false,
          "internalType": "uint256",
          "name": "_fees",
          "type": "uint256"
        }
      ],
      "name": "FeeCharged",
      "type": "event"
    },
    {
      "anonymous": false,
      "inputs": [
        {
          "indexed": true,
          "internalType": "address",
          "name": "previousOwner",
          "type": "address"
        },
        {
          "indexed": true,
          "internalType": "address",
          "name": "newOwner",
          "type": "address"
        }
      ],
      "name": "OwnershipTransferred",
      "type": "event"
    },
    {
      "anonymous": false,
      "inputs": [
        {
          "indexed": false,
          "internalType": "address",
          "name": "_tokenIn",
          "type": "address"
        },
        {
          "indexed": false,
          "internalType": "address",
          "name": "_tokenOut",
          "type": "address"
        },
        {
          "indexed": false,
          "internalType": "uint256",
          "name": "_amountReceived",
          "type": "uint256"
        }
      ],
      "name": "SwapFinished",
      "type": "event"
    },
    {
      "anonymous": false,
      "inputs": [
        {
          "indexed": false,
          "internalType": "address",
          "name": "_swapRouter",
          "type": "address"
        },
        {
          "indexed": false,
          "internalType": "bool",
          "name": "_isSwapV2",
          "type": "bool"
        }
      ],
      "name": "SwapRouterChanged",
      "type": "event"
    },
    {
      "inputs": [],
      "name": "MANTISSA",
      "outputs": [
        {
          "internalType": "uint256",
          "name": "",
          "type": "uint256"
        }
      ],
      "stateMutability": "view",
      "type": "function"
    },
    {
      "inputs": [
        {
          "internalType": "address[]",
          "name": "_erc20TokenOrigin",
          "type": "address[]"
        }
      ],
      "name": "approveTokens",
      "outputs": [],
      "stateMutability": "nonpayable",
      "type": "function"
    },
    {
      "inputs": [],
      "name": "fee",
      "outputs": [
        {
          "internalType": "uint256",
          "name": "",
          "type": "uint256"
        }
      ],
      "stateMutability": "view",
      "type": "function"
    },
    {
      "inputs": [],
      "name": "feeAddress",
      "outputs": [
        {
          "internalType": "address",
          "name": "",
          "type": "address"
        }
      ],
      "stateMutability": "view",
      "type": "function"
    },
    {
      "inputs": [
        {
          "internalType": "address",
          "name": "_swapRouter",
          "type": "address"
        },
        {
          "internalType": "bool",
          "name": "_isSwapV2",
          "type": "bool"
        },
        {
          "internalType": "address",
          "name": "_feeAddress",
          "type": "address"
        },
        {
          "internalType": "uint256",
          "name": "_fee",
          "type": "uint256"
        }
      ],
      "name": "initialize",
      "outputs": [],
      "stateMutability": "nonpayable",
      "type": "function"
    },
    {
      "inputs": [],
      "name": "isSwapV2",
      "outputs": [
        {
          "internalType": "bool",
          "name": "",
          "type": "bool"
        }
      ],
      "stateMutability": "view",
      "type": "function"
    },
    {
      "inputs": [],
      "name": "owner",
      "outputs": [
        {
          "internalType": "address",
          "name": "",
          "type": "address"
        }
      ],
      "stateMutability": "view",
      "type": "function"
    },
    {
      "inputs": [
        {
          "components": [
            {
              "internalType": "address",
              "name": "token",
              "type": "address"
            },
            {
              "internalType": "address[]",
              "name": "receivers",
              "type": "address[]"
            },
            {
              "internalType": "uint256[]",
              "name": "amountsToTransfer",
              "type": "uint256[]"
            }
          ],
          "internalType": "struct Payroll.Payment[]",
          "name": "_payments",
          "type": "tuple[]"
        }
      ],
      "name": "performMultiPayment",
      "outputs": [],
      "stateMutability": "nonpayable",
      "type": "function"
    },
    {
      "inputs": [
        {
          "internalType": "address",
          "name": "_erc20TokenOrigin",
          "type": "address"
        },
        {
          "internalType": "uint256",
          "name": "_totalAmountToSwap",
          "type": "uint256"
        },
        {
          "internalType": "uint32",
          "name": "_deadline",
          "type": "uint32"
        },
        {
          "components": [
            {
              "internalType": "uint256",
              "name": "amountOut",
              "type": "uint256"
            },
            {
              "internalType": "uint256",
              "name": "amountInMax",
              "type": "uint256"
            },
            {
              "internalType": "address[]",
              "name": "path",
              "type": "address[]"
            }
          ],
          "internalType": "struct Payroll.SwapV2[]",
          "name": "_swaps",
          "type": "tuple[]"
        }
      ],
      "name": "performSwapV2",
      "outputs": [
        {
          "internalType": "uint256",
          "name": "",
          "type": "uint256"
        }
      ],
      "stateMutability": "nonpayable",
      "type": "function"
    },
    {
      "inputs": [
        {
          "internalType": "address",
          "name": "_erc20TokenOrigin",
          "type": "address"
        },
        {
          "internalType": "uint256",
          "name": "_totalAmountToSwap",
          "type": "uint256"
        },
        {
          "internalType": "uint32",
          "name": "_deadline",
          "type": "uint32"
        },
        {
          "components": [
            {
              "internalType": "uint256",
              "name": "amountOut",
              "type": "uint256"
            },
            {
              "internalType": "uint256",
              "name": "amountInMax",
              "type": "uint256"
            },
            {
              "internalType": "address[]",
              "name": "path",
              "type": "address[]"
            }
          ],
          "internalType": "struct Payroll.SwapV2[]",
          "name": "_swaps",
          "type": "tuple[]"
        },
        {
          "components": [
            {
              "internalType": "address",
              "name": "token",
              "type": "address"
            },
            {
              "internalType": "address[]",
              "name": "receivers",
              "type": "address[]"
            },
            {
              "internalType": "uint256[]",
              "name": "amountsToTransfer",
              "type": "uint256[]"
            }
          ],
          "internalType": "struct Payroll.Payment[]",
          "name": "_payments",
          "type": "tuple[]"
        }
      ],
      "name": "performSwapV2AndPayment",
      "outputs": [],
      "stateMutability": "nonpayable",
      "type": "function"
    },
    {
      "inputs": [
        {
          "internalType": "address",
          "name": "_erc20TokenOrigin",
          "type": "address"
        },
        {
          "internalType": "uint256",
          "name": "_totalAmountToSwap",
          "type": "uint256"
        },
        {
          "internalType": "uint32",
          "name": "_deadline",
          "type": "uint32"
        },
        {
          "components": [
            {
              "internalType": "uint256",
              "name": "amountOut",
              "type": "uint256"
            },
            {
              "internalType": "uint256",
              "name": "amountInMax",
              "type": "uint256"
            },
            {
              "internalType": "bytes",
              "name": "path",
              "type": "bytes"
            }
          ],
          "internalType": "struct Payroll.SwapV3[]",
          "name": "_swaps",
          "type": "tuple[]"
        }
      ],
      "name": "performSwapV3",
      "outputs": [
        {
          "internalType": "uint256",
          "name": "",
          "type": "uint256"
        }
      ],
      "stateMutability": "nonpayable",
      "type": "function"
    },
    {
      "inputs": [
        {
          "internalType": "address",
          "name": "_erc20TokenOrigin",
          "type": "address"
        },
        {
          "internalType": "uint256",
          "name": "_totalAmountToSwap",
          "type": "uint256"
        },
        {
          "internalType": "uint32",
          "name": "_deadline",
          "type": "uint32"
        },
        {
          "components": [
            {
              "internalType": "uint256",
              "name": "amountOut",
              "type": "uint256"
            },
            {
              "internalType": "uint256",
              "name": "amountInMax",
              "type": "uint256"
            },
            {
              "internalType": "bytes",
              "name": "path",
              "type": "bytes"
            }
          ],
          "internalType": "struct Payroll.SwapV3[]",
          "name": "_swaps",
          "type": "tuple[]"
        },
        {
          "components": [
            {
              "internalType": "address",
              "name": "token",
              "type": "address"
            },
            {
              "internalType": "address[]",
              "name": "receivers",
              "type": "address[]"
            },
            {
              "internalType": "uint256[]",
              "name": "amountsToTransfer",
              "type": "uint256[]"
            }
          ],
          "internalType": "struct Payroll.Payment[]",
          "name": "_payments",
          "type": "tuple[]"
        }
      ],
      "name": "performSwapV3AndPayment",
      "outputs": [],
      "stateMutability": "nonpayable",
      "type": "function"
    },
    {
      "inputs": [],
      "name": "renounceOwnership",
      "outputs": [],
      "stateMutability": "nonpayable",
      "type": "function"
    },
    {
      "inputs": [
        {
          "internalType": "uint256",
          "name": "_fee",
          "type": "uint256"
        }
      ],
      "name": "setFee",
      "outputs": [],
      "stateMutability": "nonpayable",
      "type": "function"
    },
    {
      "inputs": [
        {
          "internalType": "address",
          "name": "_feeAddress",
          "type": "address"
        }
      ],
      "name": "setFeeAddress",
      "outputs": [],
      "stateMutability": "nonpayable",
      "type": "function"
    },
    {
      "inputs": [
        {
          "internalType": "address",
          "name": "_swapRouter",
          "type": "address"
        },
        {
          "internalType": "bool",
          "name": "_isSwapV2",
          "type": "bool"
        }
      ],
      "name": "setSwapRouter",
      "outputs": [],
      "stateMutability": "nonpayable",
      "type": "function"
    },
    {
      "inputs": [],
      "name": "swapRouter",
      "outputs": [
        {
          "internalType": "address",
          "name": "",
          "type": "address"
        }
      ],
      "stateMutability": "view",
      "type": "function"
    },
    {
      "inputs": [
        {
          "internalType": "address",
          "name": "newOwner",
          "type": "address"
        }
      ],
      "name": "transferOwnership",
      "outputs": [],
      "stateMutability": "nonpayable",
      "type": "function"
    }
  ],
  "transactionHash": "0x9e470dae1923b725db4a6325f7e508725a0788605111a376c7a6c2ee2fc9e8ff",
  "args": [],
  "numDeployments": 1,
  "solcInputHash": "7b9463e8033fe65e92675ad404da0ba8",
  "bytecode": "0x608060405234801561001057600080fd5b50612148806100206000396000f3fe608060405234801561001057600080fd5b50600436106101165760003560e01c806392721482116100a2578063db9d033411610071578063db9d03341461022e578063ddca3f4314610241578063ef6aa2641461024a578063f2fde38b1461025d578063f65a83cf1461027057600080fd5b806392721482146101e2578063ac43070b146101f5578063c31c9c0714610208578063d8ca72361461021b57600080fd5b806369fe0e2d116100e957806369fe0e2d14610190578063715018a6146101a35780638705fcd4146101ab578063887a622a146101be5780638da5cb5b146101d157600080fd5b80632171dcc91461011b5780632703984c14610130578063395ae6a3146101525780634127535814610165575b600080fd5b61012e6101293660046119b5565b61028d565b005b61013f670de0b6b3a764000081565b6040519081526020015b60405180910390f35b61012e610160366004611a4c565b6102ce565b609854610178906001600160a01b031681565b6040516001600160a01b039091168152602001610149565b61012e61019e366004611ae7565b61036f565b61012e6103a5565b61012e6101b9366004611b00565b6103db565b61013f6101cc366004611b22565b61040e565b6033546001600160a01b0316610178565b61012e6101f0366004611a4c565b6104e3565b61012e610203366004611b91565b610569565b609754610178906001600160a01b031681565b61013f610229366004611b22565b6105f6565b61012e61023c366004611b91565b6106bd565b61013f60995481565b61012e610258366004611bd3565b6106f8565b61012e61026b366004611b00565b6107e1565b609a5461027d9060ff1681565b6040519015158152602001610149565b6033546001600160a01b031633146102c05760405162461bcd60e51b81526004016102b790611c20565b60405180910390fd5b6102ca8282610879565b5050565b600260655414156102f15760405162461bcd60e51b81526004016102b790611c55565b6002606555609a5460ff16156103425760405162461bcd60e51b8152602060048201526016602482015275506179726f6c6c3a204e6f7420756e6973776170563360501b60448201526064016102b7565b8215610357576103558787878787610952565b505b6103618282610cb0565b505060016065555050505050565b6033546001600160a01b031633146103995760405162461bcd60e51b81526004016102b790611c20565b6103a281610d70565b50565b6033546001600160a01b031633146103cf5760405162461bcd60e51b81526004016102b790611c20565b6103d96000610e0e565b565b6033546001600160a01b031633146104055760405162461bcd60e51b81526004016102b790611c20565b6103a281610e60565b6000600260655414156104335760405162461bcd60e51b81526004016102b790611c55565b6002606555609a5460ff166104835760405162461bcd60e51b81526020600482015260166024820152752830bcb937b6361d102737ba103ab734b9bbb0b82b1960511b60448201526064016102b7565b816104c75760405162461bcd60e51b8152602060048201526014602482015273506179726f6c6c3a20456d70747920737761707360601b60448201526064016102b7565b6104d48686868686610f04565b60016065559695505050505050565b600260655414156105065760405162461bcd60e51b81526004016102b790611c55565b6002606555609a5460ff166105565760405162461bcd60e51b81526020600482015260166024820152752830bcb937b6361d102737ba103ab734b9bbb0b82b1960511b60448201526064016102b7565b8215610357576103558787878787610f04565b6002606554141561058c5760405162461bcd60e51b81526004016102b790611c55565b600260655560005b818110156105ec576105da8383838181106105b1576105b1611c8c565b90506020020160208101906105c69190611b00565b6097546001600160a01b0316600019611233565b806105e481611cb8565b915050610594565b5050600160655550565b60006002606554141561061b5760405162461bcd60e51b81526004016102b790611c55565b6002606555609a5460ff161561066c5760405162461bcd60e51b8152602060048201526016602482015275506179726f6c6c3a204e6f7420756e6973776170563360501b60448201526064016102b7565b816106b05760405162461bcd60e51b8152602060048201526014602482015273506179726f6c6c3a20456d70747920737761707360601b60448201526064016102b7565b6104d48686868686610952565b600260655414156106e05760405162461bcd60e51b81526004016102b790611c55565b60026065556106ef8282610cb0565b50506001606555565b600054610100900460ff166107135760005460ff1615610717565b303b155b61077a5760405162461bcd60e51b815260206004820152602e60248201527f496e697469616c697a61626c653a20636f6e747261637420697320616c72656160448201526d191e481a5b9a5d1a585b1a5e995960921b60648201526084016102b7565b600054610100900460ff1615801561079c576000805461ffff19166101011790555b6107a461132c565b6107ac61135b565b6107b68585610879565b6107bf83610e60565b6107c882610d70565b80156107da576000805461ff00191690555b5050505050565b6033546001600160a01b0316331461080b5760405162461bcd60e51b81526004016102b790611c20565b6001600160a01b0381166108705760405162461bcd60e51b815260206004820152602660248201527f4f776e61626c653a206e6577206f776e657220697320746865207a65726f206160448201526564647265737360d01b60648201526084016102b7565b6103a281610e0e565b6001600160a01b0382166108e55760405162461bcd60e51b815260206004820152602d60248201527f506179726f6c6c3a2043616e6e6f74207365742061203020616464726573732060448201526c30b99039bbb0b82937baba32b960991b60648201526084016102b7565b609a805460ff1916821515908117909155609780546001600160a01b0319166001600160a01b0385169081179091556040805191825260208201929092527fa93750f85ffdb877ffb446c32e8a1033c18e7746ffdd0b42d7edee2c98e7db3c910160405180910390a15050565b60006109608633308861138a565b6000805b83811015610c1757600085858381811061098057610980611c8c565b90506020028101906109929190611cd3565b6109a0906040810190611cf3565b9050116109e55760405162461bcd60e51b81526020600482015260136024820152720a0c2f2e4ded8d874408adae0e8f240e0c2e8d606b1b60448201526064016102b7565b6097546040805160a081019091526000916001600160a01b03169063f28c04989080898987818110610a1957610a19611c8c565b9050602002810190610a2b9190611cd3565b610a39906040810190611cf3565b8080601f01602080910402602001604051908101604052809392919081815260200183838082843760009201919091525050509082525033602082015263ffffffff8b166040820152606001898987818110610a9757610a97611c8c565b9050602002810190610aa99190611cd3565b358152602001898987818110610ac157610ac1611c8c565b9050602002810190610ad39190611cd3565b602001358152506040518263ffffffff1660e01b8152600401610af69190611d6a565b602060405180830381600087803b158015610b1057600080fd5b505af1158015610b24573d6000803e3d6000fd5b505050506040513d601f19601f82011682018060405250810190610b489190611dd9565b9050610b548184611df2565b92507f2d8d9d7f49599a20c9e475f932138bdf56ab8ddbcd627a642030d3d788012b5689610bec6000898987818110610b8f57610b8f611c8c565b9050602002810190610ba19190611cd3565b610baf906040810190611cf3565b8080601f01602080910402602001604051908101604052809392919081815260200183838082843760009201919091525092939250506114989050565b83604051610bfc93929190611e0a565b60405180910390a15080610c0f81611cb8565b915050610964565b506040516370a0823160e01b81523060048201526000906001600160a01b038916906370a082319060240160206040518083038186803b158015610c5a57600080fd5b505afa158015610c6e573d6000803e3d6000fd5b505050506040513d601f19601f82011682018060405250810190610c929190611dd9565b90508015610ca557610ca588338361154c565b509695505050505050565b60005b81811015610d6b57610d59838383818110610cd057610cd0611c8c565b9050602002810190610ce29190611cd3565b610cf0906020810190611b00565b848484818110610d0257610d02611c8c565b9050602002810190610d149190611cd3565b610d22906020810190611e2e565b868686818110610d3457610d34611c8c565b9050602002810190610d469190611cd3565b610d54906040810190611e2e565b611645565b80610d6381611cb8565b915050610cb3565b505050565b666a94d74f4300008110610dd25760405162461bcd60e51b815260206004820152602360248201527f506179726f6c6c3a204665652073686f756c64206265206c657373207468616e60448201526220332560e81b60648201526084016102b7565b60998190556040518181527f6bbc57480a46553fa4d156ce702beef5f3ad66303b0ed1a5d4cb44966c6584c3906020015b60405180910390a150565b603380546001600160a01b038381166001600160a01b0319831681179093556040519116919082907f8be0079c531659141344cd1fd0a4f28419497f9722a3daafe3b4186f6b6457e090600090a35050565b6001600160a01b038116610eb65760405162461bcd60e51b815260206004820152601f60248201527f506179726f6c6c3a2046656520616464726573732063616e277420626520300060448201526064016102b7565b609880546001600160a01b0319166001600160a01b0383169081179091556040519081527fd1e93c69f2847f79bfa4d71704aaa84a581729b4b1706d922ee42ba1848a45c990602001610e03565b6000610f128633308861138a565b6000805b83811015610c17576000858583818110610f3257610f32611c8c565b9050602002810190610f449190611cd3565b610f52906040810190611e2e565b905011610f975760405162461bcd60e51b81526020600482015260136024820152720a0c2f2e4ded8d874408adae0e8f240e0c2e8d606b1b60448201526064016102b7565b876001600160a01b0316858583818110610fb357610fb3611c8c565b9050602002810190610fc59190611cd3565b610fd3906040810190611e2e565b6000818110610fe457610fe4611c8c565b9050602002016020810190610ff99190611b00565b6001600160a01b03161461104f5760405162461bcd60e51b815260206004820152601e60248201527f506179726f6c6c3a2053776170206e6f7420746f6b656e206f726967696e000060448201526064016102b7565b6097546000906001600160a01b0316638803dbee87878581811061107557611075611c8c565b90506020028101906110879190611cd3565b3588888681811061109a5761109a611c8c565b90506020028101906110ac9190611cd3565b602001358989878181106110c2576110c2611c8c565b90506020028101906110d49190611cd3565b6110e2906040810190611e2e565b338d6040518763ffffffff1660e01b815260040161110596959493929190611ebf565b600060405180830381600087803b15801561111f57600080fd5b505af1158015611133573d6000803e3d6000fd5b505050506040513d6000823e601f3d908101601f1916820160405261115b9190810190611f1e565b60008151811061116d5761116d611c8c565b6020026020010151905080836111839190611df2565b92507f2d8d9d7f49599a20c9e475f932138bdf56ab8ddbcd627a642030d3d788012b56898787858181106111b9576111b9611c8c565b90506020028101906111cb9190611cd3565b6111d9906040810190611e2e565b6111e460018a611fdc565b8181106111f3576111f3611c8c565b90506020020160208101906112089190611b00565b8360405161121893929190611e0a565b60405180910390a1508061122b81611cb8565b915050610f16565b604080516001600160a01b038481166024830152604480830185905283518084039091018152606490920183526020820180516001600160e01b031663095ea7b360e01b179052915160009283929087169161128f9190611ff3565b6000604051808303816000865af19150503d80600081146112cc576040519150601f19603f3d011682016040523d82523d6000602084013e6112d1565b606091505b50915091508180156112fb5750805115806112fb5750808060200190518101906112fb9190612005565b6107da5760405162461bcd60e51b8152602060048201526002602482015261534160f01b60448201526064016102b7565b600054610100900460ff166113535760405162461bcd60e51b81526004016102b790612022565b6103d961192d565b600054610100900460ff166113825760405162461bcd60e51b81526004016102b790612022565b6103d961195b565b600080856001600160a01b03166323b872dd60e01b8686866040516024016113b493929190611e0a565b60408051601f198184030181529181526020820180516001600160e01b03166001600160e01b03199094169390931790925290516113f29190611ff3565b6000604051808303816000865af19150503d806000811461142f576040519150601f19603f3d011682016040523d82523d6000602084013e611434565b606091505b509150915081801561145e57508051158061145e57508080602001905181019061145e9190612005565b6114905760405162461bcd60e51b815260206004820152600360248201526229aa2360e91b60448201526064016102b7565b505050505050565b6000816114a6816014611df2565b10156114e95760405162461bcd60e51b8152602060048201526012602482015271746f416464726573735f6f766572666c6f7760701b60448201526064016102b7565b6114f4826014611df2565b8351101561153c5760405162461bcd60e51b8152602060048201526015602482015274746f416464726573735f6f75744f66426f756e647360581b60448201526064016102b7565b500160200151600160601b900490565b604080516001600160a01b038481166024830152604480830185905283518084039091018152606490920183526020820180516001600160e01b031663a9059cbb60e01b17905291516000928392908716916115a89190611ff3565b6000604051808303816000865af19150503d80600081146115e5576040519150601f19603f3d011682016040523d82523d6000602084013e6115ea565b606091505b50915091508180156116145750805115806116145750808060200190518101906116149190612005565b6107da5760405162461bcd60e51b815260206004820152600260248201526114d560f21b60448201526064016102b7565b6001600160a01b03851661169b5760405162461bcd60e51b815260206004820152601b60248201527f506179726f6c6c3a20546f6b656e20697320302061646472657373000000000060448201526064016102b7565b806116e85760405162461bcd60e51b815260206004820152601f60248201527f506179726f6c6c3a204e6f20616d6f756e747320746f207472616e736665720060448201526064016102b7565b8083146117455760405162461bcd60e51b815260206004820152602560248201527f506179726f6c6c3a20417272617973206d75737420686176652073616d65206c6044820152640cadccee8d60db1b60648201526084016102b7565b6000805b8481101561187e57600086868381811061176557611765611c8c565b905060200201602081019061177a9190611b00565b6001600160a01b031614156117dd5760405162461bcd60e51b815260206004820152602360248201527f506179726f6c6c3a2043616e6e6f742073656e6420746f20612030206164647260448201526265737360e81b60648201526084016102b7565b670de0b6b3a76400006099548585848181106117fb576117fb611c8c565b9050602002013561180c919061206d565b611816919061208c565b6118209083611df2565b915061186c873388888581811061183957611839611c8c565b905060200201602081019061184e9190611b00565b87878681811061186057611860611c8c565b9050602002013561138a565b8061187681611cb8565b915050611749565b507f12bf982271e0dbba6878628c37389b80d96734e56444e0fa59baf971be04c1b586868686866040516118b69594939291906120ae565b60405180910390a180156118de576098546118de90879033906001600160a01b03168461138a565b6098546040517f945458c62aa39df7a4d87d6c4dbaaab7de5d870c9a1fe40e2b7571d84f158a8d9161191d9189916001600160a01b0316908590611e0a565b60405180910390a1505050505050565b600054610100900460ff166119545760405162461bcd60e51b81526004016102b790612022565b6001606555565b600054610100900460ff166119825760405162461bcd60e51b81526004016102b790612022565b6103d933610e0e565b80356001600160a01b03811681146119a257600080fd5b919050565b80151581146103a257600080fd5b600080604083850312156119c857600080fd5b6119d18361198b565b915060208301356119e1816119a7565b809150509250929050565b803563ffffffff811681146119a257600080fd5b60008083601f840112611a1257600080fd5b50813567ffffffffffffffff811115611a2a57600080fd5b6020830191508360208260051b8501011115611a4557600080fd5b9250929050565b600080600080600080600060a0888a031215611a6757600080fd5b611a708861198b565b965060208801359550611a85604089016119ec565b9450606088013567ffffffffffffffff80821115611aa257600080fd5b611aae8b838c01611a00565b909650945060808a0135915080821115611ac757600080fd5b50611ad48a828b01611a00565b989b979a50959850939692959293505050565b600060208284031215611af957600080fd5b5035919050565b600060208284031215611b1257600080fd5b611b1b8261198b565b9392505050565b600080600080600060808688031215611b3a57600080fd5b611b438661198b565b945060208601359350611b58604087016119ec565b9250606086013567ffffffffffffffff811115611b7457600080fd5b611b8088828901611a00565b969995985093965092949392505050565b60008060208385031215611ba457600080fd5b823567ffffffffffffffff811115611bbb57600080fd5b611bc785828601611a00565b90969095509350505050565b60008060008060808587031215611be957600080fd5b611bf28561198b565b93506020850135611c02816119a7565b9250611c106040860161198b565b9396929550929360600135925050565b6020808252818101527f4f776e61626c653a2063616c6c6572206973206e6f7420746865206f776e6572604082015260600190565b6020808252601f908201527f5265656e7472616e637947756172643a207265656e7472616e742063616c6c00604082015260600190565b634e487b7160e01b600052603260045260246000fd5b634e487b7160e01b600052601160045260246000fd5b6000600019821415611ccc57611ccc611ca2565b5060010190565b60008235605e19833603018112611ce957600080fd5b9190910192915050565b6000808335601e19843603018112611d0a57600080fd5b83018035915067ffffffffffffffff821115611d2557600080fd5b602001915036819003821315611a4557600080fd5b60005b83811015611d55578181015183820152602001611d3d565b83811115611d64576000848401525b50505050565b602081526000825160a0602084015280518060c0850152611d928160e0860160208501611d3a565b60018060a01b0360208601511660408501526040850151606085015260608501516080850152608085015160a085015260e0601f19601f8301168501019250505092915050565b600060208284031215611deb57600080fd5b5051919050565b60008219821115611e0557611e05611ca2565b500190565b6001600160a01b039384168152919092166020820152604081019190915260600190565b6000808335601e19843603018112611e4557600080fd5b83018035915067ffffffffffffffff821115611e6057600080fd5b6020019150600581901b3603821315611a4557600080fd5b8183526000602080850194508260005b85811015611eb4576001600160a01b03611ea18361198b565b1687529582019590820190600101611e88565b509495945050505050565b86815285602082015260a060408201526000611edf60a083018688611e78565b6001600160a01b039490941660608301525063ffffffff91909116608090910152949350505050565b634e487b7160e01b600052604160045260246000fd5b60006020808385031215611f3157600080fd5b825167ffffffffffffffff80821115611f4957600080fd5b818501915085601f830112611f5d57600080fd5b815181811115611f6f57611f6f611f08565b8060051b604051601f19603f83011681018181108582111715611f9457611f94611f08565b604052918252848201925083810185019188831115611fb257600080fd5b938501935b82851015611fd057845184529385019392850192611fb7565b98975050505050505050565b600082821015611fee57611fee611ca2565b500390565b60008251611ce9818460208701611d3a565b60006020828403121561201757600080fd5b8151611b1b816119a7565b6020808252602b908201527f496e697469616c697a61626c653a20636f6e7472616374206973206e6f74206960408201526a6e697469616c697a696e6760a81b606082015260800190565b600081600019048311821515161561208757612087611ca2565b500290565b6000826120a957634e487b7160e01b600052601260045260246000fd5b500490565b6001600160a01b03861681526060602082018190526000906120d39083018688611e78565b82810360408401528381526001600160fb1b038411156120f257600080fd5b8360051b808660208401376000910160200190815297965050505050505056fea2646970667358221220d87fe75f6e2aa4324fcab4d74b9aeec28c956f03a31c75a0cd9bd6f107a539f764736f6c63430008090033",
  "devdoc": {
    "author": "Think and Dev Team",
    "kind": "dev",
    "methods": {
      "approveTokens(address[])": {
        "params": {
          "_erc20TokenOrigin": "ERC20 token address to approve."
        }
      },
      "initialize(address,bool,address,uint256)": {
        "params": {
          "_isSwapV2": "Boolean to specify the version of the router; true means v2, false means v3.",
          "_swapRouter": "Router address to execute swaps."
        }
      },
      "owner()": {
        "details": "Returns the address of the current owner."
      },
      "performMultiPayment((address,address[],uint256[])[])": {
        "params": {
          "_payments": "The array of the Payment data."
        }
      },
      "performSwapV2(address,uint256,uint32,(uint256,uint256,address[])[])": {
        "params": {
          "_deadline": "The unix timestamp after a swap will fail.",
          "_erc20TokenOrigin": "ERC20 token address to swap for another.",
          "_swaps": "The array of the Swaps data.",
          "_totalAmountToSwap": "Total amount of erc20TokenOrigin to spend in swaps."
        }
      },
      "performSwapV2AndPayment(address,uint256,uint32,(uint256,uint256,address[])[],(address,address[],uint256[])[])": {
        "params": {
          "_deadline": "The unix timestamp after a swap will fail.",
          "_erc20TokenOrigin": "ERC20 token address to swap for another.",
          "_payments": "The array of the Payment data.",
          "_swaps": "The array of the Swaps data.",
          "_totalAmountToSwap": "Total amount of erc20TokenOrigin to spend in swaps."
        }
      },
      "performSwapV3(address,uint256,uint32,(uint256,uint256,bytes)[])": {
        "params": {
          "_deadline": "The unix timestamp after a swap will fail.",
          "_erc20TokenOrigin": "ERC20 token address to swap for another.",
          "_swaps": "The array of the Swaps data.",
          "_totalAmountToSwap": "Total amount of erc20TokenOrigin to spend in swaps."
        }
      },
      "performSwapV3AndPayment(address,uint256,uint32,(uint256,uint256,bytes)[],(address,address[],uint256[])[])": {
        "params": {
          "_deadline": "The unix timestamp after a swap will fail.",
          "_erc20TokenOrigin": "ERC20 token address to swap for another.",
          "_payments": "The array of the Payment data.",
          "_swaps": "The array of the Swaps data.",
          "_totalAmountToSwap": "Total amount of erc20TokenOrigin to spend in swaps."
        }
      },
      "renounceOwnership()": {
        "details": "Leaves the contract without owner. It will not be possible to call `onlyOwner` functions anymore. Can only be called by the current owner. NOTE: Renouncing ownership will leave the contract without an owner, thereby removing any functionality that is only available to the owner."
      },
      "setFee(uint256)": {
        "params": {
          "_fee": "Percentage that will be charged."
        }
      },
      "setFeeAddress(address)": {
        "params": {
          "_feeAddress": "Address that will receive the fees."
        }
      },
      "setSwapRouter(address,bool)": {
        "params": {
          "_isSwapV2": "Boolean to specify the version of the router; true means v2, false means v3.",
          "_swapRouter": "Router address to execute swaps."
        }
      },
      "transferOwnership(address)": {
        "details": "Transfers ownership of the contract to a new account (`newOwner`). Can only be called by the current owner."
      }
    },
    "title": "Think and Dev Paymentbox",
    "version": 1
  },
  "userdoc": {
    "kind": "user",
    "methods": {
      "approveTokens(address[])": {
        "notice": "Approves the following token to be used on swapRouter"
      },
      "isSwapV2()": {
        "notice": "Returns if the contract is working with a v2 Uniswap protocol; true means v2, false means v3."
      },
      "performMultiPayment((address,address[],uint256[])[])": {
        "notice": "Perform the payments to the given addresses and amounts, public method."
      },
      "performSwapV2(address,uint256,uint32,(uint256,uint256,address[])[])": {
        "notice": "Perform the swap with Uniswap V2 to the given token addresses and amounts."
      },
      "performSwapV2AndPayment(address,uint256,uint32,(uint256,uint256,address[])[],(address,address[],uint256[])[])": {
        "notice": "Perform the swap with Uniswap V2 and the transfer to the given addresses using Uniswap V2 interface.Currently the function only works with ERC20 tokens."
      },
      "performSwapV3(address,uint256,uint32,(uint256,uint256,bytes)[])": {
        "notice": "Perform the swap with Uniswap V3 to the given token addresses and amounts."
      },
      "performSwapV3AndPayment(address,uint256,uint32,(uint256,uint256,bytes)[],(address,address[],uint256[])[])": {
        "notice": "Perform the swap with Uniswap V3 and the transfer to the given addresses.Currently the function only works with ERC20 tokens."
      },
      "setFee(uint256)": {
        "notice": "Set the fee that will be charged, fees are divided by mantissa"
      },
      "setFeeAddress(address)": {
        "notice": "Set the address that will receive the fees."
      },
      "setSwapRouter(address,bool)": {
        "notice": "Set the SwapRouter and the version to be used."
      },
      "swapRouter()": {
        "notice": "Returns the address of the Uniswap protocol router, it could be v2 or v3."
      }
    },
    "notice": "Swap and transfer multiple ERC20 pairs to multiple accounts in a single transaction. Use any router address of any DEX that uses Uniswap protocol v2 or v3 to make swaps.",
    "version": 1
  },
  "storageLayout": {
    "storage": [
      {
        "astId": 130,
        "contract": "contracts/Payroll.sol:Payroll",
        "label": "_initialized",
        "offset": 0,
        "slot": "0",
        "type": "t_bool"
      },
      {
        "astId": 133,
        "contract": "contracts/Payroll.sol:Payroll",
        "label": "_initializing",
        "offset": 1,
        "slot": "0",
        "type": "t_bool"
      },
      {
        "astId": 540,
        "contract": "contracts/Payroll.sol:Payroll",
        "label": "__gap",
        "offset": 0,
        "slot": "1",
        "type": "t_array(t_uint256)50_storage"
      },
      {
        "astId": 10,
        "contract": "contracts/Payroll.sol:Payroll",
        "label": "_owner",
        "offset": 0,
        "slot": "51",
        "type": "t_address"
      },
      {
        "astId": 122,
        "contract": "contracts/Payroll.sol:Payroll",
        "label": "__gap",
        "offset": 0,
        "slot": "52",
        "type": "t_array(t_uint256)49_storage"
      },
      {
        "astId": 211,
        "contract": "contracts/Payroll.sol:Payroll",
        "label": "_status",
        "offset": 0,
        "slot": "101",
        "type": "t_uint256"
      },
      {
        "astId": 255,
        "contract": "contracts/Payroll.sol:Payroll",
        "label": "__gap",
        "offset": 0,
        "slot": "102",
        "type": "t_array(t_uint256)49_storage"
      },
      {
        "astId": 3115,
        "contract": "contracts/Payroll.sol:Payroll",
        "label": "swapRouter",
        "offset": 0,
        "slot": "151",
        "type": "t_address"
      },
      {
        "astId": 3117,
        "contract": "contracts/Payroll.sol:Payroll",
        "label": "feeAddress",
        "offset": 0,
        "slot": "152",
        "type": "t_address"
      },
      {
        "astId": 3119,
        "contract": "contracts/Payroll.sol:Payroll",
        "label": "fee",
        "offset": 0,
        "slot": "153",
        "type": "t_uint256"
      },
      {
        "astId": 3125,
        "contract": "contracts/Payroll.sol:Payroll",
        "label": "isSwapV2",
        "offset": 0,
        "slot": "154",
        "type": "t_bool"
      }
    ],
    "types": {
      "t_address": {
        "encoding": "inplace",
        "label": "address",
        "numberOfBytes": "20"
      },
      "t_array(t_uint256)49_storage": {
        "base": "t_uint256",
        "encoding": "inplace",
        "label": "uint256[49]",
        "numberOfBytes": "1568"
      },
      "t_array(t_uint256)50_storage": {
        "base": "t_uint256",
        "encoding": "inplace",
        "label": "uint256[50]",
        "numberOfBytes": "1600"
      },
      "t_bool": {
        "encoding": "inplace",
        "label": "bool",
        "numberOfBytes": "1"
      },
      "t_uint256": {
        "encoding": "inplace",
        "label": "uint256",
        "numberOfBytes": "32"
      }
    }
  }
}