{
  "address": "0x9307BBB17Cc7A59361EE2aE6e65C47a772A0BDdD",
  "abi": [
    {
      "anonymous": false,
      "inputs": [
        {
          "indexed": false,
          "internalType": "address[]",
          "name": "_receivers",
          "type": "address[]"
        },
        {
          "indexed": false,
          "internalType": "uint256[]",
          "name": "_amountsToTransfer",
          "type": "uint256[]"
        }
      ],
      "name": "BatchPaymentFinished",
      "type": "event"
    },
    {
      "anonymous": false,
      "inputs": [
        {
          "indexed": true,
          "internalType": "bytes32",
          "name": "role",
          "type": "bytes32"
        },
        {
          "indexed": true,
          "internalType": "bytes32",
          "name": "previousAdminRole",
          "type": "bytes32"
        },
        {
          "indexed": true,
          "internalType": "bytes32",
          "name": "newAdminRole",
          "type": "bytes32"
        }
      ],
      "name": "RoleAdminChanged",
      "type": "event"
    },
    {
      "anonymous": false,
      "inputs": [
        {
          "indexed": true,
          "internalType": "bytes32",
          "name": "role",
          "type": "bytes32"
        },
        {
          "indexed": true,
          "internalType": "address",
          "name": "account",
          "type": "address"
        },
        {
          "indexed": true,
          "internalType": "address",
          "name": "sender",
          "type": "address"
        }
      ],
      "name": "RoleGranted",
      "type": "event"
    },
    {
      "anonymous": false,
      "inputs": [
        {
          "indexed": true,
          "internalType": "bytes32",
          "name": "role",
          "type": "bytes32"
        },
        {
          "indexed": true,
          "internalType": "address",
          "name": "account",
          "type": "address"
        },
        {
          "indexed": true,
          "internalType": "address",
          "name": "sender",
          "type": "address"
        }
      ],
      "name": "RoleRevoked",
      "type": "event"
    },
    {
      "anonymous": false,
      "inputs": [
        {
          "indexed": false,
          "internalType": "address",
          "name": "_tokenIn",
          "type": "address"
        },
        {
          "indexed": false,
          "internalType": "address",
          "name": "_tokenOut",
          "type": "address"
        },
        {
          "indexed": false,
          "internalType": "uint256",
          "name": "_amountReceived",
          "type": "uint256"
        }
      ],
      "name": "SwapFinished",
      "type": "event"
    },
    {
      "inputs": [],
      "name": "ADMIN_ROLE",
      "outputs": [
        {
          "internalType": "bytes32",
          "name": "",
          "type": "bytes32"
        }
      ],
      "stateMutability": "view",
      "type": "function"
    },
    {
      "inputs": [],
      "name": "DEFAULT_ADMIN_ROLE",
      "outputs": [
        {
          "internalType": "bytes32",
          "name": "",
          "type": "bytes32"
        }
      ],
      "stateMutability": "view",
      "type": "function"
    },
    {
      "inputs": [],
      "name": "PAYER_ROLE",
      "outputs": [
        {
          "internalType": "bytes32",
          "name": "",
          "type": "bytes32"
        }
      ],
      "stateMutability": "view",
      "type": "function"
    },
    {
      "inputs": [
        {
          "internalType": "bytes32",
          "name": "role",
          "type": "bytes32"
        }
      ],
      "name": "getRoleAdmin",
      "outputs": [
        {
          "internalType": "bytes32",
          "name": "",
          "type": "bytes32"
        }
      ],
      "stateMutability": "view",
      "type": "function"
    },
    {
      "inputs": [
        {
          "internalType": "bytes32",
          "name": "role",
          "type": "bytes32"
        },
        {
          "internalType": "address",
          "name": "account",
          "type": "address"
        }
      ],
      "name": "grantRole",
      "outputs": [],
      "stateMutability": "nonpayable",
      "type": "function"
    },
    {
      "inputs": [
        {
          "internalType": "bytes32",
          "name": "role",
          "type": "bytes32"
        },
        {
          "internalType": "address",
          "name": "account",
          "type": "address"
        }
      ],
      "name": "hasRole",
      "outputs": [
        {
          "internalType": "bool",
          "name": "",
          "type": "bool"
        }
      ],
      "stateMutability": "view",
      "type": "function"
    },
    {
      "inputs": [
        {
          "internalType": "address",
          "name": "_owner",
          "type": "address"
        },
        {
          "internalType": "address",
          "name": "_swapRouter",
          "type": "address"
        }
      ],
      "name": "initialize",
      "outputs": [],
      "stateMutability": "nonpayable",
      "type": "function"
    },
    {
      "inputs": [],
      "name": "owner",
      "outputs": [
        {
          "internalType": "address",
          "name": "",
          "type": "address"
        }
      ],
      "stateMutability": "view",
      "type": "function"
    },
    {
      "inputs": [
        {
          "internalType": "address",
          "name": "_erc20TokenOrigin",
          "type": "address"
        },
        {
          "internalType": "uint256",
          "name": "_totalAmountToSpend",
          "type": "uint256"
        },
        {
          "internalType": "uint32",
          "name": "_deadline",
          "type": "uint32"
        },
        {
          "components": [
            {
              "internalType": "address",
              "name": "token",
              "type": "address"
            },
            {
              "internalType": "uint256",
              "name": "amountOut",
              "type": "uint256"
            },
            {
              "internalType": "uint256",
              "name": "amountInMax",
              "type": "uint256"
            },
            {
              "internalType": "uint24",
              "name": "poolFee",
              "type": "uint24"
            }
          ],
          "internalType": "struct Payroll.Swap[]",
          "name": "_swaps",
          "type": "tuple[]"
        },
        {
          "components": [
            {
              "internalType": "address",
              "name": "token",
              "type": "address"
            },
            {
              "internalType": "uint256",
              "name": "totalAmountToPay",
              "type": "uint256"
            },
            {
              "internalType": "address[]",
              "name": "receivers",
              "type": "address[]"
            },
            {
              "internalType": "uint256[]",
              "name": "amountsToTransfer",
              "type": "uint256[]"
            }
          ],
          "internalType": "struct Payroll.Payment[]",
          "name": "_payments",
          "type": "tuple[]"
        }
      ],
      "name": "performSwapAndPayment",
      "outputs": [],
      "stateMutability": "nonpayable",
      "type": "function"
    },
    {
      "inputs": [
        {
          "components": [
            {
              "internalType": "address",
              "name": "token",
              "type": "address"
            },
            {
              "internalType": "uint256",
              "name": "totalAmountToPay",
              "type": "uint256"
            },
            {
              "internalType": "address[]",
              "name": "receivers",
              "type": "address[]"
            },
            {
              "internalType": "uint256[]",
              "name": "amountsToTransfer",
              "type": "uint256[]"
            }
          ],
          "internalType": "struct Payroll.Payment[]",
          "name": "_payments",
          "type": "tuple[]"
        }
      ],
      "name": "performTransferAndPayment",
      "outputs": [],
      "stateMutability": "nonpayable",
      "type": "function"
    },
    {
      "inputs": [
        {
          "internalType": "bytes32",
          "name": "role",
          "type": "bytes32"
        },
        {
          "internalType": "address",
          "name": "account",
          "type": "address"
        }
      ],
      "name": "renounceRole",
      "outputs": [],
      "stateMutability": "nonpayable",
      "type": "function"
    },
    {
      "inputs": [
        {
          "internalType": "bytes32",
          "name": "role",
          "type": "bytes32"
        },
        {
          "internalType": "address",
          "name": "account",
          "type": "address"
        }
      ],
      "name": "revokeRole",
      "outputs": [],
      "stateMutability": "nonpayable",
      "type": "function"
    },
    {
      "inputs": [
        {
          "internalType": "bytes4",
          "name": "interfaceId",
          "type": "bytes4"
        }
      ],
      "name": "supportsInterface",
      "outputs": [
        {
          "internalType": "bool",
          "name": "",
          "type": "bool"
        }
      ],
      "stateMutability": "view",
      "type": "function"
    },
    {
      "inputs": [],
      "name": "swapRouter",
      "outputs": [
        {
          "internalType": "contract ISwapRouter",
          "name": "",
          "type": "address"
        }
      ],
      "stateMutability": "view",
      "type": "function"
    }
  ],
  "transactionHash": "0x40cde9c095d47f0807ae857760b5e0c4c98d994b636e24ddc8ea6e74f2cae8da",
  "args": [],
  "numDeployments": 1,
  "solcInputHash": "42ed528e995ae3d5e4cc0995812be720",
  "bytecode": "0x608060405234801561001057600080fd5b50612ad2806100206000396000f3fe608060405234801561001057600080fd5b50600436106100ea5760003560e01c8063891aad701161008c578063a217fddf11610066578063a217fddf14610249578063c31c9c0714610267578063d547741f14610285578063fc49ed97146102a1576100ea565b8063891aad70146101df5780638da5cb5b146101fb57806391d1485414610219576100ea565b806336568abe116100c857806336568abe1461016b578063485cc9551461018757806375b238fc146101a357806377f050b0146101c1576100ea565b806301ffc9a7146100ef578063248a9ca31461011f5780632f2ff15d1461014f575b600080fd5b61010960048036038101906101049190611d04565b6102bd565b6040516101169190612275565b60405180910390f35b61013960048036038101906101349190611c9f565b610337565b6040516101469190612290565b60405180910390f35b61016960048036038101906101649190611cc8565b610357565b005b61018560048036038101906101809190611cc8565b610380565b005b6101a1600480360381019061019c9190611b45565b610403565b005b6101ab6105a2565b6040516101b89190612290565b60405180910390f35b6101c96105a9565b6040516101d69190612290565b60405180910390f35b6101f960048036038101906101f49190611b81565b6105cd565b005b610203610629565b60405161021091906121bf565b60405180910390f35b610233600480360381019061022e9190611cc8565b61064f565b6040516102409190612275565b60405180910390f35b6102516106ba565b60405161025e9190612290565b60405180910390f35b61026f6106c1565b60405161027c91906122ab565b60405180910390f35b61029f600480360381019061029a9190611cc8565b6106e7565b005b6102bb60048036038101906102b69190611c31565b610710565b005b60007f7965db0b000000000000000000000000000000000000000000000000000000007bffffffffffffffffffffffffffffffffffffffffffffffffffffffff1916827bffffffffffffffffffffffffffffffffffffffffffffffffffffffff19161480610330575061032f82610829565b5b9050919050565b600060016000838152602001908152602001600020600101549050919050565b61036082610337565b6103718161036c610893565b61089b565b61037b8383610938565b505050565b610388610893565b73ffffffffffffffffffffffffffffffffffffffff168173ffffffffffffffffffffffffffffffffffffffff16146103f5576040517f08c379a00000000000000000000000000000000000000000000000000000000081526004016103ec906123c8565b60405180910390fd5b6103ff8282610a18565b5050565b600060019054906101000a900460ff1661042b5760008054906101000a900460ff1615610434565b610433610afa565b5b610473576040517f08c379a000000000000000000000000000000000000000000000000000000000815260040161046a90612328565b60405180910390fd5b60008060019054906101000a900460ff1615905080156104c3576001600060016101000a81548160ff02191690831515021790555060016000806101000a81548160ff0219169083151502179055505b82600360006101000a81548173ffffffffffffffffffffffffffffffffffffffff021916908373ffffffffffffffffffffffffffffffffffffffff16021790555081600260006101000a81548173ffffffffffffffffffffffffffffffffffffffff021916908373ffffffffffffffffffffffffffffffffffffffff1602179055506105526000801b84610b0b565b61057c7f8ec07e268e32cae7f300b49ad34f20106d088445cb9d9b2d62cbd864638308b284610b0b565b801561059d5760008060016101000a81548160ff0219169083151502179055505b505050565b6000801b81565b7f8ec07e268e32cae7f300b49ad34f20106d088445cb9d9b2d62cbd864638308b281565b7f8ec07e268e32cae7f300b49ad34f20106d088445cb9d9b2d62cbd864638308b26105ff816105fa610893565b61089b565b61060c8888888888610b19565b6106168383610cdc565b61061f88610e80565b5050505050505050565b600360009054906101000a900473ffffffffffffffffffffffffffffffffffffffff1681565b60006001600084815260200190815260200160002060000160008373ffffffffffffffffffffffffffffffffffffffff1673ffffffffffffffffffffffffffffffffffffffff16815260200190815260200160002060009054906101000a900460ff16905092915050565b6000801b81565b600260009054906101000a900473ffffffffffffffffffffffffffffffffffffffff1681565b6106f082610337565b610701816106fc610893565b61089b565b61070b8383610a18565b505050565b7f8ec07e268e32cae7f300b49ad34f20106d088445cb9d9b2d62cbd864638308b26107428161073d610893565b61089b565b60005b838390508110156108195761080684848381811061078c577f4e487b7100000000000000000000000000000000000000000000000000000000600052603260045260246000fd5b905060200281019061079e91906124b2565b60000160208101906107b09190611b1c565b33308787868181106107eb577f4e487b7100000000000000000000000000000000000000000000000000000000600052603260045260246000fd5b90506020028101906107fd91906124b2565b60200135610f2c565b808061081190612740565b915050610745565b506108248383610cdc565b505050565b60007f01ffc9a7000000000000000000000000000000000000000000000000000000007bffffffffffffffffffffffffffffffffffffffffffffffffffffffff1916827bffffffffffffffffffffffffffffffffffffffffffffffffffffffff1916149050919050565b600033905090565b6108a5828261064f565b610934576108ca8173ffffffffffffffffffffffffffffffffffffffff166014611084565b6108d88360001c6020611084565b6040516020016108e9929190612185565b6040516020818303038152906040526040517f08c379a000000000000000000000000000000000000000000000000000000000815260040161092b91906122c6565b60405180910390fd5b5050565b610942828261064f565b610a1457600180600084815260200190815260200160002060000160008373ffffffffffffffffffffffffffffffffffffffff1673ffffffffffffffffffffffffffffffffffffffff16815260200190815260200160002060006101000a81548160ff0219169083151502179055506109b9610893565b73ffffffffffffffffffffffffffffffffffffffff168173ffffffffffffffffffffffffffffffffffffffff16837f2f8788117e7eff1d82e926ec794901d17c78024a50270940304540a733656f0d60405160405180910390a45b5050565b610a22828261064f565b15610af65760006001600084815260200190815260200160002060000160008373ffffffffffffffffffffffffffffffffffffffff1673ffffffffffffffffffffffffffffffffffffffff16815260200190815260200160002060006101000a81548160ff021916908315150217905550610a9b610893565b73ffffffffffffffffffffffffffffffffffffffff168173ffffffffffffffffffffffffffffffffffffffff16837ff6391f5c32d9c69d2a47ea670b442974b53935d1edc7fd64eb21e047a839171b60405160405180910390a45b5050565b6000610b053061137e565b15905090565b610b158282610938565b5050565b610b2585333087610f2c565b610b5285600260009054906101000a900473ffffffffffffffffffffffffffffffffffffffff1686611391565b60005b82829050811015610ca657610c9286848484818110610b9d577f4e487b7100000000000000000000000000000000000000000000000000000000600052603260045260246000fd5b9050608002016000016020810190610bb59190611b1c565b858585818110610bee577f4e487b7100000000000000000000000000000000000000000000000000000000600052603260045260246000fd5b9050608002016060016020810190610c069190611d2d565b868686818110610c3f577f4e487b7100000000000000000000000000000000000000000000000000000000600052603260045260246000fd5b90506080020160200135878787818110610c82577f4e487b7100000000000000000000000000000000000000000000000000000000600052603260045260246000fd5b90506080020160400135896114e6565b508080610c9e90612740565b915050610b55565b50610cd585600260009054906101000a900473ffffffffffffffffffffffffffffffffffffffff166000611391565b5050505050565b60005b82829050811015610e7b57610e03838383818110610d26577f4e487b7100000000000000000000000000000000000000000000000000000000600052603260045260246000fd5b9050602002810190610d3891906124b2565b6000016020810190610d4a9190611b1c565b848484818110610d83577f4e487b7100000000000000000000000000000000000000000000000000000000600052603260045260246000fd5b9050602002810190610d9591906124b2565b8060400190610da49190612404565b868686818110610ddd577f4e487b7100000000000000000000000000000000000000000000000000000000600052603260045260246000fd5b9050602002810190610def91906124b2565b8060600190610dfe919061245b565b61167e565b610e68838383818110610e3f577f4e487b7100000000000000000000000000000000000000000000000000000000600052603260045260246000fd5b9050602002810190610e5191906124b2565b6000016020810190610e639190611b1c565b610e80565b8080610e7390612740565b915050610cdf565b505050565b600081905060008173ffffffffffffffffffffffffffffffffffffffff166370a08231306040518263ffffffff1660e01b8152600401610ec091906121bf565b60206040518083038186803b158015610ed857600080fd5b505afa158015610eec573d6000803e3d6000fd5b505050506040513d601f19601f82011682018060405250810190610f109190611d56565b90506000811115610f2757610f2683338361188b565b5b505050565b6000808573ffffffffffffffffffffffffffffffffffffffff166323b872dd60e01b868686604051602401610f63939291906121da565b604051602081830303815290604052907bffffffffffffffffffffffffffffffffffffffffffffffffffffffff19166020820180517bffffffffffffffffffffffffffffffffffffffffffffffffffffffff8381831617835250505050604051610fcd919061216e565b6000604051808303816000865af19150503d806000811461100a576040519150601f19603f3d011682016040523d82523d6000602084013e61100f565b606091505b509150915081801561103d575060008151148061103c57508080602001905181019061103b9190611c76565b5b5b61107c576040517f08c379a0000000000000000000000000000000000000000000000000000000008152600401611073906123a8565b60405180910390fd5b505050505050565b60606000600283600261109791906125b9565b6110a19190612563565b67ffffffffffffffff8111156110e0577f4e487b7100000000000000000000000000000000000000000000000000000000600052604160045260246000fd5b6040519080825280601f01601f1916602001820160405280156111125781602001600182028036833780820191505090505b5090507f300000000000000000000000000000000000000000000000000000000000000081600081518110611170577f4e487b7100000000000000000000000000000000000000000000000000000000600052603260045260246000fd5b60200101907effffffffffffffffffffffffffffffffffffffffffffffffffffffffffffff1916908160001a9053507f7800000000000000000000000000000000000000000000000000000000000000816001815181106111fa577f4e487b7100000000000000000000000000000000000000000000000000000000600052603260045260246000fd5b60200101907effffffffffffffffffffffffffffffffffffffffffffffffffffffffffffff1916908160001a9053506000600184600261123a91906125b9565b6112449190612563565b90505b6001811115611330577f3031323334353637383961626364656600000000000000000000000000000000600f8616601081106112ac577f4e487b7100000000000000000000000000000000000000000000000000000000600052603260045260246000fd5b1a60f81b8282815181106112e9577f4e487b7100000000000000000000000000000000000000000000000000000000600052603260045260246000fd5b60200101907effffffffffffffffffffffffffffffffffffffffffffffffffffffffffffff1916908160001a905350600485901c94508061132990612716565b9050611247565b5060008414611374576040517f08c379a000000000000000000000000000000000000000000000000000000000815260040161136b906122e8565b60405180910390fd5b8091505092915050565b600080823b905060008111915050919050565b6000808473ffffffffffffffffffffffffffffffffffffffff1663095ea7b360e01b85856040516024016113c6929190612211565b604051602081830303815290604052907bffffffffffffffffffffffffffffffffffffffffffffffffffffffff19166020820180517bffffffffffffffffffffffffffffffffffffffffffffffffffffffff8381831617835250505050604051611430919061216e565b6000604051808303816000865af19150503d806000811461146d576040519150601f19603f3d011682016040523d82523d6000602084013e611472565b606091505b50915091508180156114a0575060008151148061149f57508080602001905181019061149e9190611c76565b5b5b6114df576040517f08c379a00000000000000000000000000000000000000000000000000000000081526004016114d690612308565b60405180910390fd5b5050505050565b6000806040518061010001604052808973ffffffffffffffffffffffffffffffffffffffff1681526020018873ffffffffffffffffffffffffffffffffffffffff1681526020018762ffffff1681526020013073ffffffffffffffffffffffffffffffffffffffff1681526020018463ffffffff168152602001868152602001858152602001600073ffffffffffffffffffffffffffffffffffffffff168152509050600260009054906101000a900473ffffffffffffffffffffffffffffffffffffffff1673ffffffffffffffffffffffffffffffffffffffff1663db3e2198826040518263ffffffff1660e01b81526004016115e491906123e8565b602060405180830381600087803b1580156115fe57600080fd5b505af1158015611612573d6000803e3d6000fd5b505050506040513d601f19601f820116820180604052508101906116369190611d56565b91507f2d8d9d7f49599a20c9e475f932138bdf56ab8ddbcd627a642030d3d788012b5688888460405161166b939291906121da565b60405180910390a1509695505050505050565b8383905082829050146116c6576040517f08c379a00000000000000000000000000000000000000000000000000000000081526004016116bd90612348565b60405180910390fd5b60008060005b8686905081101561184457868682818110611710577f4e487b7100000000000000000000000000000000000000000000000000000000600052603260045260246000fd5b90506020020160208101906117259190611b1c565b9250600073ffffffffffffffffffffffffffffffffffffffff16878783818110611778577f4e487b7100000000000000000000000000000000000000000000000000000000600052603260045260246000fd5b905060200201602081019061178d9190611b1c565b73ffffffffffffffffffffffffffffffffffffffff1614156117e4576040517f08c379a00000000000000000000000000000000000000000000000000000000081526004016117db90612368565b60405180910390fd5b84848281811061181d577f4e487b7100000000000000000000000000000000000000000000000000000000600052603260045260246000fd5b90506020020135915061183188848461188b565b808061183c90612740565b9150506116cc565b507f6b82a3962e5fe7c719b4bec2b902045249682ce10c3004d113ae455e5d8c563d8686868660405161187a949392919061223a565b60405180910390a150505050505050565b6000808473ffffffffffffffffffffffffffffffffffffffff1663a9059cbb60e01b85856040516024016118c0929190612211565b604051602081830303815290604052907bffffffffffffffffffffffffffffffffffffffffffffffffffffffff19166020820180517bffffffffffffffffffffffffffffffffffffffffffffffffffffffff838183161783525050505060405161192a919061216e565b6000604051808303816000865af19150503d8060008114611967576040519150601f19603f3d011682016040523d82523d6000602084013e61196c565b606091505b509150915081801561199a57506000815114806119995750808060200190518101906119989190611c76565b5b5b6119d9576040517f08c379a00000000000000000000000000000000000000000000000000000000081526004016119d090612388565b60405180910390fd5b5050505050565b6000813590506119ef816129fb565b92915050565b60008083601f840112611a0757600080fd5b8235905067ffffffffffffffff811115611a2057600080fd5b602083019150836020820283011115611a3857600080fd5b9250929050565b60008083601f840112611a5157600080fd5b8235905067ffffffffffffffff811115611a6a57600080fd5b602083019150836080820283011115611a8257600080fd5b9250929050565b600081519050611a9881612a12565b92915050565b600081359050611aad81612a29565b92915050565b600081359050611ac281612a40565b92915050565b600081359050611ad781612a57565b92915050565b600081359050611aec81612a6e565b92915050565b600081519050611b0181612a6e565b92915050565b600081359050611b1681612a85565b92915050565b600060208284031215611b2e57600080fd5b6000611b3c848285016119e0565b91505092915050565b60008060408385031215611b5857600080fd5b6000611b66858286016119e0565b9250506020611b77858286016119e0565b9150509250929050565b600080600080600080600060a0888a031215611b9c57600080fd5b6000611baa8a828b016119e0565b9750506020611bbb8a828b01611add565b9650506040611bcc8a828b01611b07565b955050606088013567ffffffffffffffff811115611be957600080fd5b611bf58a828b01611a3f565b9450945050608088013567ffffffffffffffff811115611c1457600080fd5b611c208a828b016119f5565b925092505092959891949750929550565b60008060208385031215611c4457600080fd5b600083013567ffffffffffffffff811115611c5e57600080fd5b611c6a858286016119f5565b92509250509250929050565b600060208284031215611c8857600080fd5b6000611c9684828501611a89565b91505092915050565b600060208284031215611cb157600080fd5b6000611cbf84828501611a9e565b91505092915050565b60008060408385031215611cdb57600080fd5b6000611ce985828601611a9e565b9250506020611cfa858286016119e0565b9150509250929050565b600060208284031215611d1657600080fd5b6000611d2484828501611ab3565b91505092915050565b600060208284031215611d3f57600080fd5b6000611d4d84828501611ac8565b91505092915050565b600060208284031215611d6857600080fd5b6000611d7684828501611af2565b91505092915050565b6000611d8b8383611d97565b60208301905092915050565b611da081612613565b82525050565b611daf81612613565b82525050565b6000611dc18385612503565b9350611dcc826124d6565b8060005b85811015611e0557611de2828461254c565b611dec8882611d7f565b9750611df7836124f6565b925050600181019050611dd0565b5085925050509392505050565b6000611e1e8385612514565b93507f07ffffffffffffffffffffffffffffffffffffffffffffffffffffffffffffff831115611e4d57600080fd5b602083029250611e5e8385846126d4565b82840190509392505050565b611e7381612625565b82525050565b611e8281612631565b82525050565b6000611e93826124e0565b611e9d8185612525565b9350611ead8185602086016126e3565b80840191505092915050565b611ec2816126b0565b82525050565b6000611ed3826124eb565b611edd8185612530565b9350611eed8185602086016126e3565b611ef6816127b8565b840191505092915050565b6000611f0c826124eb565b611f168185612541565b9350611f268185602086016126e3565b80840191505092915050565b6000611f3f602083612530565b9150611f4a826127c9565b602082019050919050565b6000611f62600283612530565b9150611f6d826127f2565b602082019050919050565b6000611f85602e83612530565b9150611f908261281b565b604082019050919050565b6000611fa8602583612530565b9150611fb38261286a565b604082019050919050565b6000611fcb602283612530565b9150611fd6826128b9565b604082019050919050565b6000611fee600283612530565b9150611ff982612908565b602082019050919050565b6000612011600383612530565b915061201c82612931565b602082019050919050565b6000612034601783612541565b915061203f8261295a565b601782019050919050565b6000612057601183612541565b915061206282612983565b601182019050919050565b600061207a602f83612530565b9150612085826129ac565b604082019050919050565b610100820160008201516120a76000850182611d97565b5060208201516120ba6020850182611d97565b5060408201516120cd6040850182612141565b5060608201516120e06060850182611d97565b5060808201516120f36080850182612150565b5060a082015161210660a0850182612150565b5060c082015161211960c0850182612150565b5060e082015161212c60e0850182612132565b50505050565b61213b81612667565b82525050565b61214a81612687565b82525050565b61215981612696565b82525050565b61216881612696565b82525050565b600061217a8284611e88565b915081905092915050565b600061219082612027565b915061219c8285611f01565b91506121a78261204a565b91506121b38284611f01565b91508190509392505050565b60006020820190506121d46000830184611da6565b92915050565b60006060820190506121ef6000830186611da6565b6121fc6020830185611da6565b612209604083018461215f565b949350505050565b60006040820190506122266000830185611da6565b612233602083018461215f565b9392505050565b60006040820190508181036000830152612255818688611db5565b9050818103602083015261226a818486611e12565b905095945050505050565b600060208201905061228a6000830184611e6a565b92915050565b60006020820190506122a56000830184611e79565b92915050565b60006020820190506122c06000830184611eb9565b92915050565b600060208201905081810360008301526122e08184611ec8565b905092915050565b6000602082019050818103600083015261230181611f32565b9050919050565b6000602082019050818103600083015261232181611f55565b9050919050565b6000602082019050818103600083015261234181611f78565b9050919050565b6000602082019050818103600083015261236181611f9b565b9050919050565b6000602082019050818103600083015261238181611fbe565b9050919050565b600060208201905081810360008301526123a181611fe1565b9050919050565b600060208201905081810360008301526123c181612004565b9050919050565b600060208201905081810360008301526123e18161206d565b9050919050565b6000610100820190506123fe6000830184612090565b92915050565b6000808335600160200384360303811261241d57600080fd5b80840192508235915067ffffffffffffffff82111561243b57600080fd5b60208301925060208202360383131561245357600080fd5b509250929050565b6000808335600160200384360303811261247457600080fd5b80840192508235915067ffffffffffffffff82111561249257600080fd5b6020830192506020820236038313156124aa57600080fd5b509250929050565b6000823560016080038336030381126124ca57600080fd5b80830191505092915050565b6000819050919050565b600081519050919050565b600081519050919050565b6000602082019050919050565b600082825260208201905092915050565b600082825260208201905092915050565b600081905092915050565b600082825260208201905092915050565b600081905092915050565b600061255b60208401846119e0565b905092915050565b600061256e82612696565b915061257983612696565b9250827fffffffffffffffffffffffffffffffffffffffffffffffffffffffffffffffff038211156125ae576125ad612789565b5b828201905092915050565b60006125c482612696565b91506125cf83612696565b9250817fffffffffffffffffffffffffffffffffffffffffffffffffffffffffffffffff048311821515161561260857612607612789565b5b828202905092915050565b600061261e82612667565b9050919050565b60008115159050919050565b6000819050919050565b60007fffffffff0000000000000000000000000000000000000000000000000000000082169050919050565b600073ffffffffffffffffffffffffffffffffffffffff82169050919050565b600062ffffff82169050919050565b6000819050919050565b600063ffffffff82169050919050565b60006126bb826126c2565b9050919050565b60006126cd82612667565b9050919050565b82818337600083830152505050565b60005b838110156127015780820151818401526020810190506126e6565b83811115612710576000848401525b50505050565b600061272182612696565b9150600082141561273557612734612789565b5b600182039050919050565b600061274b82612696565b91507fffffffffffffffffffffffffffffffffffffffffffffffffffffffffffffffff82141561277e5761277d612789565b5b600182019050919050565b7f4e487b7100000000000000000000000000000000000000000000000000000000600052601160045260246000fd5b6000601f19601f8301169050919050565b7f537472696e67733a20686578206c656e67746820696e73756666696369656e74600082015250565b7f5341000000000000000000000000000000000000000000000000000000000000600082015250565b7f496e697469616c697a61626c653a20636f6e747261637420697320616c72656160008201527f647920696e697469616c697a6564000000000000000000000000000000000000602082015250565b7f426f746820617272617973206d7573742068617665207468652073616d65206c60008201527f656e677468000000000000000000000000000000000000000000000000000000602082015250565b7f45524332303a2063616e6e6f742072656769737465722061203020616464726560008201527f7373000000000000000000000000000000000000000000000000000000000000602082015250565b7f5354000000000000000000000000000000000000000000000000000000000000600082015250565b7f5354460000000000000000000000000000000000000000000000000000000000600082015250565b7f416363657373436f6e74726f6c3a206163636f756e7420000000000000000000600082015250565b7f206973206d697373696e6720726f6c6520000000000000000000000000000000600082015250565b7f416363657373436f6e74726f6c3a2063616e206f6e6c792072656e6f756e636560008201527f20726f6c657320666f722073656c660000000000000000000000000000000000602082015250565b612a0481612613565b8114612a0f57600080fd5b50565b612a1b81612625565b8114612a2657600080fd5b50565b612a3281612631565b8114612a3d57600080fd5b50565b612a498161263b565b8114612a5457600080fd5b50565b612a6081612687565b8114612a6b57600080fd5b50565b612a7781612696565b8114612a8257600080fd5b50565b612a8e816126a0565b8114612a9957600080fd5b5056fea2646970667358221220a93426408fe11d877506155bae3151d5cce56b3fab4bd0b51923a867432f143364736f6c63430008040033",
  "devdoc": {
    "author": "Lucas Marc",
    "kind": "dev",
    "methods": {
      "getRoleAdmin(bytes32)": {
        "details": "Returns the admin role that controls `role`. See {grantRole} and {revokeRole}. To change a role's admin, use {_setRoleAdmin}."
      },
      "grantRole(bytes32,address)": {
        "details": "Grants `role` to `account`. If `account` had not been already granted `role`, emits a {RoleGranted} event. Requirements: - the caller must have ``role``'s admin role."
      },
      "hasRole(bytes32,address)": {
        "details": "Returns `true` if `account` has been granted `role`."
      },
      "performSwapAndPayment(address,uint256,uint32,(address,uint256,uint256,uint24)[],(address,uint256,address[],uint256[])[])": {
        "params": {
          "_deadline": "The unix timestamp after a swap will fail",
          "_erc20TokenOrigin": "ERC20 token address to swap for another",
          "_payments": "The array of the Payment data",
          "_swaps": "The array of the Swaps data",
          "_totalAmountToSpend": "Total amount of erc20TokenOrigin to spend in swaps and payments. You must know the total amount of erc20TokenOrigin to spend on swaps and also to spend on payments."
        }
      },
      "performTransferAndPayment((address,uint256,address[],uint256[])[])": {
        "params": {
          "_payments": "The array of the Payment data"
        }
      },
      "renounceRole(bytes32,address)": {
        "details": "Revokes `role` from the calling account. Roles are often managed via {grantRole} and {revokeRole}: this function's purpose is to provide a mechanism for accounts to lose their privileges if they are compromised (such as when a trusted device is misplaced). If the calling account had been revoked `role`, emits a {RoleRevoked} event. Requirements: - the caller must be `account`."
      },
      "revokeRole(bytes32,address)": {
        "details": "Revokes `role` from `account`. If `account` had been granted `role`, emits a {RoleRevoked} event. Requirements: - the caller must have ``role``'s admin role."
      },
      "supportsInterface(bytes4)": {
        "details": "See {IERC165-supportsInterface}."
      }
    },
    "title": "A contract that allows multiple payments in one transaction",
    "version": 1
  },
  "userdoc": {
    "kind": "user",
    "methods": {
      "performSwapAndPayment(address,uint256,uint32,(address,uint256,uint256,uint24)[],(address,uint256,address[],uint256[])[])": {
        "notice": "Perform the swap and then the payment to the given addressesCurrently the function only works with ERC20 tokens"
      },
      "performTransferAndPayment((address,uint256,address[],uint256[])[])": {
        "notice": "Perform the token transfer and then the payment to the given addressesCurrently the function only works with ERC20 tokens"
      }
    },
    "version": 1
  },
  "storageLayout": {
    "storage": [
      {
        "astId": 6,
        "contract": "contracts/Payroll.sol:Payroll",
        "label": "_initialized",
        "offset": 0,
        "slot": "0",
        "type": "t_bool"
      },
      {
        "astId": 9,
        "contract": "contracts/Payroll.sol:Payroll",
        "label": "_initializing",
        "offset": 1,
        "slot": "0",
        "type": "t_bool"
      },
      {
        "astId": 343,
        "contract": "contracts/Payroll.sol:Payroll",
        "label": "_roles",
        "offset": 0,
        "slot": "1",
        "type": "t_mapping(t_bytes32,t_struct(RoleData)338_storage)"
      },
      {
        "astId": 2995,
        "contract": "contracts/Payroll.sol:Payroll",
        "label": "swapRouter",
        "offset": 0,
        "slot": "2",
        "type": "t_contract(ISwapRouter)2800"
      },
      {
        "astId": 2997,
        "contract": "contracts/Payroll.sol:Payroll",
        "label": "owner",
        "offset": 0,
        "slot": "3",
        "type": "t_address"
      }
    ],
    "types": {
      "t_address": {
        "encoding": "inplace",
        "label": "address",
        "numberOfBytes": "20"
      },
      "t_bool": {
        "encoding": "inplace",
        "label": "bool",
        "numberOfBytes": "1"
      },
      "t_bytes32": {
        "encoding": "inplace",
        "label": "bytes32",
        "numberOfBytes": "32"
      },
      "t_contract(ISwapRouter)2800": {
        "encoding": "inplace",
        "label": "contract ISwapRouter",
        "numberOfBytes": "20"
      },
      "t_mapping(t_address,t_bool)": {
        "encoding": "mapping",
        "key": "t_address",
        "label": "mapping(address => bool)",
        "numberOfBytes": "32",
        "value": "t_bool"
      },
      "t_mapping(t_bytes32,t_struct(RoleData)338_storage)": {
        "encoding": "mapping",
        "key": "t_bytes32",
        "label": "mapping(bytes32 => struct AccessControl.RoleData)",
        "numberOfBytes": "32",
        "value": "t_struct(RoleData)338_storage"
      },
      "t_struct(RoleData)338_storage": {
        "encoding": "inplace",
        "label": "struct AccessControl.RoleData",
        "members": [
          {
            "astId": 335,
            "contract": "contracts/Payroll.sol:Payroll",
            "label": "members",
            "offset": 0,
            "slot": "0",
            "type": "t_mapping(t_address,t_bool)"
          },
          {
            "astId": 337,
            "contract": "contracts/Payroll.sol:Payroll",
            "label": "adminRole",
            "offset": 0,
            "slot": "1",
            "type": "t_bytes32"
          }
        ],
        "numberOfBytes": "64"
      }
    }
  }
}