{
  "address": "0x6755f3b34da5e0DAF94dbe41D6fD4c4Ce6bCB8C1",
  "abi": [
    {
      "anonymous": false,
      "inputs": [
        {
          "indexed": false,
          "internalType": "address[]",
          "name": "_receivers",
          "type": "address[]"
        },
        {
          "indexed": false,
          "internalType": "uint256[]",
          "name": "_amountsToTransfer",
          "type": "uint256[]"
        }
      ],
      "name": "BatchPaymentFinished",
      "type": "event"
    },
    {
      "anonymous": false,
      "inputs": [
        {
          "indexed": true,
          "internalType": "bytes32",
          "name": "role",
          "type": "bytes32"
        },
        {
          "indexed": true,
          "internalType": "bytes32",
          "name": "previousAdminRole",
          "type": "bytes32"
        },
        {
          "indexed": true,
          "internalType": "bytes32",
          "name": "newAdminRole",
          "type": "bytes32"
        }
      ],
      "name": "RoleAdminChanged",
      "type": "event"
    },
    {
      "anonymous": false,
      "inputs": [
        {
          "indexed": true,
          "internalType": "bytes32",
          "name": "role",
          "type": "bytes32"
        },
        {
          "indexed": true,
          "internalType": "address",
          "name": "account",
          "type": "address"
        },
        {
          "indexed": true,
          "internalType": "address",
          "name": "sender",
          "type": "address"
        }
      ],
      "name": "RoleGranted",
      "type": "event"
    },
    {
      "anonymous": false,
      "inputs": [
        {
          "indexed": true,
          "internalType": "bytes32",
          "name": "role",
          "type": "bytes32"
        },
        {
          "indexed": true,
          "internalType": "address",
          "name": "account",
          "type": "address"
        },
        {
          "indexed": true,
          "internalType": "address",
          "name": "sender",
          "type": "address"
        }
      ],
      "name": "RoleRevoked",
      "type": "event"
    },
    {
      "inputs": [],
      "name": "ADMIN_ROLE",
      "outputs": [
        {
          "internalType": "bytes32",
          "name": "",
          "type": "bytes32"
        }
      ],
      "stateMutability": "view",
      "type": "function"
    },
    {
      "inputs": [],
      "name": "DEFAULT_ADMIN_ROLE",
      "outputs": [
        {
          "internalType": "bytes32",
          "name": "",
          "type": "bytes32"
        }
      ],
      "stateMutability": "view",
      "type": "function"
    },
    {
      "inputs": [],
      "name": "PAYER_ROLE",
      "outputs": [
        {
          "internalType": "bytes32",
          "name": "",
          "type": "bytes32"
        }
      ],
      "stateMutability": "view",
      "type": "function"
    },
    {
      "inputs": [
        {
          "internalType": "bytes32",
          "name": "role",
          "type": "bytes32"
        }
      ],
      "name": "getRoleAdmin",
      "outputs": [
        {
          "internalType": "bytes32",
          "name": "",
          "type": "bytes32"
        }
      ],
      "stateMutability": "view",
      "type": "function"
    },
    {
      "inputs": [
        {
          "internalType": "bytes32",
          "name": "role",
          "type": "bytes32"
        },
        {
          "internalType": "address",
          "name": "account",
          "type": "address"
        }
      ],
      "name": "grantRole",
      "outputs": [],
      "stateMutability": "nonpayable",
      "type": "function"
    },
    {
      "inputs": [
        {
          "internalType": "bytes32",
          "name": "role",
          "type": "bytes32"
        },
        {
          "internalType": "address",
          "name": "account",
          "type": "address"
        }
      ],
      "name": "hasRole",
      "outputs": [
        {
          "internalType": "bool",
          "name": "",
          "type": "bool"
        }
      ],
      "stateMutability": "view",
      "type": "function"
    },
    {
      "inputs": [
        {
          "internalType": "address",
          "name": "_owner",
          "type": "address"
        }
      ],
      "name": "initialize",
      "outputs": [],
      "stateMutability": "nonpayable",
      "type": "function"
    },
    {
      "inputs": [],
      "name": "owner",
      "outputs": [
        {
          "internalType": "address",
          "name": "",
          "type": "address"
        }
      ],
      "stateMutability": "view",
      "type": "function"
    },
    {
      "inputs": [
        {
          "internalType": "address",
          "name": "_erc20TokenAddress",
          "type": "address"
        },
        {
          "internalType": "address[]",
          "name": "_receivers",
          "type": "address[]"
        },
        {
          "internalType": "uint256[]",
          "name": "_amountsToTransfer",
          "type": "uint256[]"
        }
      ],
      "name": "performPayment",
      "outputs": [],
      "stateMutability": "nonpayable",
      "type": "function"
    },
    {
      "inputs": [
        {
          "internalType": "bytes32",
          "name": "role",
          "type": "bytes32"
        },
        {
          "internalType": "address",
          "name": "account",
          "type": "address"
        }
      ],
      "name": "renounceRole",
      "outputs": [],
      "stateMutability": "nonpayable",
      "type": "function"
    },
    {
      "inputs": [
        {
          "internalType": "bytes32",
          "name": "role",
          "type": "bytes32"
        },
        {
          "internalType": "address",
          "name": "account",
          "type": "address"
        }
      ],
      "name": "revokeRole",
      "outputs": [],
      "stateMutability": "nonpayable",
      "type": "function"
    },
    {
      "inputs": [
        {
          "internalType": "bytes4",
          "name": "interfaceId",
          "type": "bytes4"
        }
      ],
      "name": "supportsInterface",
      "outputs": [
        {
          "internalType": "bool",
          "name": "",
          "type": "bool"
        }
      ],
      "stateMutability": "view",
      "type": "function"
    }
  ],
  "transactionHash": "0x77b0c2b37635e949fd10798be808acf2d2ccaebee28f6b13afc15ec2added445",
  "args": [],
  "numDeployments": 1,
  "solcInputHash": "1e2b2afa09d85fbb9140c12a8e34d8c9",
  "bytecode": "0x608060405234801561001057600080fd5b50611a0e806100206000396000f3fe608060405234801561001057600080fd5b50600436106100b45760003560e01c80638da5cb5b116100715780638da5cb5b1461018d57806391d14854146101ab5780639282504c146101db578063a217fddf146101f7578063c4d66de814610215578063d547741f14610231576100b4565b806301ffc9a7146100b9578063248a9ca3146100e95780632f2ff15d1461011957806336568abe1461013557806375b238fc1461015157806377f050b01461016f575b600080fd5b6100d360048036038101906100ce91906110cc565b61024d565b6040516100e09190611433565b60405180910390f35b61010360048036038101906100fe9190611067565b6102c7565b604051610110919061144e565b60405180910390f35b610133600480360381019061012e9190611090565b6102e7565b005b61014f600480360381019061014a9190611090565b610310565b005b610159610393565b604051610166919061144e565b60405180910390f35b61017761039a565b604051610184919061144e565b60405180910390f35b6101956103be565b6040516101a291906113a6565b60405180910390f35b6101c560048036038101906101c09190611090565b6103e4565b6040516101d29190611433565b60405180910390f35b6101f560048036038101906101f09190610fb5565b61044f565b005b6101ff61071a565b60405161020c919061144e565b60405180910390f35b61022f600480360381019061022a9190610f8c565b610721565b005b61024b60048036038101906102469190611090565b61087e565b005b60007f7965db0b000000000000000000000000000000000000000000000000000000007bffffffffffffffffffffffffffffffffffffffffffffffffffffffff1916827bffffffffffffffffffffffffffffffffffffffffffffffffffffffff191614806102c057506102bf826108a7565b5b9050919050565b600060016000838152602001908152602001600020600101549050919050565b6102f0826102c7565b610301816102fc610911565b610919565b61030b83836109b6565b505050565b610318610911565b73ffffffffffffffffffffffffffffffffffffffff168173ffffffffffffffffffffffffffffffffffffffff1614610385576040517f08c379a000000000000000000000000000000000000000000000000000000000815260040161037c9061150b565b60405180910390fd5b61038f8282610a96565b5050565b6000801b81565b7f8ec07e268e32cae7f300b49ad34f20106d088445cb9d9b2d62cbd864638308b281565b600260009054906101000a900473ffffffffffffffffffffffffffffffffffffffff1681565b60006001600084815260200190815260200160002060000160008373ffffffffffffffffffffffffffffffffffffffff1673ffffffffffffffffffffffffffffffffffffffff16815260200190815260200160002060009054906101000a900460ff16905092915050565b7f8ec07e268e32cae7f300b49ad34f20106d088445cb9d9b2d62cbd864638308b26104818161047c610911565b610919565b8484905083839050146104c9576040517f08c379a00000000000000000000000000000000000000000000000000000000081526004016104c0906114cb565b60405180910390fd5b600080600088905060005b888890508110156106d157888882818110610518577f4e487b7100000000000000000000000000000000000000000000000000000000600052603260045260246000fd5b905060200201602081019061052d9190610f8c565b9350600073ffffffffffffffffffffffffffffffffffffffff16898983818110610580577f4e487b7100000000000000000000000000000000000000000000000000000000600052603260045260246000fd5b90506020020160208101906105959190610f8c565b73ffffffffffffffffffffffffffffffffffffffff1614156105ec576040517f08c379a00000000000000000000000000000000000000000000000000000000081526004016105e3906114eb565b60405180910390fd5b868682818110610625577f4e487b7100000000000000000000000000000000000000000000000000000000600052603260045260246000fd5b9050602002013592508173ffffffffffffffffffffffffffffffffffffffff166323b872dd3386866040518463ffffffff1660e01b815260040161066b939291906113c1565b602060405180830381600087803b15801561068557600080fd5b505af1158015610699573d6000803e3d6000fd5b505050506040513d601f19601f820116820180604052508101906106bd919061103e565b5080806106c99061173c565b9150506104d4565b507f6b82a3962e5fe7c719b4bec2b902045249682ce10c3004d113ae455e5d8c563d8888888860405161070794939291906113f8565b60405180910390a1505050505050505050565b6000801b81565b600060019054906101000a900460ff166107495760008054906101000a900460ff1615610752565b610751610b78565b5b610791576040517f08c379a0000000000000000000000000000000000000000000000000000000008152600401610788906114ab565b60405180910390fd5b60008060019054906101000a900460ff1615905080156107e1576001600060016101000a81548160ff02191690831515021790555060016000806101000a81548160ff0219169083151502179055505b81600260006101000a81548173ffffffffffffffffffffffffffffffffffffffff021916908373ffffffffffffffffffffffffffffffffffffffff16021790555061082f6000801b83610b89565b6108597f8ec07e268e32cae7f300b49ad34f20106d088445cb9d9b2d62cbd864638308b283610b89565b801561087a5760008060016101000a81548160ff0219169083151502179055505b5050565b610887826102c7565b61089881610893610911565b610919565b6108a28383610a96565b505050565b60007f01ffc9a7000000000000000000000000000000000000000000000000000000007bffffffffffffffffffffffffffffffffffffffffffffffffffffffff1916827bffffffffffffffffffffffffffffffffffffffffffffffffffffffff1916149050919050565b600033905090565b61092382826103e4565b6109b2576109488173ffffffffffffffffffffffffffffffffffffffff166014610b97565b6109568360001c6020610b97565b60405160200161096792919061136c565b6040516020818303038152906040526040517f08c379a00000000000000000000000000000000000000000000000000000000081526004016109a99190611469565b60405180910390fd5b5050565b6109c082826103e4565b610a9257600180600084815260200190815260200160002060000160008373ffffffffffffffffffffffffffffffffffffffff1673ffffffffffffffffffffffffffffffffffffffff16815260200190815260200160002060006101000a81548160ff021916908315150217905550610a37610911565b73ffffffffffffffffffffffffffffffffffffffff168173ffffffffffffffffffffffffffffffffffffffff16837f2f8788117e7eff1d82e926ec794901d17c78024a50270940304540a733656f0d60405160405180910390a45b5050565b610aa082826103e4565b15610b745760006001600084815260200190815260200160002060000160008373ffffffffffffffffffffffffffffffffffffffff1673ffffffffffffffffffffffffffffffffffffffff16815260200190815260200160002060006101000a81548160ff021916908315150217905550610b19610911565b73ffffffffffffffffffffffffffffffffffffffff168173ffffffffffffffffffffffffffffffffffffffff16837ff6391f5c32d9c69d2a47ea670b442974b53935d1edc7fd64eb21e047a839171b60405160405180910390a45b5050565b6000610b8330610e91565b15905090565b610b9382826109b6565b5050565b606060006002836002610baa91906115f8565b610bb491906115a2565b67ffffffffffffffff811115610bf3577f4e487b7100000000000000000000000000000000000000000000000000000000600052604160045260246000fd5b6040519080825280601f01601f191660200182016040528015610c255781602001600182028036833780820191505090505b5090507f300000000000000000000000000000000000000000000000000000000000000081600081518110610c83577f4e487b7100000000000000000000000000000000000000000000000000000000600052603260045260246000fd5b60200101907effffffffffffffffffffffffffffffffffffffffffffffffffffffffffffff1916908160001a9053507f780000000000000000000000000000000000000000000000000000000000000081600181518110610d0d577f4e487b7100000000000000000000000000000000000000000000000000000000600052603260045260246000fd5b60200101907effffffffffffffffffffffffffffffffffffffffffffffffffffffffffffff1916908160001a90535060006001846002610d4d91906115f8565b610d5791906115a2565b90505b6001811115610e43577f3031323334353637383961626364656600000000000000000000000000000000600f861660108110610dbf577f4e487b7100000000000000000000000000000000000000000000000000000000600052603260045260246000fd5b1a60f81b828281518110610dfc577f4e487b7100000000000000000000000000000000000000000000000000000000600052603260045260246000fd5b60200101907effffffffffffffffffffffffffffffffffffffffffffffffffffffffffffff1916908160001a905350600485901c945080610e3c90611712565b9050610d5a565b5060008414610e87576040517f08c379a0000000000000000000000000000000000000000000000000000000008152600401610e7e9061148b565b60405180910390fd5b8091505092915050565b600080823b905060008111915050919050565b600081359050610eb38161197c565b92915050565b60008083601f840112610ecb57600080fd5b8235905067ffffffffffffffff811115610ee457600080fd5b602083019150836020820283011115610efc57600080fd5b9250929050565b60008083601f840112610f1557600080fd5b8235905067ffffffffffffffff811115610f2e57600080fd5b602083019150836020820283011115610f4657600080fd5b9250929050565b600081519050610f5c81611993565b92915050565b600081359050610f71816119aa565b92915050565b600081359050610f86816119c1565b92915050565b600060208284031215610f9e57600080fd5b6000610fac84828501610ea4565b91505092915050565b600080600080600060608688031215610fcd57600080fd5b6000610fdb88828901610ea4565b955050602086013567ffffffffffffffff811115610ff857600080fd5b61100488828901610eb9565b9450945050604086013567ffffffffffffffff81111561102357600080fd5b61102f88828901610f03565b92509250509295509295909350565b60006020828403121561105057600080fd5b600061105e84828501610f4d565b91505092915050565b60006020828403121561107957600080fd5b600061108784828501610f62565b91505092915050565b600080604083850312156110a357600080fd5b60006110b185828601610f62565b92505060206110c285828601610ea4565b9150509250929050565b6000602082840312156110de57600080fd5b60006110ec84828501610f77565b91505092915050565b6000611101838361110d565b60208301905092915050565b61111681611652565b82525050565b61112581611652565b82525050565b6000611137838561154d565b93506111428261152b565b8060005b8581101561117b57611158828461158b565b61116288826110f5565b975061116d83611540565b925050600181019050611146565b5085925050509392505050565b6000611194838561155e565b93507f07ffffffffffffffffffffffffffffffffffffffffffffffffffffffffffffff8311156111c357600080fd5b6020830292506111d48385846116d0565b82840190509392505050565b6111e981611664565b82525050565b6111f881611670565b82525050565b600061120982611535565b611213818561156f565b93506112238185602086016116df565b61122c816117b4565b840191505092915050565b600061124282611535565b61124c8185611580565b935061125c8185602086016116df565b80840191505092915050565b600061127560208361156f565b9150611280826117c5565b602082019050919050565b6000611298602e8361156f565b91506112a3826117ee565b604082019050919050565b60006112bb60258361156f565b91506112c68261183d565b604082019050919050565b60006112de60228361156f565b91506112e98261188c565b604082019050919050565b6000611301601783611580565b915061130c826118db565b601782019050919050565b6000611324601183611580565b915061132f82611904565b601182019050919050565b6000611347602f8361156f565b91506113528261192d565b604082019050919050565b611366816116c6565b82525050565b6000611377826112f4565b91506113838285611237565b915061138e82611317565b915061139a8284611237565b91508190509392505050565b60006020820190506113bb600083018461111c565b92915050565b60006060820190506113d6600083018661111c565b6113e3602083018561111c565b6113f0604083018461135d565b949350505050565b6000604082019050818103600083015261141381868861112b565b90508181036020830152611428818486611188565b905095945050505050565b600060208201905061144860008301846111e0565b92915050565b600060208201905061146360008301846111ef565b92915050565b6000602082019050818103600083015261148381846111fe565b905092915050565b600060208201905081810360008301526114a481611268565b9050919050565b600060208201905081810360008301526114c48161128b565b9050919050565b600060208201905081810360008301526114e4816112ae565b9050919050565b60006020820190508181036000830152611504816112d1565b9050919050565b600060208201905081810360008301526115248161133a565b9050919050565b6000819050919050565b600081519050919050565b6000602082019050919050565b600082825260208201905092915050565b600082825260208201905092915050565b600082825260208201905092915050565b600081905092915050565b600061159a6020840184610ea4565b905092915050565b60006115ad826116c6565b91506115b8836116c6565b9250827fffffffffffffffffffffffffffffffffffffffffffffffffffffffffffffffff038211156115ed576115ec611785565b5b828201905092915050565b6000611603826116c6565b915061160e836116c6565b9250817fffffffffffffffffffffffffffffffffffffffffffffffffffffffffffffffff048311821515161561164757611646611785565b5b828202905092915050565b600061165d826116a6565b9050919050565b60008115159050919050565b6000819050919050565b60007fffffffff0000000000000000000000000000000000000000000000000000000082169050919050565b600073ffffffffffffffffffffffffffffffffffffffff82169050919050565b6000819050919050565b82818337600083830152505050565b60005b838110156116fd5780820151818401526020810190506116e2565b8381111561170c576000848401525b50505050565b600061171d826116c6565b9150600082141561173157611730611785565b5b600182039050919050565b6000611747826116c6565b91507fffffffffffffffffffffffffffffffffffffffffffffffffffffffffffffffff82141561177a57611779611785565b5b600182019050919050565b7f4e487b7100000000000000000000000000000000000000000000000000000000600052601160045260246000fd5b6000601f19601f8301169050919050565b7f537472696e67733a20686578206c656e67746820696e73756666696369656e74600082015250565b7f496e697469616c697a61626c653a20636f6e747261637420697320616c72656160008201527f647920696e697469616c697a6564000000000000000000000000000000000000602082015250565b7f426f746820617272617973206d7573742068617665207468652073616d65206c60008201527f656e677468000000000000000000000000000000000000000000000000000000602082015250565b7f45524332303a2063616e6e6f742072656769737465722061203020616464726560008201527f7373000000000000000000000000000000000000000000000000000000000000602082015250565b7f416363657373436f6e74726f6c3a206163636f756e7420000000000000000000600082015250565b7f206973206d697373696e6720726f6c6520000000000000000000000000000000600082015250565b7f416363657373436f6e74726f6c3a2063616e206f6e6c792072656e6f756e636560008201527f20726f6c657320666f722073656c660000000000000000000000000000000000602082015250565b61198581611652565b811461199057600080fd5b50565b61199c81611664565b81146119a757600080fd5b50565b6119b381611670565b81146119be57600080fd5b50565b6119ca8161167a565b81146119d557600080fd5b5056fea26469706673582212208b80b385c85362d3cb18cc614efb02f68d38bd5762299c70507efc98547437da64736f6c63430008040033",
  "devdoc": {
    "author": "Lucas Marc",
    "kind": "dev",
    "methods": {
      "getRoleAdmin(bytes32)": {
        "details": "Returns the admin role that controls `role`. See {grantRole} and {revokeRole}. To change a role's admin, use {_setRoleAdmin}."
      },
      "grantRole(bytes32,address)": {
        "details": "Grants `role` to `account`. If `account` had not been already granted `role`, emits a {RoleGranted} event. Requirements: - the caller must have ``role``'s admin role."
      },
      "hasRole(bytes32,address)": {
        "details": "Returns `true` if `account` has been granted `role`."
      },
      "performPayment(address,address[],uint256[])": {
        "params": {
          "_amountsToTransfer": "The array of payments' amounts to perform. The amount will be transfered to the address on _receivers with the same index.",
          "_erc20TokenAddress": "The address of the ERC20 token to transfer",
          "_receivers": "The array of payment receivers"
        }
      },
      "renounceRole(bytes32,address)": {
        "details": "Revokes `role` from the calling account. Roles are often managed via {grantRole} and {revokeRole}: this function's purpose is to provide a mechanism for accounts to lose their privileges if they are compromised (such as when a trusted device is misplaced). If the calling account had been revoked `role`, emits a {RoleRevoked} event. Requirements: - the caller must be `account`."
      },
      "revokeRole(bytes32,address)": {
        "details": "Revokes `role` from `account`. If `account` had been granted `role`, emits a {RoleRevoked} event. Requirements: - the caller must have ``role``'s admin role."
      },
      "supportsInterface(bytes4)": {
        "details": "See {IERC165-supportsInterface}."
      }
    },
    "title": "A contract that allows multiple payments in one transaction",
    "version": 1
  },
  "userdoc": {
    "kind": "user",
    "methods": {
      "performPayment(address,address[],uint256[])": {
        "notice": "Performs the payment to the given addressesCurrently the function only works with only one ERC20 token"
      }
    },
    "version": 1
  },
  "storageLayout": {
    "storage": [
      {
        "astId": 6,
        "contract": "contracts/Payroll.sol:Payroll",
        "label": "_initialized",
        "offset": 0,
        "slot": "0",
        "type": "t_bool"
      },
      {
        "astId": 9,
        "contract": "contracts/Payroll.sol:Payroll",
        "label": "_initializing",
        "offset": 1,
        "slot": "0",
        "type": "t_bool"
      },
      {
        "astId": 343,
        "contract": "contracts/Payroll.sol:Payroll",
        "label": "_roles",
        "offset": 0,
        "slot": "1",
        "type": "t_mapping(t_bytes32,t_struct(RoleData)338_storage)"
      },
      {
        "astId": 2706,
        "contract": "contracts/Payroll.sol:Payroll",
        "label": "owner",
        "offset": 0,
        "slot": "2",
        "type": "t_address"
      }
    ],
    "types": {
      "t_address": {
        "encoding": "inplace",
        "label": "address",
        "numberOfBytes": "20"
      },
      "t_bool": {
        "encoding": "inplace",
        "label": "bool",
        "numberOfBytes": "1"
      },
      "t_bytes32": {
        "encoding": "inplace",
        "label": "bytes32",
        "numberOfBytes": "32"
      },
      "t_mapping(t_address,t_bool)": {
        "encoding": "mapping",
        "key": "t_address",
        "label": "mapping(address => bool)",
        "numberOfBytes": "32",
        "value": "t_bool"
      },
      "t_mapping(t_bytes32,t_struct(RoleData)338_storage)": {
        "encoding": "mapping",
        "key": "t_bytes32",
        "label": "mapping(bytes32 => struct AccessControl.RoleData)",
        "numberOfBytes": "32",
        "value": "t_struct(RoleData)338_storage"
      },
      "t_struct(RoleData)338_storage": {
        "encoding": "inplace",
        "label": "struct AccessControl.RoleData",
        "members": [
          {
            "astId": 335,
            "contract": "contracts/Payroll.sol:Payroll",
            "label": "members",
            "offset": 0,
            "slot": "0",
            "type": "t_mapping(t_address,t_bool)"
          },
          {
            "astId": 337,
            "contract": "contracts/Payroll.sol:Payroll",
            "label": "adminRole",
            "offset": 0,
            "slot": "1",
            "type": "t_bytes32"
          }
        ],
        "numberOfBytes": "64"
      }
    }
  }
}