{
  "address": "0x1DF62e61a4C6a35a7958db4B98AC561D09961656",
  "abi": [
    {
      "anonymous": false,
      "inputs": [
        {
          "indexed": false,
          "internalType": "address[]",
          "name": "_receivers",
          "type": "address[]"
        },
        {
          "indexed": false,
          "internalType": "uint256[]",
          "name": "_amountsToTransfer",
          "type": "uint256[]"
        }
      ],
      "name": "BatchPaymentFinished",
      "type": "event"
    },
    {
      "anonymous": false,
      "inputs": [
        {
          "indexed": true,
          "internalType": "address",
          "name": "previousOwner",
          "type": "address"
        },
        {
          "indexed": true,
          "internalType": "address",
          "name": "newOwner",
          "type": "address"
        }
      ],
      "name": "OwnershipTransferred",
      "type": "event"
    },
    {
      "anonymous": false,
      "inputs": [
        {
          "indexed": false,
          "internalType": "address",
          "name": "_tokenIn",
          "type": "address"
        },
        {
          "indexed": false,
          "internalType": "address",
          "name": "_tokenOut",
          "type": "address"
        },
        {
          "indexed": false,
          "internalType": "uint256",
          "name": "_amountReceived",
          "type": "uint256"
        }
      ],
      "name": "SwapFinished",
      "type": "event"
    },
    {
      "inputs": [
        {
          "internalType": "address",
          "name": "_swapRouter",
          "type": "address"
        },
        {
          "internalType": "bool",
          "name": "_isSwapV2",
          "type": "bool"
        }
      ],
      "name": "initialize",
      "outputs": [],
      "stateMutability": "nonpayable",
      "type": "function"
    },
    {
      "inputs": [],
      "name": "isSwapV2",
      "outputs": [
        {
          "internalType": "bool",
          "name": "",
          "type": "bool"
        }
      ],
      "stateMutability": "view",
      "type": "function"
    },
    {
      "inputs": [],
      "name": "owner",
      "outputs": [
        {
          "internalType": "address",
          "name": "",
          "type": "address"
        }
      ],
      "stateMutability": "view",
      "type": "function"
    },
    {
      "inputs": [
        {
          "internalType": "address",
          "name": "_erc20TokenOrigin",
          "type": "address"
        },
        {
          "internalType": "uint256",
          "name": "_totalAmountToSpend",
          "type": "uint256"
        },
        {
          "internalType": "uint32",
          "name": "_deadline",
          "type": "uint32"
        },
        {
          "components": [
            {
              "internalType": "address",
              "name": "token",
              "type": "address"
            },
            {
              "internalType": "uint256",
              "name": "amountOut",
              "type": "uint256"
            },
            {
              "internalType": "uint256",
              "name": "amountInMax",
              "type": "uint256"
            },
            {
              "internalType": "uint24",
              "name": "poolFee",
              "type": "uint24"
            }
          ],
          "internalType": "struct Payroll.Swap[]",
          "name": "_swaps",
          "type": "tuple[]"
        },
        {
          "components": [
            {
              "internalType": "address",
              "name": "token",
              "type": "address"
            },
            {
              "internalType": "uint256",
              "name": "totalAmountToPay",
              "type": "uint256"
            },
            {
              "internalType": "address[]",
              "name": "receivers",
              "type": "address[]"
            },
            {
              "internalType": "uint256[]",
              "name": "amountsToTransfer",
              "type": "uint256[]"
            }
          ],
          "internalType": "struct Payroll.Payment[]",
          "name": "_payments",
          "type": "tuple[]"
        }
      ],
      "name": "performSwapAndPayment",
      "outputs": [],
      "stateMutability": "nonpayable",
      "type": "function"
    },
    {
      "inputs": [],
      "name": "renounceOwnership",
      "outputs": [],
      "stateMutability": "nonpayable",
      "type": "function"
    },
    {
      "inputs": [
        {
          "internalType": "address",
          "name": "_swapRouter",
          "type": "address"
        },
        {
          "internalType": "bool",
          "name": "_isSwapV2",
          "type": "bool"
        }
      ],
      "name": "setSwapRouter",
      "outputs": [],
      "stateMutability": "nonpayable",
      "type": "function"
    },
    {
      "inputs": [],
      "name": "swapRouter",
      "outputs": [
        {
          "internalType": "contract IUniswapBasic",
          "name": "",
          "type": "address"
        }
      ],
      "stateMutability": "view",
      "type": "function"
    },
    {
      "inputs": [
        {
          "internalType": "address",
          "name": "newOwner",
          "type": "address"
        }
      ],
      "name": "transferOwnership",
      "outputs": [],
      "stateMutability": "nonpayable",
      "type": "function"
    }
  ],
  "transactionHash": "0x018f29672258d970019fc4f2aa70a689aff01f3d65adfdd9436953623909577d",
  "args": [],
  "numDeployments": 1,
  "solcInputHash": "ad2b823d5c8c98be6d68d6c36ccfc386",
  "bytecode": "0x608060405234801561001057600080fd5b50611474806100206000396000f3fe608060405234801561001057600080fd5b50600436106100885760003560e01c80638da5cb5b1161005b5780638da5cb5b146100d0578063c31c9c07146100fa578063f2fde38b1461010d578063f65a83cf1461012057600080fd5b80632171dcc91461008d578063400ada75146100a2578063715018a6146100b5578063891aad70146100bd575b600080fd5b6100a061009b366004610f31565b610144565b005b6100a06100b0366004610f31565b610185565b6100a061025a565b6100a06100cb366004610fb4565b610290565b6033546001600160a01b03165b6040516001600160a01b0390911681526020015b60405180910390f35b6097546100dd906001600160a01b031681565b6100a061011b36600461108b565b6102b6565b60975461013490600160a01b900460ff1681565b60405190151581526020016100f1565b6033546001600160a01b031633146101775760405162461bcd60e51b815260040161016e906110ad565b60405180910390fd5b6101818282610351565b5050565b600054610100900460ff166101a05760005460ff16156101a4565b303b155b6102075760405162461bcd60e51b815260206004820152602e60248201527f496e697469616c697a61626c653a20636f6e747261637420697320616c72656160448201526d191e481a5b9a5d1a585b1a5e995960921b606482015260840161016e565b600054610100900460ff16158015610229576000805461ffff19166101011790555b6102316103ed565b61023961041c565b6102438383610351565b8015610255576000805461ff00191690555b505050565b6033546001600160a01b031633146102845760405162461bcd60e51b815260040161016e906110ad565b61028e600061044b565b565b82156102a3576102a3878787878761049d565b6102ad828261069e565b50505050505050565b6033546001600160a01b031633146102e05760405162461bcd60e51b815260040161016e906110ad565b6001600160a01b0381166103455760405162461bcd60e51b815260206004820152602660248201527f4f776e61626c653a206e6577206f776e657220697320746865207a65726f206160448201526564647265737360d01b606482015260840161016e565b61034e8161044b565b50565b6001600160a01b0382166103b35760405162461bcd60e51b8152602060048201526024808201527f43616e6e6f74207365742061203020616464726573732061732073776170526f6044820152633aba32b960e11b606482015260840161016e565b609780546001600160a01b039093166001600160a01b0319921515600160a01b02929092166001600160a81b031990931692909217179055565b600054610100900460ff166104145760405162461bcd60e51b815260040161016e906110e2565b61028e610759565b600054610100900460ff166104435760405162461bcd60e51b815260040161016e906110e2565b61028e610787565b603380546001600160a01b038381166001600160a01b0319831681179093556040519116919082907f8be0079c531659141344cd1fd0a4f28419497f9722a3daafe3b4186f6b6457e090600090a35050565b6104a9853330876107b7565b6097546104c19086906001600160a01b0316866108c1565b609754600160a01b900460ff16156105605760005b8181101561055a57610548868484848181106104f4576104f461112d565b61050a926020608090920201908101915061108b565b85858581811061051c5761051c61112d565b905060800201602001358686868181106105385761053861112d565b90506080020160400135886109ba565b8061055281611143565b9150506104d6565b50610613565b60005b81811015610611576105ff868484848181106105815761058161112d565b610597926020608090920201908101915061108b565b8585858181106105a9576105a961112d565b90506080020160600160208101906105c1919061116c565b8686868181106105d3576105d361112d565b905060800201602001358787878181106105ef576105ef61112d565b9050608002016040013589610b39565b8061060981611143565b915050610563565b505b6040516370a0823160e01b815230600482015261069790869033906001600160a01b038316906370a082319060240160206040518083038186803b15801561065a57600080fd5b505afa15801561066e573d6000803e3d6000fd5b505050506040513d601f19601f820116820180604052508101906106929190611191565b610c93565b5050505050565b60005b81811015610255576107478383838181106106be576106be61112d565b90506020028101906106d091906111aa565b6106de90602081019061108b565b8484848181106106f0576106f061112d565b905060200281019061070291906111aa565b6107109060408101906111ca565b8686868181106107225761072261112d565b905060200281019061073491906111aa565b6107429060608101906111ca565b610d8c565b8061075181611143565b9150506106a1565b600054610100900460ff166107805760405162461bcd60e51b815260040161016e906110e2565b6001606555565b600054610100900460ff166107ae5760405162461bcd60e51b815260040161016e906110e2565b61028e3361044b565b604080516001600160a01b0385811660248301528481166044830152606480830185905283518084039091018152608490920183526020820180516001600160e01b03166323b872dd60e01b179052915160009283929088169161081b9190611214565b6000604051808303816000865af19150503d8060008114610858576040519150601f19603f3d011682016040523d82523d6000602084013e61085d565b606091505b5091509150818015610887575080511580610887575080806020019051810190610887919061124f565b6108b95760405162461bcd60e51b815260206004820152600360248201526229aa2360e91b604482015260640161016e565b505050505050565b604080516001600160a01b038481166024830152604480830185905283518084039091018152606490920183526020820180516001600160e01b031663095ea7b360e01b179052915160009283929087169161091d9190611214565b6000604051808303816000865af19150503d806000811461095a576040519150601f19603f3d011682016040523d82523d6000602084013e61095f565b606091505b5091509150818015610989575080511580610989575080806020019051810190610989919061124f565b6106975760405162461bcd60e51b8152602060048201526002602482015261534160f01b604482015260640161016e565b60408051600280825260608201835260009260208301908036833701905050905085816000815181106109ef576109ef61112d565b60200260200101906001600160a01b031690816001600160a01b0316815250508481600181518110610a2357610a2361112d565b6001600160a01b039283166020918202929092010152609754604051634401edf760e11b81526000929190911690638803dbee90610a6d9088908890879033908a90600401611282565b600060405180830381600087803b158015610a8757600080fd5b505af1158015610a9b573d6000803e3d6000fd5b505050506040513d6000823e601f3d908101601f19168201604052610ac391908101906112fe565b600081518110610ad557610ad561112d565b602090810291909101810151604080516001600160a01b03808c1682528a1693810193909352820181905291507f2d8d9d7f49599a20c9e475f932138bdf56ab8ddbcd627a642030d3d788012b56906060015b60405180910390a150505050505050565b60975460408051610100810182526001600160a01b0389811682528881166020830190815262ffffff898116848601908152336060860190815263ffffffff89166080870190815260a087018c815260c088018c8152600060e08a018181529a51631b67c43360e31b81529951891660048b01529651881660248a015293519094166044880152905185166064870152516084860152905160a48501525160c48401529251811660e48301529192919091169063db3e21989061010401602060405180830381600087803b158015610c1057600080fd5b505af1158015610c24573d6000803e3d6000fd5b505050506040513d601f19601f82011682018060405250810190610c489190611191565b604080516001600160a01b03808b168252891660208201529081018290529091507f2d8d9d7f49599a20c9e475f932138bdf56ab8ddbcd627a642030d3d788012b5690606001610b28565b604080516001600160a01b038481166024830152604480830185905283518084039091018152606490920183526020820180516001600160e01b031663a9059cbb60e01b1790529151600092839290871691610cef9190611214565b6000604051808303816000865af19150503d8060008114610d2c576040519150601f19603f3d011682016040523d82523d6000602084013e610d31565b606091505b5091509150818015610d5b575080511580610d5b575080806020019051810190610d5b919061124f565b6106975760405162461bcd60e51b815260206004820152600260248201526114d560f21b604482015260640161016e565b808314610ddb5760405162461bcd60e51b815260206004820152601c60248201527f417272617973206d75737420686176652073616d65206c656e67746800000000604482015260640161016e565b60005b83811015610ec2576000858583818110610dfa57610dfa61112d565b9050602002016020810190610e0f919061108b565b6001600160a01b03161415610e665760405162461bcd60e51b815260206004820152601a60248201527f43616e6e6f742073656e6420746f206120302061646472657373000000000000604482015260640161016e565b610eb08633878785818110610e7d57610e7d61112d565b9050602002016020810190610e92919061108b565b868686818110610ea457610ea461112d565b905060200201356107b7565b80610eba81611143565b915050610dde565b507f6b82a3962e5fe7c719b4bec2b902045249682ce10c3004d113ae455e5d8c563d84848484604051610ef894939291906113bc565b60405180910390a15050505050565b80356001600160a01b0381168114610f1e57600080fd5b919050565b801515811461034e57600080fd5b60008060408385031215610f4457600080fd5b610f4d83610f07565b91506020830135610f5d81610f23565b809150509250929050565b60008083601f840112610f7a57600080fd5b50813567ffffffffffffffff811115610f9257600080fd5b6020830191508360208260051b8501011115610fad57600080fd5b9250929050565b600080600080600080600060a0888a031215610fcf57600080fd5b610fd888610f07565b965060208801359550604088013563ffffffff81168114610ff857600080fd5b9450606088013567ffffffffffffffff8082111561101557600080fd5b818a0191508a601f83011261102957600080fd5b81358181111561103857600080fd5b8b60208260071b850101111561104d57600080fd5b6020830196508095505060808a013591508082111561106b57600080fd5b506110788a828b01610f68565b989b979a50959850939692959293505050565b60006020828403121561109d57600080fd5b6110a682610f07565b9392505050565b6020808252818101527f4f776e61626c653a2063616c6c6572206973206e6f7420746865206f776e6572604082015260600190565b6020808252602b908201527f496e697469616c697a61626c653a20636f6e7472616374206973206e6f74206960408201526a6e697469616c697a696e6760a81b606082015260800190565b634e487b7160e01b600052603260045260246000fd5b600060001982141561116557634e487b7160e01b600052601160045260246000fd5b5060010190565b60006020828403121561117e57600080fd5b813562ffffff811681146110a657600080fd5b6000602082840312156111a357600080fd5b5051919050565b60008235607e198336030181126111c057600080fd5b9190910192915050565b6000808335601e198436030181126111e157600080fd5b83018035915067ffffffffffffffff8211156111fc57600080fd5b6020019150600581901b3603821315610fad57600080fd5b6000825160005b81811015611235576020818601810151858301520161121b565b81811115611244576000828501525b509190910192915050565b60006020828403121561126157600080fd5b81516110a681610f23565b634e487b7160e01b600052604160045260246000fd5b600060a082018783526020878185015260a0604085015281875180845260c086019150828901935060005b818110156112d25784516001600160a01b0316835293830193918301916001016112ad565b50506001600160a01b0396909616606085015250505063ffffffff919091166080909101529392505050565b6000602080838503121561131157600080fd5b825167ffffffffffffffff8082111561132957600080fd5b818501915085601f83011261133d57600080fd5b81518181111561134f5761134f61126c565b8060051b604051601f19603f830116810181811085821117156113745761137461126c565b60405291825284820192508381018501918883111561139257600080fd5b938501935b828510156113b057845184529385019392850192611397565b98975050505050505050565b6040808252810184905260008560608301825b878110156113fd576001600160a01b036113e884610f07565b168252602092830192909101906001016113cf565b5083810360208501528481526001600160fb1b0385111561141d57600080fd5b8460051b91508186602083013760009101602001908152969550505050505056fea264697066735822122046bbbe3d16333f1b665d303b3176b4f9acc39cf4895d3fe5d4116333ba394c0d64736f6c63430008090033",
  "devdoc": {
    "author": "Think and Dev Team",
    "kind": "dev",
    "methods": {
      "initialize(address,bool)": {
        "params": {
          "_isSwapV2": "Boolean to specify the version of the router; true means v2, false means v3.",
          "_swapRouter": "Router address to execute swaps."
        }
      },
      "owner()": {
        "details": "Returns the address of the current owner."
      },
      "performSwapAndPayment(address,uint256,uint32,(address,uint256,uint256,uint24)[],(address,uint256,address[],uint256[])[])": {
        "params": {
          "_deadline": "The unix timestamp after a swap will fail.",
          "_erc20TokenOrigin": "ERC20 token address to swap for another.",
          "_payments": "The array of the Payment data.",
          "_swaps": "The array of the Swaps data.",
          "_totalAmountToSpend": "Total amount of erc20TokenOrigin to spend in swaps."
        }
      },
      "renounceOwnership()": {
        "details": "Leaves the contract without owner. It will not be possible to call `onlyOwner` functions anymore. Can only be called by the current owner. NOTE: Renouncing ownership will leave the contract without an owner, thereby removing any functionality that is only available to the owner."
      },
      "setSwapRouter(address,bool)": {
        "params": {
          "_isSwapV2": "Boolean to specify the version of the router; true means v2, false means v3.",
          "_swapRouter": "Router address to execute swaps."
        }
      },
      "transferOwnership(address)": {
        "details": "Transfers ownership of the contract to a new account (`newOwner`). Can only be called by the current owner."
      }
    },
    "title": "Think and Dev Paymentbox",
    "version": 1
  },
  "userdoc": {
    "kind": "user",
    "methods": {
      "isSwapV2()": {
        "notice": "Returns if the contract is working with a v2 Uniswap protocol; true means v2, false means v3."
      },
      "performSwapAndPayment(address,uint256,uint32,(address,uint256,uint256,uint24)[],(address,uint256,address[],uint256[])[])": {
        "notice": "Perform the swap and the transfer to the given addresses.Currently the function only works with ERC20 tokens."
      },
      "setSwapRouter(address,bool)": {
        "notice": "Set the SwapRouter and the version to be used."
      },
      "swapRouter()": {
        "notice": "Returns the address of the Uniswap protocol router, it could be v2 or v3."
      }
    },
    "notice": "Swap and transfer multiple ERC20 pairs to multiple accounts in a single transaction. Use any router address of any DEX that uses Uniswap protocol v2 or v3 to make swaps.",
    "version": 1
  },
  "storageLayout": {
    "storage": [
      {
        "astId": 130,
        "contract": "contracts/Payroll.sol:Payroll",
        "label": "_initialized",
        "offset": 0,
        "slot": "0",
        "type": "t_bool"
      },
      {
        "astId": 133,
        "contract": "contracts/Payroll.sol:Payroll",
        "label": "_initializing",
        "offset": 1,
        "slot": "0",
        "type": "t_bool"
      },
      {
        "astId": 540,
        "contract": "contracts/Payroll.sol:Payroll",
        "label": "__gap",
        "offset": 0,
        "slot": "1",
        "type": "t_array(t_uint256)50_storage"
      },
      {
        "astId": 10,
        "contract": "contracts/Payroll.sol:Payroll",
        "label": "_owner",
        "offset": 0,
        "slot": "51",
        "type": "t_address"
      },
      {
        "astId": 122,
        "contract": "contracts/Payroll.sol:Payroll",
        "label": "__gap",
        "offset": 0,
        "slot": "52",
        "type": "t_array(t_uint256)49_storage"
      },
      {
        "astId": 211,
        "contract": "contracts/Payroll.sol:Payroll",
        "label": "_status",
        "offset": 0,
        "slot": "101",
        "type": "t_uint256"
      },
      {
        "astId": 255,
        "contract": "contracts/Payroll.sol:Payroll",
        "label": "__gap",
        "offset": 0,
        "slot": "102",
        "type": "t_array(t_uint256)49_storage"
      },
      {
        "astId": 2993,
        "contract": "contracts/Payroll.sol:Payroll",
        "label": "swapRouter",
        "offset": 0,
        "slot": "151",
        "type": "t_contract(IUniswapBasic)3537"
      },
      {
        "astId": 2996,
        "contract": "contracts/Payroll.sol:Payroll",
        "label": "isSwapV2",
        "offset": 20,
        "slot": "151",
        "type": "t_bool"
      }
    ],
    "types": {
      "t_address": {
        "encoding": "inplace",
        "label": "address",
        "numberOfBytes": "20"
      },
      "t_array(t_uint256)49_storage": {
        "base": "t_uint256",
        "encoding": "inplace",
        "label": "uint256[49]",
        "numberOfBytes": "1568"
      },
      "t_array(t_uint256)50_storage": {
        "base": "t_uint256",
        "encoding": "inplace",
        "label": "uint256[50]",
        "numberOfBytes": "1600"
      },
      "t_bool": {
        "encoding": "inplace",
        "label": "bool",
        "numberOfBytes": "1"
      },
      "t_contract(IUniswapBasic)3537": {
        "encoding": "inplace",
        "label": "contract IUniswapBasic",
        "numberOfBytes": "20"
      },
      "t_uint256": {
        "encoding": "inplace",
        "label": "uint256",
        "numberOfBytes": "32"
      }
    }
  }
}